:020000040800F2
:1000000000500020E9250008291100082B110008E4
:100010002D1100082F110008311100080000000008
:100020000000000000000000000000003511000882
:10003000331100080000000037110008F510000817
:10004000391100083B1100083D1100083F1100085C
:10005000411100084311000845110008471100082C
:10006000491100084B1100084D1100084F110008FC
:1000700051110008531100085511000857110008CC
:10008000591100085B1100083126000831260008CC
:100090003126000831260008312600085D110008CD
:1000A0005F11000861110008631100086511000864
:1000B00067110008691100086B1100086F11000832
:1000C00071110008731100087511000877110008FC
:1000D000791100087B1100087F11000881110008C8
:1000E0008311000831260008851100080000000077
:1000F0000000000000000000000000000000000000
:0C01000000000000000000005FF808F1A3
:10010C0010B5054C237833B9044B13B10448AFF345
:10011C0000800123237010BD60000020000000004F
:10012C003426000808B5034B1BB103490348AFF351
:10013C00008008BD00000000640000203426000888
:10014C007047000038B50E4B054618784FF47A739B
:10015C00B3FBF0F30B4A1068B0FBF3F000F08EF831
:10016C00044658B90F2D09D8024629464FF0FF30E6
:10017C0000F042F82046044B1D6038BD0120FCE71E
:10018C00000000205800002004000020074A08B599
:10019C001368032043F01003136000F01BF80F20CA
:1001AC00FFF7D0FFFFF7CCFF002008BD0020024076
:1001BC00034A044B11681B780B441360704700BF53
:1001CC008400002000000020014B1868704700BF1D
:1001DC0084000020074A0002D36800F4E06023F496
:1001EC00E0631B041B0C43F0BF6343F40033034375
:1001FC00D360704700ED00E0174B70B5DC684FF032
:10020C00FF36C4F30224C4F10705042D04F10403E2
:10021C0028BF0425062B98BF002406FA05F388BFD7
:10022C00033C21EA0303A34006FA04F422EA040483
:10023C00002843EA0403A8BF00F160404FEA03130F
:10024C00B8BF064ADBB2ABBF00F5614000F00F004F
:10025C0080F80033135470BD00ED00E014ED00E0A5
:10026C00002808DB0123420900F01F0003FA00F00C
:10027C00014B43F82200704700E100E00138B0F177
:10028C00807F0AD2F021064B064A586082F8231070
:10029C000020072298601A6070470120704700BF49
:1002AC0010E000E000ED00E0114AD36813F01003F9
:1002BC0005D01049CB6943F00203CB611023D268FF
:1002CC00500706D50B4943F00403CA6942F00102FA
:1002DC00CA61074AD169C90708D50648C16941F006
:1002EC000401C161D16921F00101D161D360704772
:1002FC000020024088000020064B186910F0800096
:10030C0007D0054A5A6002F188325A601869C0F366
:10031C00C01070470020024023016745034A0020AB
:10032C00136943F080031361704700BF0020024043
:10033C00F8B50646FFF748FF114C07462546E3681B
:10034C00D80712D4E368990644BF2023E360EB6816
:10035C00DA0606D4EB69DB0703D4E86810F0040076
:10036C0007D0FFF7A1FF012003E0731CE7D00EB903
:10037C000320F8BDFFF728FFC01BB042DFD9F7E719
:10038C00002002402DE9F84F244C1E46237E0546E2
:10039C00012B0F4690463FD001234CF25030237670
:1003AC00FFF7C6FFA0BB012D03D0022D0CBF022509
:1003BC0004254FF00009CB46DFF864A04FEA09137F
:1003CC00C3F12001A3F1200206FA01F128FA03F38C
:1003DC00C4F81CB00B4326FA02F21343DAF81020CF
:1003EC009BB242F00102CAF810204CF2503027F8B0
:1003FC001930FFF79DFFDAF8103023F00103CAF82B
:10040C00103028B909F101095FFA89F39D42D5D85A
:10041C0000232376BDE8F88F0220FBE7880000203C
:10042C00002002400022064BDA61064B1A6942F0AA
:10043C0004021A611A6942F040021A61704700BF47
:10044C0088000020002002400022064BDA61064B97
:10045C001A6942F002021A6158611A6942F04002AC
:10046C001A61704788000020002002402DE9F041FD
:10047C00224D07462B7E8846012B3DD00124036874
:10048C002C76022B4CF2503013D1FFF751FF20B1D8
:10049C00012000232B76BDE8F081FFF7C3FF4CF25F
:1004AC005030FFF745FF164A136923F0040313611C
:1004BC00EFE7FFF73DFF0028EAD14FF0FF33C8F814
:1004CC0000302046BE680E4CD7E9023203EB822383
:1004DC00B342DED93046FFF7B7FF4CF25030FFF78E
:1004EC0027FF236923F00203236110B1C8F80060D1
:1004FC00CFE706F58066E7E70220CCE7880000200E
:10050C00002002402DE9F74F00242646654BDFF80A
:10051C00A4C1DFF8A4E10A6832FA06F502D103B0EF
:10052C00BDE8F08F4FF0010808FA06F802EA08025D
:10053C0090457ED14D68122D00F0A98000F282808A
:10054C00022D00F0A18076D8002D00F08880012DBE
:10055C0000F098804FF00F09FF2A93BF824606F1F6
:10056C008045083DD0F800B092BFB500D0F804B07B
:10057C00AD0009FA05F82BEA080804FA05F588BF5E
:10058C0000F1040A48EA0505CAF80050D1F804A0A5
:10059C001AF0805F4DD0444F26F00308BD6908F176
:1005AC00804845F00105BD61BD6908F5803805F04E
:1005BC000105019506F0030B019D4FEA8B0BD8F852
:1005CC00085009FA0BF925EA0909384DA84263D0FD
:1005DC0005F58065A84261D005F58065A8425FD01D
:1005EC0005F58065A8420CBF0325042505FA0BF51B
:1005FC0045EA0905C8F808501D681AF4803F14BF75
:10060C00154395431D605D681AF4003F14BF1543F4
:10061C0095435D609D681AF4801F14BF1543954384
:10062C009D60DD681AF4001F14BF2A4325EA0202FC
:10063C00DA6001366FE7032D22D0112D8AD1CC68F8
:10064C00043487E71A4FBD4209D012D8DFF86C90FA
:10065C004D4504D009F580394D457FF47BAF8C684E
:10066C00C4B1012C0CBFC0F81080C0F81480082451
:10067C0070E76545F3D07545F1D0DFF84490EBE7B2
:10068C00002467E7CC6865E7CC68083462E7CC687F
:10069C000C345FE704245DE70025A7E70125A5E7F7
:1006AC000225A3E7000401400010024000080140AD
:1006BC000000211000003110000032100000111059
:1006CC00000022102DE9F341054608B901203CE059
:1006DC000368DB0710D42B689F075DD42B681907C0
:1006EC0000F194802B685A0700F1BE80E86900285D
:1006FC0040F02C81002028E08F4C636803F00C0341
:10070C00042B07D0636803F00C03082B09D1636832
:10071C00DE0306D523689C03DDD56B68002BDAD18C
:10072C00D4E76B68B3F5803F12D1236843F4803370
:10073C002360FFF749FD064623689803CBD4FFF7E7
:10074C0043FD801B6428F7D9032002B0BDE8F0817B
:10075C009BB9236823F480332360236823F480231C
:10076C002360FFF731FD064623689903B3D5FFF7E5
:10077C002BFD801B6428F7D9E6E7B3F5A02F23687F
:10078C0003D143F480232360CFE723F48033236029
:10079C00236823F48023CBE7674C636813F00C0FBA
:1007AC0007D0636803F00C03082B10D16368DA03DD
:1007BC000DD423689B0702D52B69012B86D12368A6
:1007CC006A6923F0F80343EAC203236086E72A69C7
:1007DC005A4B6AB101221A60FFF7F6FC06462368F1
:1007EC009F07ECD4FFF7F0FC801B0228F7D9ABE78E
:1007FC001A60FFF7E9FC0646236898077FF56EAF91
:10080C00FFF7E2FC801B0228F6D99DE7AA694A4C47
:10081C004B4BDAB101221A60FFF7D6FC0646636A2D
:10082C009B070DD54FF4FA52464B1B68B3FBF2F302
:10083C00019300BF019B5A1E0192002BF9D151E785
:10084C00FFF7C2FC801B0228E9D97DE71A60FFF78D
:10085C00BBFC0646636A9F077FF544AFFFF7B4FC09
:10086C00801B0228F6D96FE7334CE369D80024D4F7
:10087C000127E36943F08053E361E36903F080539C
:10088C000093009B304E3368D90518D5EB68012BCB
:10089C0026D1236A43F001032362FFF795FC41F252
:1008AC0088368046236A9B073FD5002F3FF41EAF46
:1008BC00E36923F08053E36118E70027E2E733682C
:1008CC0043F480733360FFF77FFC80463368DA05AE
:1008DC00DCD4FFF779FCA0EB08006428F6D933E7E9
:1008EC00ABB9236A41F2883823F001032362236AEF
:1008FC0023F004032362FFF767FC0646236A98077C
:10090C00D3D5FFF761FC801B4045F7D91CE7052BBD
:10091C00236A03D143F004032362BAE723F00103F3
:10092C002362236A23F00403B6E7FFF74DFCA0EB28
:10093C000800B042B6D907E700100240000042425E
:10094C008004424258000020007000402A4B5A6834
:10095C001C4602F00C02082A3DD00023274E022828
:10096C0033602BD1FFF730FC0746236899011FD465
:10097C002B6AB3F5803F05D16268A96822F4003276
:10098C000A436260696A62680B4322F4741213436F
:10099C00636001233360FFF717FC054623689A0157
:1009AC003FF5A8AEFFF710FC401B0228F6D9CBE6AA
:1009BC00FFF70AFCC01B0228D7D9C5E6FFF704FCD9
:1009CC00054623689B017FF595AEFFF7FDFB401BA9
:1009DC000228F6D9B8E601283FF4B7AE58682B6A5E
:1009EC0000F480329A427FF471AE6B6A00F470109E
:1009FC00C01A18BF0120A8E6001002406000424255
:100A0C0030B5184B87B002AC03F1100522461868BC
:100A1C005968083303C2AB421446F7D140F20123A4
:100A2C001149ADF804304B6803F00C02082A17D1B9
:100A3C00C3F3834206A80244DB0312F8102C0CD536
:100A4C004B680A48C3F34043504306AA134413F8B7
:100A5C00143CB0FBF3F007B030BD05485043FAE747
:100A6C000248F8E74C2600080010024000127A00F9
:100A7C0000093D002DE9F0410D46044610B9012056
:100A8C00BDE8F081444A136803F007038B4228D376
:100A9C0021688E0730D4CA0743D43F4A136803F049
:100AAC000703AB4265D822683C4D12F0040F6CD1A1
:100ABC00130706D56B68226923F4605343EAC2031B
:100ACC006B60FFF79DFF6B68354AC3F30313D35C70
:100ADC00D840344B1860344B1868FFF733FB0020B8
:100AEC00CEE7136823F007030B431360136803F07E
:100AFC0007038B42C3D1CBE7284B11F0040F1EBF69
:100B0C005A6842F4E0625A60080742BF5A6842F4DD
:100B1C0060525A605A68A06822F0F00202435A6090
:100B2C00B9E762681D4E012A33681AD113F4003FED
:100B3C00A5D0736841F2883823F003031343736024
:100B4C00FFF742FB07467368626803F00C03B3EBD4
:100B5C00820FA2D0FFF738FBC01B4045F3D903200E
:100B6C008EE7022A02D113F0007FE1E713F0020FA7
:100B7C00DEE7136823F007032B431360136803F0BD
:100B8C000703AB427FF47BAF8DE76B68E16823F41E
:100B9C00E0630B436B608BE70020024000100240C7
:100BAC00CE3400085800002004000020044B054AF5
:100BBC005B68C3F3C223D35C034A1068D840704708
:100BCC0000100240DE3400085800002003682DE9B4
:100BDC00F341D907054620D5354CE369DA0032D408
:100BEC000127E36943F08053E361E36903F0805329
:100BFC000193019B2F4E3368DB0526D5236A13F432
:100C0C00407336D1236A6A6823F44073134323621A
:100C1C001FB1E36923F08053E3612868830706D58D
:100C2C00234AA968536823F440430B43536010F0E4
:100C3C0010001BD01E4AE9685368002023F480037F
:100C4C000B43536012E00027D4E7336843F48073FE
:100C5C003360FFF7B9FA80463368D805CED4FFF776
:100C6C00B3FAA0EB08006428F6D9032002B0BDE863
:100C7C00F0816A6802F440729A42C3D001200E4A95
:100C8C00236A1060002023F4407110602162D907A0
:100C9C00B8D5FFF799FA41F288380646236A9A07C5
:100CAC00B0D4FFF791FA801B4045F7D9DDE700BFC0
:100CBC0000100240007000404004424210B5064C47
:100CCC000648E16C89B200F08FFF054B1880A368D1
:100CDC0043F00103A36010BD002401400800002074
:100CEC00A800002010B500241F4B8AB01F481C80A0
:100CFC0000F095FF032340211D48CDE9021302A902
:100D0C000494FFF7FFFB022306934FF4004306A85D
:100D1C000893FFF75BFF174B9A6942F400729A61D4
:100D2C009B69154A03F400730193019B134B5C60A0
:100D3C009A609A6842F008029A609A681207FCD48A
:100D4C009A6842F004029A600C4B9A6812F0040202
:100D5C00FBD10421DA6019614FF48011D9621A6356
:100D6C0011225A630AB010BDA80000200800002010
:100D7C0000080140001002400100800000240140E6
:100D8C00002303707047027810B503462AB3022A79
:100D9C0050D87B2903D07D2901D02F2902D193F87B
:100DAC00040138B3012A4FF0000008BF022293F867
:100DBC00024118BF93F8032184EA010483F802412D
:100DCC0018BF541C83F8040119BF83F803419B1806
:100DDC0059701A7018BF997010BD7B2908D1122157
:100DEC0080F80211012180F8042180F803210170A0
:100DFC001046F1E77B2907D07D290FD02F29EBD1A5
:100E0C00012283F80421E7E701221A70122283F8E9
:100E1C00040183F8022183F80301DDE7187093F8CD
:100E2C00020193F80321B0FA80F0013A83F8032110
:100E3C004009D1E70020CFE7F0B57B24A0421C701D
:100E4C0003D02F2801D07D2817D12F2402255C70C8
:100E5C0058556C1C4FF02F0C154680F0120089B2BF
:100E6C00AE1AB6B2B14204F1010608D87D2218556B
:100E7C00B6B2A01C9A5580B2F0BD0125E8E72F78D8
:100E8C00AE467B2F03D02F2F01D07D2F02D103F83C
:100E9C0004C0B4B215F8017B661C1F559EF80040C7
:100EAC006040B4B2DCE7000038B5084C084B0221B6
:100EBC0020461D8800F0EAF8854201BF2288054BC8
:100ECC0001201A8018BF002038BD00BF024C00085A
:100EDC00004C0008B0010020F0B5124D87B0022183
:100EEC00284600F0D3F801240746FFF705FA002343
:100EFC000D4E01A902A80293CDE90464FFF7B6FADE
:100F0C0068B9BAB2002331462046FFF73BFA2A886B
:100F1C00002306492046FFF735FAFFF7FFF907B023
:100F2C00F0BD00BFB0010020004C0008024C0008CE
:100F3C000022024B1A705A70FFF7CEBFB00100208E
:100F4C0010B5002486B0FFF7D7F9094B01A904931B
:100F5C00084B02A81B8802940593FFF787FA20B967
:100F6C00FFF7DCF9012006B010BD2046FBE700BFFF
:100F7C0000500008B8010020024B034A1360034ADA
:100F8C0013607047005000081C000020180000205F
:100F9C008028F8B504460D4620D810F001001DD16C
:100FAC00144E154A33681268013B23449A4209D304
:100FBC00FFF7A2F904F0FE042C44A54203D1FFF77D
:100FCC00ADF90120F8BD2A88002331680120FFF714
:100FDC00D9F901282F4603D1FFF7A0F90020F1E73A
:100FEC0033683A88198802359142F5D1023333605F
:100FFC00E3E700BF1C000020B4010020802810B5DE
:10100C0003460ED810F001000BD10749074C0A68B3
:10101C002468A24204D813449C4201D310460B60AE
:10102C0010BD0020FCE700BF18000020B401002018
:10103C000A4B0B4A1B880B499B021360A3F5A04279
:10104C000A600949C2F38F220A80084903F1006340
:10105C000A80074A013B1360704700BFE0F7FF1F8F
:10106C00BC010020AC010020B2010020B80100201E
:10107C00B4010020044B81EA102133F8113083EACB
:10108C00002080B2704700BF822E000810B50246C7
:10109C0044180120A24205D1C0B280F47F4080F0F8
:1010AC00FF0010BD12F8011BFFF7E4FFF2E7000090
:1010BC00044B986810F400601CBF9868C0F30030B3
:1010CC00704700BF00080140064B5A6822F4882282
:1010DC005A605A6842F408225A604FF4C0521A619E
:1010EC00704700BF0008014008B5FFF761F800F039
:1010FC0013FA00F071FF084A13780133DBB2132B9B
:10110C0001D8137008BD00231370FFF7D7FDBDE89D
:10111C00084000F011BC00BFC10100207047FEE781
:10112C00FEE7FEE7FEE77047704770477047704771
:10113C0070477047704770477047704770477047EB
:10114C0070477047704770477047704770477047DB
:10115C00704770477047704770477047704700F092
:10116C00ADBE70477047704770477047704701F0CD
:10117C0055B970477047704770470000064B9A6826
:10118C009B6812F4806F0CBF032002201B0544BF28
:10119C000238C0B2704700BF000C0140064B5A68C1
:1011AC0022F488425A605A6842F408425A604FF45A
:1011BC0040621A61704700BF000C0140D0F8E43166
:1011CC00D0F8E8211344C0F8E4311B0C838170473C
:1011DC00D0F8E431C289A3EB0243C0F8E4311B0C14
:1011EC008381704710B58842BDF9084005DAA042EA
:1011FC000FDCA14205DA1A460BE0A04209DBA14242
:10120C00F9DC9B1A241A5C43091A94FBF1F10A4489
:10121C0012B2104610BD0000002170B50A4601251F
:10122C004FF48034FF20124B124E83F8D51101314C
:10123C0018291A7083F8D45183F8D351DA70DA81F3
:10124C005A70C3F8E8419A7083F82C00C3F8EC612B
:10125C00C3F8E4219A8103F5FA73E6D1064B1A70B0
:10126C00064B1C60064B1870064B187070BD00BF07
:10127C00E4010020E830002010310020DC010020C7
:10128C00C4300020D6010020002342F6E06019464D
:10129C0010B5054C1A1903F5FA73834282F8D11173
:1012AC0082F8D211F6D110BDE401002010B504462D
:1012BC00FFF7EAFFFFF7B0FF034B14B101221A70DE
:1012CC0010BD1C70FCE700BFD401002090F8D23197
:1012DC0090F8D1011B1ADBB258B20028BCBF2333E3
:1012EC0058B2C0B2704710B50246FFF7EFFF68B1B5
:1012FC00232192F8D101441C94FBF1F301FB13431D
:10130C0082F8D1310C2303FB00202D3010BD0000DE
:10131C0070B5134B1A78012A1FD9124B1878D8B113
:10132C00114B4FF4FA751C780023104ED9B28C4235
:10133C000BD80F4B1878013090FBF2F302FB130023
:10134C00C0B200F0C3F9012006E0013305FB0361D4
:10135C0011F8210C0028E9D170BD0020FCE700BF7A
:10136C00E0010020E4300020D5010020E401002041
:10137C00D60100202DE9F34104460D460127504EBD
:10138C00A56084F8D4712B78032B41D007D8012B9E
:10139C0022D0022B2BD000232370E37024E0F02BFF
:1013AC0069D0F12B5FD0042BF5D120466978AE784B
:1013BC00EF78AD88FFF70CFF424B2182B3F9003078
:1013CC000A4600936682A78233464FF47A71002056
:1013DC00FFF708FFE07019E020466988FFF7F8FE78
:1013EC00A3685B78E181E37002B0BDE8F081204630
:1013FC006978AE78AD88FFF7EBFE2378012B07BF39
:10140C002182668226826182238AE370E581EBE782
:10141C002046E978EE886F7895F80280AD88FFF762
:10142C00D7FE642928BF642106FB01F36421B3FBBA
:10143C00F1F322789BB2012AA6EB03060CBFA38220
:10144C00E3824FF00003B6B2BFB21FFA88F803BFB5
:10145C002782A4F81280E682A4F810801CBF678251
:10146C00A682A361D0E720466D88FFF7B1FE16482F
:10147C0000F062FECAE7337884F8D371032B08D1ED
:10148C00A3685B78012B09D0022B13D000232370A7
:10149C00AAE7FFF73DFF0028F2D0A5E723703378C9
:1014AC00032B05D1204602B0BDE8F04100F00EB888
:1014BC00656865E723703378032BF3D00C3D5FE749
:1014CC00D4010020D430002082300008114B10B51C
:1014DC001B780446032B16D00378012B05D18168A9
:1014EC000C31BDE81040FFF745BF022B08D1D0E905
:1014FC0001138B4296BF0123A3F10C010370F0E79B
:10150C000023237010BDFFF7EEFE01460028F7D034
:10151C002046E6E7D40100202DE9F347624E3378EC
:10152C00022B40F0A18002B0BDE8F0874FF4FA71B5
:10153C0001FB0AF14C192046FFF740FE4B5D013BC5
:10154C00012B46D8A3681B78032B30D00FD8012B66
:10155C0013D0022B16D04FF4FA73012103FB0AF3BC
:10156C00EA1882F8D4110021E954D17031E0042B2F
:10157C006CD0F12BEFD10023E370A289E3899A425E
:10158C0027D305E0A089E189638A884204D3E370FC
:10159C002046FFF79BFF1CE000B2B4F910201BB2F1
:1015AC00009009B20020FFF71DFEE07011E0A28947
:1015BC00E3899342ECD9638B218BD31A9BB200291C
:1015CC003CD1A18A994204D801232383638A628384
:1015DC00E370013798F800105FFA87FA5145A5D8E7
:1015EC004FF4FA704FF0FF0C4FF00A0E2F4B00FB2C
:1015FC0001501C782E4B36781F882E4ADFF8C0809D
:10160C00824238D100234FF4FA742B4E2B4FDFF863
:10161C00B0C0DAB2914286D904FB035090F8D521C0
:10162C00052A09D890F8D40130B156F822001CF8DC
:10163C00022037F8122002800133EAE7E18A99424E
:10164C00C7D8002362832383238AC1E7A289E38955
:10165C009A429DD2B9F90010B4F91230B4F91020A5
:10166C0000914FF47A719DE70027DFF85880114DF7
:10167C00DFF85490AEE7D37874B1012E0CD17B43D4
:10168C00B3FBFEF392F8D59102F5FA72B9F1FF0FA4
:10169C0018BF08F80930B3E792F82C9003FB09F354
:1016AC00B3FBFCF3EEE700BFD4010020D701002010
:1016BC00DA300020E4010020280000206A32000803
:1016CC00F1300020D5010020D43000202DE9F04F5E
:1016DC00424B85B01B78044683423DD9404D2A7855
:1016EC00824239D0FFF798FD0023FF2042F6E062DA
:1016FC003C4E991903F5FA73934281F8D501F8D150
:10170C00394B3A4A1B682C7053F824301568002664
:10171C001D442B7B05F11C0101EB830001EBC30184
:10172C0002913349D5F810B091F8008095F80DA0CE
:10173C00984528BF98462F4B914683F800802E4B36
:10174C003746C3F800B02D4B264C83F800A001237C
:10175C000190F1B2884502D805B0BDE8F08F6770F2
:10176C00C4F8E8B1BBF1000F04D14FF480316370C1
:10177C00C4F8E811A77084F82CA0BAF1000F03D1BB
:10178C00FF21A37084F82C10B0002918D1F81CC0CC
:10179C00D9F800E0019A0EEB0C012370616084F81B
:1017AC00D3711044407884F8D5011EF80C00F02851
:1017BC000ED12770E770029A04F5FA74915D104A05
:1017CC0001F0030102EB410144F8081C0136C0E7AB
:1017DC0020460393FFF7CEFD039BECE7E0010020CE
:1017EC00D6010020E4010020D8010020DC300020CC
:1017FC00D501002010310020DC010020C430002075
:10180C00E830002010B5FFF7B9FC0B4BA3F109022F
:10181C00114613F8014D93425C70FAD1002301225A
:10182C000870CC5C0133844218BF00220A2BF8D11B
:10183C000AB1024B187010BDCD010020CC30002035
:10184C0070B500F0A9FA2C4B2C4C18682C4B016885
:10185C001B682C4D99422060296046D8FFF716FC76
:10186C0022682B68D35A1B1A5842584122682649C1
:10187C00137996790B701BB1FF2B14BF0346002311
:10188C001EB9D279022A00D123B900232B601F4B39
:10189C001B6823601E4B1F4A187810705A781E4B19
:1018AC001A7023681D4C1A7918330A701C490B6086
:1018BC00C82393FBF2F31B4A138000221A4B1A70B5
:1018CC0001221A4B1A7090B9FFF768FC062323709B
:1018DC00FFF754FC4FF48032154B1870154B012058
:1018EC00BDE870401A60FFF7E1BC0020BEE7FFF7CF
:1018FC0055FC1823EBE700BF24000020DC3000204F
:10190C00AC010020C8300020E001002020000020A5
:10191C00B0010020E1300020D2010020D5010020D0
:10192C00D8010020E6300020D7010020D40100208F
:10193C00CC3000200C3100206422914B2DE9F04F6B
:10194C001B8885B0323393FBF2F38E4ADBB21370F3
:10195C008D4A117839B98D49097821B11BB18B4267
:10196C009CBF012313708A4A8A4D13888A4E013317
:10197C009BB20A2B88BF002313802B78874C032B38
:10198C00874F6FD1874B1B883380002323703B809C
:10199C002278DFF84882DFF84892002A7CD04FF496
:1019AC008033C8F80030FF2389F8003000218E46C0
:1019BC007D4ADFF830B2D8F80080D2F800C099F830
:1019CC0000909BF80000794B039293F801A0784AA1
:1019DC00BAF1010F08BFD64693F802A004BFC3F8B2
:1019EC00E881C446BAF1010F08BF83F82C9003F5C7
:1019FC00FA7304BF484651469342E6D1BEF1000F3C
:101A0C0002D0039BC3F800C009B18BF80000694AEF
:101A1C001378632B55D92B78022B01D1FFF710FFCC
:101A2C002878012850D1644B1B78FF2B00D1022061
:101A3C0000F008FB00202A78604B012A18701D4624
:101A4C006ED15F4B1B78012B7ED12478002C72D188
:101A5C00B7F9000010F1690F3BDA05B0BDE8F04FA3
:101A6C00FFF7DABB00F012FA207000F01BFA2278B4
:101A7C00034638801AB14FF4FA73338088E7514922
:101A8C005148B1F90010B0F9000000934FF47A738B
:101A9C00FFF7A8FB30807BE70A2331884B48B1FB6A
:101AAC00F3F3DBB250F8233009B2C8F8003010461B
:101ABC000091FF234FF47A71FFF794FB89F8000033
:101ACC0074E701331370ABE702280CBF032004202A
:101ADC00AEE7692818DC3E4B21461E786FF0630395
:101AEC003C4D2F88CAB296421DD82046FFF7EEFD1A
:101AFC002B88354904FB03F204FB0334314B5F3A6A
:101B0C00693C0A801C800BE02B4B1B78FF2B02D10D
:101B1C002046FFF7DBFD01232B704FF4FA73338063
:101B2C0005B0BDE8F08F9842D8BF22463B441BB2AB
:101B3C0001311446D6E7204B1B78FF2BF0D105B0B2
:101B4C00BDE8F04FFFF7C2BD4FF69C721E4B1A80DA
:101B5C0064221C4B1A80FFF755FE1F4B18781C4B48
:101B6C001B78834298BF03F1FF30237898BFC0B233
:101B7C00002BE4D1B7F900306933E0DA6DE700BF30
:101B8C00A8000020F0300020D7010020D201002056
:101B9C00DA300020D4010020D4300020CE01002007
:101BAC00D8300020D6300020DC010020E4010020D9
:101BBC00C4300020D3010020D6010020E4300020E6
:101BCC00E1300020E2300020D00100209C300008E1
:101BDC00E0010020E6300020CC3000200C31002049
:101BEC00E0300020C43000200289036830B533F89F
:101BFC001240C56823F812100389828801339BB206
:101C0C009A42038198BF00232944A1EB0401C160CF
:101C1C0098BF0381C08821FA00F080B230BD002348
:101C2C0030B51D4681889AB2914203F1010400D867
:101C3C0030BD02689BB222F813502346F2E7000035
:101C4C001C4B86B09A6942F004029A619A6902F0C0
:101C5C0004020092009A9A6942F008029A619A6909
:101C6C0002F008020192019A9A6942F010029A61FC
:101C7C009A6902F010020292029A9A6942F02002CA
:101C8C009A619A6902F020020392039A9A6942F0CF
:101C9C0040029A619A6902F040020492049A9A698D
:101CAC0042F001029A619B6903F001030593059BC5
:101CBC0006B070470010024010B590B014220021FD
:101CCC0001A800F083FC1422002108A800F07EFC7F
:101CDC0002244FF480330122CDE90D43CDE90623D4
:101CEC004FF4E01306A80F93FEF7ECFC00B1FEE7EF
:101CFC000F23CDE901344FF4806303900590214606
:101D0C0001A80493FEF7B6FE00B1FEE710B010BDBB
:101D1C0008B5FEF73BFAFFF7CFFFFFF791FF00F096
:101D2C00EDF9FFF785F900F0BFF9164800F004FA59
:101D3C00FFF7BAF800BB144800F0FEF9FFF7F8F80B
:101D4C00042000F07FF944F62066FFF7BDF9FEF79A
:101D5C00C9FF00F005F9FFF773FD0C4C0C4D00F0BA
:101D6C0019FB23680133B3422360F8D900232360A5
:101D7C002B6801332B60F2E7064800F0DDF90320F5
:101D8C00DFE700BF30320008473200087C0000203B
:101D9C00800000205B320008234B30B5DA6987B035
:101DAC0042F00102DA61DA69022402F001020092C7
:101DBC00009ADA69032542F00202DA61DB6902A9B2
:101DCC0003F002030193019B8E23CDE9023400231F
:101DDC001648CDE90435FEF795FB02A91448029587
:101DEC00FEF790FB4FF0804242F20F71114BD16223
:101DFC004FF4D040D96246F6680194629C629061BF
:101E0C00D1619861D96141F2101111621962516965
:101E1C0041F001015161596941F001015961812180
:101E2C001160196007B030BD00100240000801407D
:101E3C00000C0140000400400023C3800381704764
:101E4C00C28810B5531C84889BB29C4298BF002357
:101E5C0004899C4217BF04680020A154C38018BF9A
:101E6C00012010BD0389C2889A420DD00268D35C50
:101E7C000B700389828801339BB29A42038101D88B
:101E8C00002303810120704700207047014B187814
:101E9C00704700BF16310020014B1888704700BFF7
:101EAC001A310020044B18880523A0F2DC5090FB5B
:101EBC00F3F000B2704700BF1A310020234A1369B7
:101ECC00990725D5536B116A9BB211F0020F20496B
:101EDC0036D00A8840F276519A4284BF03F1FF3320
:101EEC009BB29B1A6FF448729BB29A1892B28A42B8
:101EFC0004D8184A13800022174B1A80134A136A0D
:101F0C0023F002031362114A136923F002031361D5
:101F1C000E4B1B69DB0712D50F4A138801339BB29A
:101F2C00042B88BF052113808ABF11800022012257
:101F3C000A4B1A70054A136923F0010313617047A9
:101F4C000B80136A43F00203DCE700BF000800407B
:101F5C00183100201A3100201431002016310020D5
:101F6C00194B2DE9F041DA6986B042F00402DA61CE
:101F7C00DB694FF0000803F004030193019B022777
:101F8C004023032602A91148CDE90238CDE9047695
:101F9C00FEF7B8FA47230E4C0125A3624FF6FF73E8
:101FAC00E36281234246A361394625621E202560E7
:101FBC00FEF722F91E20FEF753F9064BE6601D7062
:101FCC0006B0BDE8F08100BF0010024000080140DF
:101FDC000008004016310020144B30B51B78012B43
:101FEC0019D0134B1D884FF6FF739D4213D0114A25
:101FFC00108898420FD0104A104913880C7801337E
:10200C009BB2138044B99D4205D810200C4B5861EB
:10201C00012314800B7030BD9842FCD81020084B63
:10202C00186100230B701380F5E700BF24310020EA
:10203C001E31002022310020203100201C310020D4
:10204C0000080140114B1A7882421ED004281CD87B
:10205C00187000230E4A400013800E4A13700E4B6A
:10206C000E4A33F810100130118033F810200C4B4D
:10207C001A800C4B1B7843B903F1804303F584336E
:10208C00102209B11A6170475A617047253100203E
:10209C00203100201C3100206A3400081E31002041
:1020AC0022310020243100207FB51026012300248A
:1020BC00CDE9006303230B4D69462846CDE9024365
:1020CC00FEF720FA4FF6FF72074B1C70074B1C7083
:1020DC00074B1C70074B1A80074B1C806E6104B0B9
:1020EC0070BD00BF000801402431002025310020C4
:1020FC001C310020223100201E31002008B500F0D8
:10210C00B5F9BDE808400148FEF73ABE263100207B
:10211C0070B5084BC9B2FEF78FFE00240546054E7C
:10212C00A3B29D4200D870BD305D00F05FF9013460
:10213C00F6E700BF2B32002010B4037802466BB1D7
:10214C001346C830991A13F8014BC9B214B1834223
:10215C00F8D1C821002010BCFFF7DABF10BC7047C3
:10216C0070B5837886B0013B032B76D8DFE803F09B
:10217C00020F3F38BFF34F8F3A493B4BCA6802F40A
:10218C00E0621343CB60BFF34F8F00BFFDE7012329
:10219C0006AC04F8143D3549354B03F1604213F895
:1021AC00010B02F619028B42A054F6D1314B1B687D
:1021BC001A0E8DF811201A0C8DF812201A0A8DF8AF
:1021CC0013208DF81430FEF773FF8DF815000120E5
:1021DC0022461421ADF81600FFF79AFF06B070BD29
:1021EC000323012106AA02F8143D0120F4E7FFF7AE
:1021FC0059FE0646FFF750FE1F4B05461C880A2366
:10220C00B4FBF3F402238DF80430FFF73FFE3312D6
:10221C008DF806302B0A8DF80830184BE4B21B7879
:10222C008DF805008DF80B30154B8DF807601B7879
:10223C008DF809508DF80C30124B8DF80A401B7834
:10224C0001AA8DF80D30104B0C211B788DF80E3037
:10225C000E4B1B788DF80F30C7E70D48FFF76CFF5E
:10226C00BCE700BF00ED00E00400FA05F4F7FF1F27
:10227C00E8F7FF1FAC010020D4300020D70100206C
:10228C00F0300020D601002010310020C430002096
:10229C007E34000810B58378C0B0013B082B63D89E
:1022AC00DFE803F005191223284C54475D00012385
:1022BC008DF800302E4B1B881A0A8DF801208DF8F2
:1022CC0002306A46032129E0FEF756FE294B1B8893
:1022DC00ADF8003006E0FEF733FE03238DF8010065
:1022EC008DF800306A46022118E0011DC078FEF717
:1022FC004FFEF2E7C4782046FEF780FE18B90323A0
:10230C00ADF80030EEE702238DF8003000238DF895
:10231C000140DAB2944206D86A46A11C0220FFF7AB
:10232C00F7FE40B010BDC15C0DEB030291700133A0
:10233C00EFE7FEF77DFEFFF783FAC7E70E4BC27897
:10234C001A7002795A70FEF7C7FDBFE704238DF8A7
:10235C000030094B1A785B788DF80120AFE7FEF757
:10236C00EFFDFEF7E5FDE6E70448FFF7E5FED8E7ED
:10237C00802E00085C260008B00100209034000874
:10238C008378013B072B02D90148FFF7D5BE704774
:10239C00B834000837B5134C134D0DF1070000F09D
:1023AC0037F808B903B030BD9DF807102046FEF78A
:1023BC00EAFC0028F1D06378022B07D0032B09D05C
:1023CC00012B0BD12046FFF7CBFEE6E72046FFF7AB
:1023DC0061FFE2E72046FFF7D3FFDEE72846FFF771
:1023EC00ABFEDAE726310020A934000808B5014617
:1023FC000548FFF725FD054AD36843F0805343F0A9
:10240C008003D36008BD00BF4C00002000380140A1
:10241C0001460148FFF726BD4000002013B5104CC3
:10242C0023689A0604D561680E48C9B2FFF708FD07
:10243C0023681B060AD5002302A901F8013D0A48AE
:10244C00FFF710FD20B19DF80730636002B010BD9E
:10245C00E36823F0805323F08003E360F6E700BFCA
:10246C0000380140400000204C0000202DE9F043D2
:10247C003F4887B0FFF7E0FC3E48FFF7DDFC012743
:10248C004FF40072122303263B4C02A92046CDE9DF
:10249C0002230025CDE90476FEF734F84FF480636F
:1024AC0002A92046CDE90476CDE90235FEF72AF8DB
:1024BC00324B04F540549A6942F480429A619B690C
:1024CC0003F480430193019B0C23E3602561656158
:1024DC00FEF76CFB0746FEF769FB0646FEF766FB4C
:1024EC008046FEF763FB8146FEF760FB19234FF431
:1024FC00E12C03FB00F25E4303FB09F95F4303FB92
:10250C0008F31F486421B9FBFCF9B2FBF0F2B6FBEF
:10251C00FCFCB3FBF0F301FB129201FB13C31201A1
:10252C001B0132323233B2FBF1F2B3FBF1F3B7FBE6
:10253C00F0F702F00F025B0002EB071203F4F073EA
:10254C001344A360E3682A4643F40053E360062176
:10255C002520FDF751FE2520FDF782FEE36843F0B0
:10256C00805343F02003E36007B0BDE8F08300BF65
:10257C004C000020400000200008014000100240E8
:10258C000020BF0270B500250C4E0D4CA41BA410EE
:10259C00A54209D100F048F800250A4E0A4CA41BAC
:1025AC00A410A54205D170BD56F8253098470135C9
:1025BC00EEE756F8253098470135F2E7E834000885
:1025CC00E8340008E8340008EC3400080346024400
:1025DC00934200D1704703F8011BF9E70C480D49F1
:1025EC000D4A002302E0D458C4500433C4188C4262
:1025FC00F9D30A4A0A4C002301E013600432A242C8
:10260C00FBD300F010F8FFF7BDFFFFF781FB70471D
:10261C00000000205C000020F03400086000002066
:10262C0030370020FEE77047F8B500BFF8BC08BC97
:10263C009E467047F8B500BFF8BC08BC9E46704774
:10264C0002030405060708090A0B0C0D0E0F1010E7
:10265C00030120080000040000020000000000003C
:10266C000000000000000000000028000000D40062
:10267C00000080010000EC01000046414900000010
:10268C0000000000000006FF000000000100000038
:10269C0000000000000098020000B0020000D4020C
:1026AC000000F8020000340300007C03000000006E
:1026BC00200000012100000222000003230000047E
:1026CC002400000525004231204C454420310000F7
:1026DC0000004231204C45442032000000004231C1
:1026EC00204C45442033000000004231204C45442E
:1026FC002034000000004231204C454420350000BD
:10270C0000004231204C45442036000000000000FF
:10271C0005320000053200000532000005320000D1
:10272C000532000005324B6E696768745269646546
:10273C00720006FF00000000010000000000000015
:10274C00000094030000DC0300003C040000B4040F
:10275C0000002C050000980500000000200000017E
:10276C0021000002220000032300000424000005C5
:10277C0025004231204C45442031000000004231FC
:10278C00204C45442032000000004231204C45448E
:10279C002033000000004231204C4544203400001E
:1027AC0000004231204C45442035000000004231ED
:1027BC00204C45442036000000000000053200008B
:1027CC000532000005320000053200000532000021
:1027DC00053252474200000000000000000006FFD6
:1027EC000000000001000000000000000000E005F7
:1027FC0000002806000070060000B8060000000764
:10280C00000048070000000020000001400000020A
:10281C0080000003210000044100000581004231CA
:10282C002052474220312D33000042312052474282
:10283C0020342D36000000000532000005324469BA
:10284C006D6D657200000000000006FF00000000C6
:10285C000100000000000000000090070000A80725
:10286C000000C0070000D8070000F00700000808AF
:10287C0000000000200000012100000222000003E3
:10288C00230000042400000525004231204C45445F
:10289C002031000000004231204C45442032000021
:1028AC0000004231204C45442033000000004231EE
:1028BC00204C45442034000000004231204C45445B
:1028CC002035000000004231204C454420360000E9
:1028DC000000000005320000053200000532000047
:1028EC000532000005320000053202FFFF00D00760
:1028FC000000FFFF0001F0010000000000000000DC
:10290C00000503FF00322C019600FFFF00020100BE
:10291C00B0040000000000000000F0010000000006
:10292C0000000000000503FF0032F4019600FFFFD9
:10293C000002010084030000000000000000F00110
:10294C00000000000000000000050200FF00C800AD
:10295C000000FFFF000102FFFF002C010000FFFF41
:10296C00000102FF0000C8000000FFFF0001010091
:10297C004C040000000000000000F001000000000A
:10298C0000000000000501008403000000000000AE
:10299C0000000200FF00C8000000FFFF000102FF62
:1029AC00FF002C010000FFFF000102FF0000C80027
:1029BC000000FFFF00010100C80000000000000043
:1029CC000000F00100000000000000000005040001
:1029DC00FF00D0070000FFFF0003F0010000000023
:1029EC0000000000000502FFFF0064000000FFFF74
:1029FC00000102FF000090010000FFFF0001010038
:102A0C00200300000000000000000200F70064003A
:102A1C000000FFFF000102FFFF0090010000FFFF1C
:102A2C000001F001000000000000000000050200A1
:102A3C00F70064000000FFFF000102FFFF006400CC
:102A4C000000FFFF000102FF000090010000FFFFEB
:102A5C00000101005802000000000000000002000C
:102A6C00F70064000000FFFF000102FFFF0064009C
:102A7C000000FFFF000102FF000090010000FFFFBB
:102A8C000001F00100000000000000000005010042
:102A9C00640000000000000000000200F700640069
:102AAC000000FFFF000102FFFF0064000000FFFFB9
:102ABC00000102FF000090010000FFFF0001010077
:102ACC00900100000000000000000200F70064000C
:102ADC000000FFFF000102FFFF0064000000FFFF89
:102AEC00000102FF000090010000FFFF0001010047
:102AFC0064000000000000000000F0010000000075
:102B0C000000000000050100C800000000000000EB
:102B1C0000000200F70064000000FFFF000102FF4C
:102B2C00FF0064000000FFFF000102FF00009001A5
:102B3C000000FFFF00010100C800000000000000C1
:102B4C0000000200F70064000000FFFF000102FF1C
:102B5C00FF0064000000FFFF000102FF0000900175
:102B6C000000FFFF00010100C80000000000000091
:102B7C000000F00100000000000000000005010052
:102B8C002C0100000000000000000200F7006400AF
:102B9C000000FFFF000102FFFF0064000000FFFFC8
:102BAC00000102FF000090010000FFFF0001020085
:102BBC00F70064000000FFFF000102FFFF0064004B
:102BCC000000FFFF000102FF000090010000FFFF6A
:102BDC00000101002C010000000000000000F001C9
:102BEC000000000000000000000501009001000042
:102BFC000000000000000200F70064000000FFFF6E
:102C0C00000102FFFF00F4010000FFFF000102FFC2
:102C1C00000090010000FFFF000101009001000086
:102C2C00000000000000F0010000000000000000A7
:102C3C0000050200FF00E803000000FF000102FF96
:102C4C00FF00E8030000FFFF000102FF0000E803A3
:102C5C000000FF0000010200FF00E803000000FF7D
:102C6C00000102FF0000E8030000FF000001F0017A
:102C7C000000000000000000000502000000E80356
:102C8C000000000000010200FF00E803000000FF4C
:102C9C00000102FFFF00E8030000FFFF000102FF3C
:102CAC00FF00E8030000FFFF000102FF0000E80343
:102CBC000000FF000001F001000000000000000017
:102CCC00000502FF0000E8030000FF000001020005
:102CDC000000E80300000000000102000000E8030F
:102CEC000000000000010200FF00E803000000FFEC
:102CFC00000102FFFF00E8030000FFFF0001F001EC
:102D0C00000000000000000000050300FF32E80393
:102D1C002C0100FF00020300FF32E803DE00FFFF7E
:102D2C000002037F0032E803B400FF00000203003E
:102D3C00FF32E803DE00FFFF000203FF0032E8036E
:102D4C002C01FF000002F001000000000000000058
:102D5C00000503000032E8032C0100000002030010
:102D6C00FF32E803DE0000FF0002037FFF32E803BE
:102D7C00B400FFFF00020300FF32E803DE00FFFF98
:102D8C00000203FF0032E8032C01FF000002F001F7
:102D9C000000000000000000000503FF0032E80303
:102DAC002C01FF00000203000032E803DE000000EB
:102DBC00000203000032E803B4000000000203002C
:102DCC00FF32E803DE00FFFF000203FFFF32E803DF
:102DDC002C01FFFF0002F0010000000000000000C9
:102DEC0000050400FF00E8030000FFFF0003F001F2
:102DFC000000000000000000000504FF0000E803D4
:102E0C000000FFFF0003F0010000000000000000C4
:102E1C0000050400FF00E8030000FFFF0003F001C1
:102E2C000000000000000000000504FF0000E803A3
:102E3C000000FFFF0003F001000000000000000094
:102E4C0000050400FF00E8030000FFFF0003F00191
:102E5C000000000000000000000504FF0000E80373
:102E6C000000FFFF0003F001000000000000000064
:102E7C00000570FF8000000005800F800A001B8099
:102E8C001E0014001180338036003C00398028006D
:102E9C002D8027802200638066006C00698078009A
:102EAC007D8077807200500055805F805A004B8087
:102EBC004E0044004180C380C600CC00C980D800BD
:102ECC00DD80D780D200F000F580FF80FA00EB8027
:102EDC00EE00E400E180A000A580AF80AA00BB80DA
:102EEC00BE00B400B180938096009C00998088004D
:102EFC008D8087808200838186018C018981980175
:102F0C009D8197819201B001B581BF81BA01AB81DE
:102F1C00AE01A401A181E001E581EF81EA01FB8111
:102F2C00FE01F401F181D381D601DC01D981C80104
:102F3C00CD81C781C201400145814F814A015B812E
:102F4C005E0154015181738176017C0179816801A4
:102F5C006D8167816201238126012C012981380151
:102F6C003D8137813201100115811F811A010B81BE
:102F7C000E0104010181038306030C03098318036A
:102F8C001D8317831203300335833F833A032B834E
:102F9C002E0324032183600365836F836A037B8381
:102FAC007E0374037183538356035C035983480374
:102FBC004D8347834203C003C583CF83CA03DB839E
:102FCC00DE03D403D183F383F603FC03F983E80314
:102FDC00ED83E783E203A383A603AC03A983B803C1
:102FEC00BD83B783B203900395839F839A038B832E
:102FFC008E0384038183800285828F828A029B8266
:10300C009E0294029182B382B602BC02B982A802DB
:10301C00AD82A782A202E382E602EC02E982F80208
:10302C00FD82F782F202D002D582DF82DA02CB82F5
:10303C00CE02C402C182438246024C02498258022B
:10304C005D8257825202700275827F827A026B8295
:10305C006E0264026182200225822F822A023B8248
:10306C003E0234023182138216021C0219820802BB
:10307C000D82078202024445425547204F424A4581
:10308C004354204558454355544544200000000006
:10309C009A190000CE1A0000121C0000651D0000D9
:1030AC00C71E00003A200000BF210000562300007C
:1030BC0001250000BF260000932800007C2A000098
:1030CC007D2C0000962E0000C83000001433000048
:1030DC007C35000002380000A53A0000693D000074
:1030EC004E4000005643000082460000D5490000C7
:1030FC00504D0000F4500000C5540000C4580000AE
:10310C00F35C000054610000EA650000B86A00003E
:10311C00C06F000004750000887A00004E8000002B
:10312C005A860000AF8C000050930000419A0000BA
:10313C0086A1000023A900001CB1000075B9000095
:10314C0032C2000059CB0000EED40000F7DE0000C4
:10315C007AE900007AF4000000000100110C010073
:10316C00B3180100ED250100C833010049420100EC
:10317C00795101006161010008720100798301003D
:10318C00BC950100DBA80100E1BC0100D8D1010015
:10319C00CCE70100CAFE0100DC160200113002006F
:1031AC00764A02001A6602000B83020059A1020043
:1031BC0015C1020050E202001C0503008B2903001C
:1031CC00B24F0300A57703007BA1030049CD030098
:1031DC0028FB0300302B04007B5D040025920400C7
:1031EC004BC904000A030500823F0500D37E05008D
:1031FC0020C105008D060600404F0600609B0600AE
:10320C0016EB06008E3E0700F59507007BF10700D4
:10321C0051510800ABB50800BF1E0900C88C09004D
:10322C0000000A0078774C6564436F6E74726F6CA3
:10323C002072657374617274656400426F617264AC
:10324C00636F6E666967204572726F72212100424E
:10325C006F617264636F6E666967204F4B0000008C
:10326C0002000400070009000B000E001000130000
:10327C00150018001A001D0020002200250028004F
:10328C002B002E003100340037003A003D00410085
:10329C00440047004B004E005200550059005D00A1
:1032AC006100640068006C007000750079007D009E
:1032BC00810086008A008F00940098009D00A20077
:1032CC00A700AC00B100B700BC00C200C700CD0025
:1032DC00D300D800DE00E400EB00F100F700FE00A4
:1032EC0004010B0112011901200127012E013601E5
:1032FC003D0145014D0155015D0165016D017601F1
:10330C007F01870190019A01A301AC01B601C001B4
:10331C00CA01D401DE01E901F301FE010902140224
:10332C0020022B02370243024F025C026902750233
:10333C00830290029D02AB02B902C802D602E502DA
:10334C00F4020303130323033303430354036503FE
:10335C00760387039903AC03BE03D103E403F7039D
:10336C000B041F04340449045E0473048904A00490
:10337C00B604CD04E504FD0415052E0547056105CD
:10338C007B059505B005CC05E805040621063E062F
:10339C005C067B069A06B906D906FA061B073D079A
:1033AC005F078207A507C907EE0713083A086008EC
:1033BC008808B008D80802092C0957098209AF09F6
:1033CC00DC090A0A390A680A990ACA0AFC0A2F0B8C
:1033DC00630B970BCD0B040C3B0C730CAD0CE70C77
:1033EC00230D5F0D9D0DDB0D1B0E5C0E9E0EE10E75
:1033FC00250F6A0FB10FF90F42108C10D810251140
:10340C007311C31114126612BA120F136613BE1382
:10341C0018147314D0142F158F15F1155516BA16E0
:10342C0021178A17F4176118CF183F19B219261AE9
:10343C009C1A141B8F1B0B1C8A1C0B1D8E1D131E20
:10344C009B1E251FB11F4020D1206521FB219422FA
:10345C003023CE236F241325BA25632610270000B2
:10346C00FFFFFFFF00000807C800F401F401C800CB
:10347C000807556E6B6E6F776E20636F6D6D616EA6
:10348C00640D0A00556E6B6E6F776E20636F6E66FF
:10349C00696720636F6D6D616E640D0A00496E760D
:1034AC00616C696420444C43490D0A00556E6B6E87
:1034BC006F776E204C454420636F6D6D616E640DAB
:1034CC000A000000000000000000010203040607CF
:0C34DC00080900000000010203040000C9
:0434E80031010008A6
:0434EC000D010008C6
:1034F0000100000010000000AA000020800007006A
:10350000000000000000000000500008005000080B
:103510005E26000800500008400400403C040040C3
:1035200038040040400000403C00004038000040AB
:10353000303400200002000000000000303600207F
:0C35400000010000000000000024F40066
:04000005080025E9E1
:00000001FF
