:020000040800F2
:1000000000500020C9210008711100087311000878
:100010007511000877110008791100080000000030
:100020000000000000000000000000007D1100083A
:100030007B110008000000007F1100084511000836
:10004000811100088311000885110008871100083C
:10005000891100088B1100088D1100088F1100080C
:1000600091110008931100089511000897110008DC
:10007000991100089B1100089D1100089F110008AC
:10008000A1110008A3110008112200081122000884
:10009000112200081122000811220008A5110008F1
:1000A000A7110008A9110008AB110008AD11000844
:1000B000AF110008B1110008B3110008B511000814
:1000C000B7110008B9110008BB110008BD110008E4
:1000D000BF110008C1110008C5110008C7110008B0
:1000E000C911000811220008CB110008000000000F
:1000F0000000000000000000000000000000000000
:0C01000000000000000000005FF808F1A3
:10010C0010B5054C237833B9044B13B10448AFF345
:10011C0000800123237010BDA0000020000000000F
:10012C001422000808B5034B1BB103490348AFF375
:10013C00008008BD00000000A4000020142200086C
:10014C007047000038B50E4B054618784FF47A739B
:10015C00B3FBF0F30B4A1068B0FBF3F000F08EF831
:10016C00044658B90F2D09D8024629464FF0FF30E6
:10017C0000F042F82046044B1D6038BD0120FCE71E
:10018C00000000209C00002004000020074A08B555
:10019C001368032043F01003136000F01BF80F20CA
:1001AC00FFF7D0FFFFF7CCFF002008BD0020024076
:1001BC00034A044B11681B780B441360704700BF53
:1001CC00D000002000000020014B1868704700BFD1
:1001DC00D0000020074A0002D36800F4E06023F44A
:1001EC00E0631B041B0C43F0BF6343F40033034375
:1001FC00D360704700ED00E0174B70B5DC684FF032
:10020C00FF36C4F30224C4F10705042D04F10403E2
:10021C0028BF0425062B98BF002406FA05F388BFD7
:10022C00033C21EA0303A34006FA04F422EA040483
:10023C00002843EA0403A8BF00F160404FEA03130F
:10024C00B8BF064ADBB2ABBF00F5614000F00F004F
:10025C0080F80033135470BD00ED00E014ED00E0A5
:10026C00002808DB0123420900F01F0003FA00F00C
:10027C00014B43F82200704700E100E00138B0F177
:10028C00807F0AD2F021064B064A586082F8231070
:10029C000020072298601A6070470120704700BF49
:1002AC0010E000E000ED00E0114AD36813F01003F9
:1002BC0005D01049CB6943F00203CB611023D268FF
:1002CC00500706D50B4943F00403CA6942F00102FA
:1002DC00CA61074AD169C90708D50648C16941F006
:1002EC000401C161D16921F00101D161D360704772
:1002FC0000200240D8000020064B186910F0800046
:10030C0007D0054A5A6002F188325A601869C0F366
:10031C00C01070470020024023016745034A0020AB
:10032C00136943F080031361704700BF0020024043
:10033C00F8B50646FFF748FF114C07462546E3681B
:10034C00D80712D4E368990644BF2023E360EB6816
:10035C00DA0606D4EB69DB0703D4E86810F0040076
:10036C0007D0FFF7A1FF012003E0731CE7D00EB903
:10037C000320F8BDFFF728FFC01BB042DFD9F7E719
:10038C00002002402DE9F84F244C1E46237E0546E2
:10039C00012B0F4690463FD001234CF25030237670
:1003AC00FFF7C6FFA0BB012D03D0022D0CBF022509
:1003BC0004254FF00009CB46DFF864A04FEA09137F
:1003CC00C3F12001A3F1200206FA01F128FA03F38C
:1003DC00C4F81CB00B4326FA02F21343DAF81020CF
:1003EC009BB242F00102CAF810204CF2503027F8B0
:1003FC001930FFF79DFFDAF8103023F00103CAF82B
:10040C00103028B909F101095FFA89F39D42D5D85A
:10041C0000232376BDE8F88F0220FBE7D8000020EC
:10042C00002002400022064BDA61064B1A6942F0AA
:10043C0004021A611A6942F040021A61704700BF47
:10044C00D8000020002002400022064BDA61064B47
:10045C001A6942F002021A6158611A6942F04002AC
:10046C001A617047D8000020002002402DE9F041AD
:10047C00224D07462B7E8846012B3DD00124036874
:10048C002C76022B4CF2503013D1FFF751FF20B1D8
:10049C00012000232B76BDE8F081FFF7C3FF4CF25F
:1004AC005030FFF745FF164A136923F0040313611C
:1004BC00EFE7FFF73DFF0028EAD14FF0FF33C8F814
:1004CC0000302046BE680E4CD7E9023203EB822383
:1004DC00B342DED93046FFF7B7FF4CF25030FFF78E
:1004EC0027FF236923F00203236110B1C8F80060D1
:1004FC00CFE706F58066E7E70220CCE7D8000020BE
:10050C00002002402DE9F74F00242646654BDFF80A
:10051C00A4C1DFF8A4E10A6832FA06F502D103B0EF
:10052C00BDE8F08F4FF0010808FA06F802EA08025D
:10053C0090457ED14D68122D00F0A98000F282808A
:10054C00022D00F0A18076D8002D00F08880012DBE
:10055C0000F098804FF00F09FF2A93BF824606F1F6
:10056C008045083DD0F800B092BFB500D0F804B07B
:10057C00AD0009FA05F82BEA080804FA05F588BF5E
:10058C0000F1040A48EA0505CAF80050D1F804A0A5
:10059C001AF0805F4DD0444F26F00308BD6908F176
:1005AC00804845F00105BD61BD6908F5803805F04E
:1005BC000105019506F0030B019D4FEA8B0BD8F852
:1005CC00085009FA0BF925EA0909384DA84263D0FD
:1005DC0005F58065A84261D005F58065A8425FD01D
:1005EC0005F58065A8420CBF0325042505FA0BF51B
:1005FC0045EA0905C8F808501D681AF4803F14BF75
:10060C00154395431D605D681AF4003F14BF1543F4
:10061C0095435D609D681AF4801F14BF1543954384
:10062C009D60DD681AF4001F14BF2A4325EA0202FC
:10063C00DA6001366FE7032D22D0112D8AD1CC68F8
:10064C00043487E71A4FBD4209D012D8DFF86C90FA
:10065C004D4504D009F580394D457FF47BAF8C684E
:10066C00C4B1012C0CBFC0F81080C0F81480082451
:10067C0070E76545F3D07545F1D0DFF84490EBE7B2
:10068C00002467E7CC6865E7CC68083462E7CC687F
:10069C000C345FE704245DE70025A7E70125A5E7F7
:1006AC000225A3E7000401400010024000080140AD
:1006BC000000211000003110000032100000111059
:1006CC00000022102DE9F341054608B901203CE059
:1006DC000368DB0710D42B689F075DD42B681907C0
:1006EC0000F194802B685A0700F1BE80E86900285D
:1006FC0040F02C81002028E08F4C636803F00C0341
:10070C00042B07D0636803F00C03082B09D1636832
:10071C00DE0306D523689C03DDD56B68002BDAD18C
:10072C00D4E76B68B3F5803F12D1236843F4803370
:10073C002360FFF749FD064623689803CBD4FFF7E7
:10074C0043FD801B6428F7D9032002B0BDE8F0817B
:10075C009BB9236823F480332360236823F480231C
:10076C002360FFF731FD064623689903B3D5FFF7E5
:10077C002BFD801B6428F7D9E6E7B3F5A02F23687F
:10078C0003D143F480232360CFE723F48033236029
:10079C00236823F48023CBE7674C636813F00C0FBA
:1007AC0007D0636803F00C03082B10D16368DA03DD
:1007BC000DD423689B0702D52B69012B86D12368A6
:1007CC006A6923F0F80343EAC203236086E72A69C7
:1007DC005A4B6AB101221A60FFF7F6FC06462368F1
:1007EC009F07ECD4FFF7F0FC801B0228F7D9ABE78E
:1007FC001A60FFF7E9FC0646236898077FF56EAF91
:10080C00FFF7E2FC801B0228F6D99DE7AA694A4C47
:10081C004B4BDAB101221A60FFF7D6FC0646636A2D
:10082C009B070DD54FF4FA52464B1B68B3FBF2F302
:10083C00019300BF019B5A1E0192002BF9D151E785
:10084C00FFF7C2FC801B0228E9D97DE71A60FFF78D
:10085C00BBFC0646636A9F077FF544AFFFF7B4FC09
:10086C00801B0228F6D96FE7334CE369D80024D4F7
:10087C000127E36943F08053E361E36903F080539C
:10088C000093009B304E3368D90518D5EB68012BCB
:10089C0026D1236A43F001032362FFF795FC41F252
:1008AC0088368046236A9B073FD5002F3FF41EAF46
:1008BC00E36923F08053E36118E70027E2E733682C
:1008CC0043F480733360FFF77FFC80463368DA05AE
:1008DC00DCD4FFF779FCA0EB08006428F6D933E7E9
:1008EC00ABB9236A41F2883823F001032362236AEF
:1008FC0023F004032362FFF767FC0646236A98077C
:10090C00D3D5FFF761FC801B4045F7D91CE7052BBD
:10091C00236A03D143F004032362BAE723F00103F3
:10092C002362236A23F00403B6E7FFF74DFCA0EB28
:10093C000800B042B6D907E700100240000042425E
:10094C00800442429C000020007000402A4B5A68F0
:10095C001C4602F00C02082A3DD00023274E022828
:10096C0033602BD1FFF730FC0746236899011FD465
:10097C002B6AB3F5803F05D16268A96822F4003276
:10098C000A436260696A62680B4322F4741213436F
:10099C00636001233360FFF717FC054623689A0157
:1009AC003FF5A8AEFFF710FC401B0228F6D9CBE6AA
:1009BC00FFF70AFCC01B0228D7D9C5E6FFF704FCD9
:1009CC00054623689B017FF595AEFFF7FDFB401BA9
:1009DC000228F6D9B8E601283FF4B7AE58682B6A5E
:1009EC0000F480329A427FF471AE6B6A00F470109E
:1009FC00C01A18BF0120A8E6001002406000424255
:100A0C0030B5184B87B002AC03F1100522461868BC
:100A1C005968083303C2AB421446F7D140F20123A4
:100A2C001149ADF804304B6803F00C02082A17D1B9
:100A3C00C3F3834206A80244DB0312F8102C0CD536
:100A4C004B680A48C3F34043504306AA134413F8B7
:100A5C00143CB0FBF3F007B030BD05485043FAE747
:100A6C000248F8E72C2200080010024000127A001D
:100A7C0000093D002DE9F0410D46044610B9012056
:100A8C00BDE8F081444A136803F007038B4228D376
:100A9C0021688E0730D4CA0743D43F4A136803F049
:100AAC000703AB4265D822683C4D12F0040F6CD1A1
:100ABC00130706D56B68226923F4605343EAC2031B
:100ACC006B60FFF79DFF6B68354AC3F30313D35C70
:100ADC00D840344B1860344B1868FFF733FB0020B8
:100AEC00CEE7136823F007030B431360136803F07E
:100AFC0007038B42C3D1CBE7284B11F0040F1EBF69
:100B0C005A6842F4E0625A60080742BF5A6842F4DD
:100B1C0060525A605A68A06822F0F00202435A6090
:100B2C00B9E762681D4E012A33681AD113F4003FED
:100B3C00A5D0736841F2883823F003031343736024
:100B4C00FFF742FB07467368626803F00C03B3EBD4
:100B5C00820FA2D0FFF738FBC01B4045F3D903200E
:100B6C008EE7022A02D113F0007FE1E713F0020FA7
:100B7C00DEE7136823F007032B431360136803F0BD
:100B8C000703AB427FF47BAF8DE76B68E16823F41E
:100B9C00E0630B436B608BE70020024000100240C7
:100BAC001B2500089C00002004000020044B054A73
:100BBC005B68C3F3C223D35C034A1068D840704708
:100BCC00001002402B2500089C00002003682DE932
:100BDC00F341D907054620D5354CE369DA0032D408
:100BEC000127E36943F08053E361E36903F0805329
:100BFC000193019B2F4E3368DB0526D5236A13F432
:100C0C00407336D1236A6A6823F44073134323621A
:100C1C001FB1E36923F08053E3612868830706D58D
:100C2C00234AA968536823F440430B43536010F0E4
:100C3C0010001BD01E4AE9685368002023F480037F
:100C4C000B43536012E00027D4E7336843F48073FE
:100C5C003360FFF7B9FA80463368D805CED4FFF776
:100C6C00B3FAA0EB08006428F6D9032002B0BDE863
:100C7C00F0816A6802F440729A42C3D001200E4A95
:100C8C00236A1060002023F4407110602162D907A0
:100C9C00B8D5FFF799FA41F288380646236A9A07C5
:100CAC00B0D4FFF791FA801B4045F7D9DDE700BFC0
:100CBC0000100240007000404004424210B5064C47
:100CCC000648E16C89B200F07BFA054B1880A368EA
:100CDC0043F00103A36010BD002401400800002074
:100CEC00F800002010B500241F4B8AB01F481C8050
:100CFC0000F081FA032340211D48CDE9021302A91B
:100D0C000494FFF7FFFB022306934FF4004306A85D
:100D1C000893FFF75BFF174B9A6942F400729A61D4
:100D2C009B69154A03F400730193019B134B5C60A0
:100D3C009A609A6842F008029A609A681207FCD48A
:100D4C009A6842F004029A600C4B9A6812F0040202
:100D5C00FBD10421DA6019614FF48011D9621A6356
:100D6C0011225A630AB010BDF800002008000020C0
:100D7C0000080140001002400100800000240140E6
:100D8C00002303707047027810B503462AB3022A79
:100D9C0050D87B2903D07D2901D02F2902D193F87B
:100DAC00040138B3012A4FF0000008BF022293F867
:100DBC00024118BF93F8032184EA010483F802412D
:100DCC0018BF541C83F8040119BF83F803419B1806
:100DDC0059701A7018BF997010BD7B2908D1122157
:100DEC0080F80211012180F8042180F803210170A0
:100DFC001046F1E77B2907D07D290FD02F29EBD1A5
:100E0C00012283F80421E7E701221A70122283F8E9
:100E1C00040183F8022183F80301DDE7187093F8CD
:100E2C00020193F80321B0FA80F0013A83F8032110
:100E3C004009D1E70020CFE7F0B57B24A0421C701D
:100E4C0003D02F2801D07D2817D12F2402255C70C8
:100E5C0058556C1C4FF02F0C154680F0120089B2BF
:100E6C00AE1AB6B2B14204F1010608D87D2218556B
:100E7C00B6B2A01C9A5580B2F0BD0125E8E72F78D8
:100E8C00AE467B2F03D02F2F01D07D2F02D103F83C
:100E9C0004C0B4B215F8017B661C1F559EF80040C7
:100EAC006040B4B2DCE7000038B50C4C0C4B0821A8
:100EBC0020461D8800F00EF985420DD101202288B4
:100ECC00084B1A80084A12885A80084A12889A805D
:100EDC00074A1288DA8038BD0020FCE7028000083F
:100EEC0000800008800100200480000806800008B3
:100EFC000880000870B5082186B0134800F0EAF8A5
:100F0C0001250646FFF7F8F90023104C01A902A8A9
:100F1C000293CDE90445FFF7A9FA90B9B2B228467D
:100F2C0000232146FFF72EFA094E0A4D0234325B9C
:100F3C00002321460120FFF725FAAC42F6D1FFF73A
:100F4C00EDF906B070BD00BF8001002000800008E4
:100F5C007E81FF170880000800220A4B1A705A7015
:100F6C006FF017029A710322DA716FF023029A70F4
:100F7C000522DA706FF02F021A7107225A71FFF7EF
:100F8C00B9BF00BF8001002010B5002486B0FFF768
:100F9C00B3F9094B01A90493084B02A81B880294CE
:100FAC000593FFF763FA20B9FFF7B8F9012006B0F3
:100FBC0010BD2046FBE700BF008400089001002014
:100FCC00024B034A1360034A136070470084000805
:100FDC001C000020180000208028F8B504460D469F
:100FEC0020D810F001001DD1144E154A3368126838
:100FFC00013B23449A4209D3FFF77EF904F0FE0427
:10100C002C44A54203D1FFF789F90120F8BD2A88A9
:10101C00002331680120FFF7B5F901282F4603D1D1
:10102C00FFF77CF90020F1E733683A88198802351C
:10103C009142F5D102333360E3E700BF1C0000207E
:10104C008C010020802810B503460ED810F001004A
:10105C000BD10749074C0A682468A24204D81344F0
:10106C009C4201D310460B6010BD0020FCE700BF72
:10107C00180000208C0100200A4B0B4A1B880B49DE
:10108C009B021360A3F504420A600949C2F38F2244
:10109C000A80084903F100630A80074A013B136088
:1010AC00704700BFE0F7FF1F940100207C01002077
:1010BC0088010020900100208C010020044B81EA63
:1010CC00102133F8113083EA002080B2704700BF42
:1010DC004022000810B5024644180120A24205D156
:1010EC00C0B280F47F4080F0FF0010BD12F8011BED
:1010FC00FFF7E4FFF2E70000044B986810F400607F
:10110C001CBF9868C0F30030704700BF0008014056
:10111C001FB54FF4C05200230121CDE90023032356
:10112C000448CDE902136946FFF7ECF905B05DF808
:10113C0004FB00BF0008014008B5FFF739F800F0C8
:10114C0073F9074A13780133DBB2132B01D81370F0
:10115C0008BD00231370BDE80840FFF7AFBD00BF0A
:10116C00990100207047FEE7FEE7FEE7FEE77047B7
:10117C0070477047704770477047704770477047AB
:10118C00704770477047704770477047704770479B
:10119C00704770477047704770477047704770478B
:1011AC00704770477047704770477047704770477B
:1011BC007047704700F004BB70477047704770472A
:1011CC000289036830B533F81240C56823F8121051
:1011DC000389828801339BB29A42038198BF002312
:1011EC002944A1EB0401C16098BF0381C08821FA96
:1011FC0000F080B230BD002330B51D4681889AB214
:10120C00914203F1010400D830BD02689BB222F870
:10121C0013502346F2E700002B4B00B59A698BB0B4
:10122C0042F001029A619A6906A902F00102009249
:10123C00009A9A69254842F004029A619A6902F070
:10124C0004020192019A9A6942F008029A619A6921
:10125C0002F008020292029A9A6942F010029A6114
:10126C009A6902F010020392039A9A6942F02002E2
:10127C009A619A6902F020020492049A9A6942F0E7
:10128C0040029A619B6903F040030593059B4FF65E
:10129C00FF730693032309930023CDE90733FFF76C
:1012AC0031F906A90A48FFF72DF906A90948FFF7F5
:1012BC0029F906A90848FFF725F906A90748FFF7F9
:1012CC0021F90BB05DF804FB00100240000801404E
:1012DC00000C0140001001400014014000180140B6
:1012EC0010B590B01422002101A800F041FB14228B
:1012FC00002108A800F03CFB02244FF480330122AB
:10130C00CDE90D43CDE906234FF4E01306A80F9366
:10131C00FFF7D8F900B1FEE70F23CDE901344FF404
:10132C00806303900590214601A80493FFF7A2FB6C
:10133C0000B1FEE710B010BD80B5A0B0FEF726FFDF
:10134C00FFF7CEFFFFF768FF00F000F9FFF794FE00
:10135C0000F0D2F8184800F017F9FFF7A5FD28BBEC
:10136C00164800F011F9FFF7F7FD042000F092F891
:10137C00FFF7B8FCFFF7CCFE114C124D124E44F6A1
:10138C00206700F0D9F923680133BB422360F8D9F8
:10139C00002323602B68328801330C4968462B608C
:1013AC0000F0EEFA684600F0EFF8E8E7084800F0C5
:1013BC00EBF80120DAE700BF4024000857240008AE
:1013CC00BC000020C0000020F80000207A24000897
:1013DC006B2400080023C38003817047C28810B5BA
:1013EC00531C84889BB29C4298BF002304899C4266
:1013FC0017BF04680020A154C38018BF012010BD82
:10140C000389C2889A420DD00268D35C0B700389A1
:10141C00828801339BB29A42038101D80023038155
:10142C000120704700207047144B30B51B78012BFE
:10143C0019D0134B1D884FF6FF739D4213D0114AE0
:10144C00108898420FD0104A104913880C78013339
:10145C009BB2138044B99D4205D810200C4B5861A7
:10146C00012314800B7030BD9842FCD81020084B1F
:10147C00186100230B701380F5E700BFA201002058
:10148C009C010020A00100209E0100209A01002058
:10149C0000080140114B1A7882421ED004281CD837
:1014AC00187000230E4A400013800E4A13700E4B26
:1014BC000E4A33F810100130118033F810200C4B09
:1014CC001A800C4B1B7843B903F1804303F584332A
:1014DC00102209B11A6170475A617047A3010020AC
:1014EC009E0100209A010020842400089C01002009
:1014FC00A0010020A20100207FB5102601230024AA
:10150C00CDE9006303230B4D69462846CDE9024320
:10151C00FEF7F8FF4FF6FF72074B1C70074B1C7061
:10152C00074B1C70074B1A80074B1C806E6104B074
:10153C0070BD00BF00080140A2010020A3010020E3
:10154C009A010020A00100209C01002008B500F0A9
:10155C005FF9BDE808400148FFF712BCA401002068
:10156C0070B5084BC9B2FFF767FC00240546054E61
:10157C00A3B29D4200D870BD305D00F009F9013472
:10158C00F6E700BFA902002010B4037802466BB145
:10159C001346C830991A13F8014BC9B214B18342DF
:1015AC00F8D1C821002010BCFFF7DABF10BC70477F
:1015BC0010B5837886B0013B042B44D8DFE803F0E8
:1015CC00031040393700BFF34F8F2149214BCA68B4
:1015DC0002F4E0621343CB60BFF34F8F00BFFDE713
:1015EC00012306AC04F8143D1B491C4B03F160426B
:1015FC0013F8010B02F619028B42A054F6D1184BCA
:10160C001B681A0E8DF811201A0C8DF812201A0A6C
:10161C008DF813208DF81430FFF76EFD8DF8150042
:10162C00012022461421ADF81600FFF799FF06B0F1
:10163C0010BD032306AA012102F8143D0846F4E765
:10164C0006AA0223F7E70748FFF79EFFEFE700BF64
:10165C0000ED00E00400FA05F4F7FF1FE8F7FF1FA8
:10166C007C0100209824000810B58378C0B0013BA1
:10167C000C2B4DD8DFE803F0071F18292E4916163E
:10168C0016161616160001238DF80030224B032176
:10169C001B881A0A8DF801206A468DF80230022048
:1016AC00FFF75EFF40B010BDFFF78AFC1B4B1B8899
:1016BC00ADF8003006E0FFF767FC03238DF801005E
:1016CC008DF800306A460221E9E7011DC078FFF76A
:1016DC0083FCF2E7C4782046FFF7B4FC18B9032367
:1016EC00ADF80030EEE702238DF8003000238DF8C2
:1016FC000140DAB2944202D86A46A11CCFE7C15C21
:10170C000DEB030291700133F3E7FFF7B5FCCDE766
:10171C000348FFF739FFC5E73E2200083C220008CA
:10172C00AA2400088378013B072B02D90148FFF754
:10173C002BBF7047D224000837B5134C134D0DF155
:10174C00070000F037F808B903B030BD9DF807105A
:10175C002046FFF718FB0028F1D06378022B07D046
:10176C00032B09D0012B0BD12046FFF721FFE6E715
:10177C002046FFF779FFE2E72046FFF7D3FFDEE7CD
:10178C002846FFF701FFDAE7A4010020C324000874
:10179C0008B501460548FFF721FE054AD36843F01A
:1017AC00805343F08003D36008BD00BF2C000020A1
:1017BC000038014001460148FFF722BE20000020FE
:1017CC0013B5104C23689A0604D561680E48C9B24B
:1017DC00FFF704FE23681B060AD5002302A901F8B3
:1017EC00013D0A48FFF70CFE20B19DF807306360FD
:1017FC0002B010BDE36823F0805323F08003E36054
:10180C00F6E700BF00380140200000202C0000202B
:10181C002DE9F0433F4887B0FFF7DCFD3E48FFF76A
:10182C00D9FD01274FF40072122303263B4C02A969
:10183C002046CDE902230025CDE90476FEF762FEB1
:10184C004FF4806302A92046CDE90476CDE9023538
:10185C00FEF758FE324B04F540549A6942F480422C
:10186C009A619B6903F480430193019B0C23E36011
:10187C0025616561FFF79AF90746FFF797F9064668
:10188C00FFF794F98046FFF791F98146FFF78EF93F
:10189C0019234FF4E12C03FB00F25E4303FB09F91F
:1018AC005F4303FB08F31F486421B9FBFCF9B2FB4F
:1018BC00F0F2B6FBFCFCB3FBF0F301FB129201FB64
:1018CC0013C312011B0132323233B2FBF1F2B3FB00
:1018DC00F1F3B7FBF0F702F00F025B0002EB07121B
:1018EC0003F4F0731344A360E3682A4643F40053F3
:1018FC00E36006212520FEF77FFC2520FEF7B0FCD7
:10190C00E36843F0805343F02003E36007B0BDE885
:10191C00F08300BF2C0000202000002000080140B4
:10192C00001002400020BF0270B500250C4E0D4C7B
:10193C00A41BA410A54209D100F066FC00250A4E98
:10194C000A4CA41BA410A54205D170BD56F8253035
:10195C0098470135EEE756F8253098470135F2E700
:10196C0034250008342500083425000838250008E3
:10197C0003460244934200D1704703F8011BF9E778
:10198C000EB46FF0004100B59CB01DAB02900690F8
:10199C00079104910848094953F8042B05910068F4
:1019AC0002A9019300F066F80022029B1A701CB089
:1019BC005DF804EB03B07047380000200802FFFF0D
:1019CC002DE9F0478E6882469E420C469046994619
:1019DC0037D88A8912F4906F31D0022325680969AF
:1019EC006F1A656905EB450595FBF3F509F10103E4
:1019FC003B449D4238BF1D46530530D5294600F067
:101A0C0035FB064650B90C234FF0FF30CAF80030B6
:101A1C00A38943F04003A381BDE8F0873A462169CE
:101A2C0000F0B4FAA38923F4906343F08003A381FC
:101A3C0026613E4426604E466561ED1BA5604E4511
:101A4C0000D94E4632464146206800F0AAFAA368F7
:101A5C0000209B1BA36023681E442660DCE72A46FB
:101A6C0000F05EFB06460028E2D12169504600F0EA
:101A7C00B1FAC8E72DE9F04F9DB003938B898046EE
:101A8C001D060C4616460FD50B696BB9402100F0AC
:101A9C00EDFA2060206128B90C23C8F800304FF013
:101AAC00FF30C7E0402363610023099320238DF8A6
:101ABC00293030234FF0010B8DF82A3037463D4644
:101ACC0015F8013B0BB1252B3ED1B7EB060A0BD019
:101ADC005346324621464046FFF772FF013000F074
:101AEC00A480099B534409933B78002B00F09D8004
:101AFC0000234FF0FF32CDE90523049307938DF8B3
:101B0C0053301A932F46052217F8011B4F4800F04B
:101B1C002FFA049BD0B9D90644BF20228DF853204C
:101B2C001A0744BF2B228DF853202A782A2A15D065
:101B3C002F4600200A25079A394611F8013B303B05
:101B4C00092B4DD9B8B10FE02F46B8E73F4A3D46B7
:101B5C00801A0BFA00F018430490D3E7039A111D76
:101B6C0012680391002A01DB079204E0524243F011
:101B7C000203079204933B782E2B0CD17B782A2BF3
:101B8C0033D1039B02371A1D1B680392002BB8BF7D
:101B9C004FF0FF3305932E4D03223978284600F081
:101BAC00E7F938B14023401B03FA00F0049B0137DE
:101BBC00034304933978062226487E1C8DF828109E
:101BCC0000F0D6F9002838D0234B13BB039B073306
:101BDC0023F0070308330393099B4B4409936DE7E8
:101BEC0005FB023201200F46A6E700230A25194601
:101BFC0001370593384610F8012B303A092A03D9DE
:101C0C00002BC8D00591C6E705FB0121012307462F
:101C1C00F0E703AB00932246104B04A94046AFF308
:101C2C000080B0F1FF3F8146D6D1A3895B063FF51A
:101C3C0036AF09981DB0BDE8F08F03AB0093224678
:101C4C00064B04A9404600F081F8EAE7E8240008B6
:101C5C00EE240008F224000800000000CD19000852
:101C6C002DE9F04791461F468A680B690646934258
:101C7C00B8BF1346C9F8003091F843200C46DDF884
:101C8C00208012B10133C9F800302368990642BF95
:101C9C00D9F800300233C9F80030256815F0060574
:101CAC0007D104F1190AE368D9F800209B1AAB425A
:101CBC0029DC94F843302268003318BF01239206C4
:101CCC002ED404F1430239463046C047013021D0AE
:101CDC002368E56803F00603042B18BF0025D9F828
:101CEC0000204FF0000908BFAD1AA368226908BF95
:101CFC0025EAE5759342C4BF9B1AED181A344D457D
:101D0C001AD1002008E00123524639463046C0471C
:101D1C00013003D14FF0FF30BDE8F0870135C2E749
:101D2C003020E11881F843005A1C94F845102244E5
:101D3C00023382F84310C4E7012322463946304669
:101D4C00C0470130E6D009F10109D8E72DE9F0438D
:101D5C0001F1430C0C46097E85B06E2917460646E8
:101D6C0098460C9A00F0B38022D8632936D00AD852
:101D7C00002900F0B980582900F0838004F1420555
:101D8C0084F8421032E0642901D06929F6D1206828
:101D9C001368050603F104012AD51B681160002B9A
:101DAC0003DA2D225B4284F843206F480A2239E083
:101DBC00732900F09D8008D86F2920D07029DDD1BF
:101DCC00236843F02003236003E0752917D078299A
:101DDC00D4D17823654884F8453055E0136804F174
:101DEC004205191D1B68116084F8423001238CE0F8
:101DFC001B6810F0400F116018BF1BB2CFE71368BF
:101E0C002568181D1060280601D51B6802E06806BD
:101E1C00FBD51B886F2914BF0A22082252480021C7
:101E2C0084F843106568002DA560C0F29580216888
:101E3C0021F004012160002B3DD1002D40F08E805B
:101E4C006546082A0BD12368DB0708D5236962682D
:101E5C009A42DEBF302305F8013C05F1FF35ACEBAF
:101E6C0005032361CDF800803B4603AA214630468A
:101E7C00FFF7F6FE01304DD14FF0FF3005B0BDE855
:101E8C00F083394884F84510136821681D1D1B68C0
:101E9C0015600A060BD5CA0744BF41F0200121602A
:101EAC001BB9226822F0200222601022B7E74D06EF
:101EBC0048BF9BB2EFE76546B3FBF2F102FB11336F
:101ECC00C35C05F8013D0B460029F5D1B9E7136851
:101EDC002568181D6169106028061B6801D51960FA
:101EEC0002E06A06FBD51980002365462361B9E739
:101EFC001368191D11601D6862680021284600F0E6
:101F0C0037F808B1401B606063682361002384F8D4
:101F1C004330A7E723692A4639463046C04701308B
:101F2C00AAD023689B0713D4E068039B9842B8BFE0
:101F3C001846A3E701234A4639463046C0470130CC
:101F4C009AD00135E368039A9B1AAB42F2DCEBE7BB
:101F5C00002504F11909F5E7002BACD1037804F145
:101F6C00420584F842306CE7F92400080A25000881
:101F7C0010B5C9B202449042034601D1002303E0DC
:101F8C001C7801308C42F6D1184610BD10B5431E9A
:101F9C000A44914200D110BD11F8014B03F8014FD6
:101FAC00F7E7884210B501EB020307D8421E9942AD
:101FBC000AD011F8014B02F8014FF8E78342F5D92A
:101FCC008118D21AD34200D110BD13F8014D01F87B
:101FDC00014DF7E738B50546002943D051F8043CCC
:101FEC000C1F002BB8BFE41800F0D0F81E4A136881
:101FFC00104633B9636014602846BDE8384000F0E1
:10200C00C6B8A3420BD921686218934201BF1A6863
:10201C005B685218226063600460EDE713465A68EF
:10202C000AB1A242FAD919685818A0420BD12068FB
:10203C000144581882421960DED11068526801447C
:10204C0019605A60D8E702D90C232B60D4E72068BA
:10205C0021188A4201BF1168526809182160626018
:10206C005C60C9E738BD00BFC400002070B5CD1C52
:10207C0025F0030508350C2D38BF0C25002D064620
:10208C0001DBA94203D90C233360002070BD00F0A2
:10209C007DF8214A1468214691B9204C23681BB95C
:1020AC00304600F063F820602946304600F05EF8B8
:1020BC00431C24D10C233046336000F068F8E4E76D
:1020CC000B685B1B18D40B2B0FD90B60CC18CD50A5
:1020DC00304600F05CF804F10B00231D20F00700E3
:1020EC00C31AD3D05A42E250D0E74B688C4216BF89
:1020FC00636013600C46EBE70C464968CCE7C41CE4
:10210C0024F00304A04205D0211A304600F02EF82A
:10211C000130CFD02560DBE7C4000020C8000020D0
:10212C00F8B5074614460E4621B9BDE8F8401146ED
:10213C00FFF79CBF22B9FFF74DFF25462846F8BD97
:10214C0000F026F8A0420FD221463846FFF78EFF4A
:10215C0005460028F2D031462246FFF717FF3146DC
:10216C003846FFF737FFE9E73546E7E738B5002390
:10217C00054C05460846236000F012F8431C02D1BA
:10218C00236803B12B6038BDB0070020704770473F
:10219C0051F8043C181F002BBCBF0B58C0187047DB
:1021AC00044A05491368002B08BF0B4618441060FD
:1021BC0018467047CC000020B80700200C480D4989
:1021CC000D4A002302E0D458C4500433C4188C4286
:1021DC00F9D30A4A0A4C002301E013600432A242EC
:1021EC00FBD300F010F8FFF79FFBFFF7A5F8704743
:1021FC0000000020A00000203C250008A0000020CA
:10220C00B4070020FEE77047F8B500BFF8BC08BC67
:10221C009E467047F8B500BFF8BC08BC9E46704798
:10222C0002030405060708090A0B0C0D0E0F10100B
:10223C0003018000000005800F800A001B801E0037
:10224C0014001180338036003C00398028002D802A
:10225C0027802200638066006C00698078007D8096
:10226C0077807200500055805F805A004B804E0082
:10227C0044004180C380C600CC00C980D800DD80FA
:10228C00D780D200F000F580FF80FA00EB80EE00E2
:10229C00E400E180A000A580AF80AA00BB80BE0056
:1022AC00B400B180938096009C00998088008D804A
:1022BC0087808200838186018C01898198019D81B0
:1022CC0097819201B001B581BF81BA01AB81AE019A
:1022DC00A401A181E001E581EF81EA01FB81FE010E
:1022EC00F401F181D381D601DC01D981C801CD8102
:1022FC00C781C201400145814F814A015B815E016A
:10230C0054015181738176017C01798168016D8161
:10231C0067816201238126012C01298138013D81CD
:10232C0037813201100115811F811A010B810E01B9
:10233C0004010181038306030C03098318031D8325
:10234C0017831203300335833F833A032B832E0309
:10235C0024032183600365836F836A037B837E037D
:10236C0074037183538356035C03598348034D8371
:10237C0047834203C003C583CF83CA03DB83DE03D9
:10238C00D403D183F383F603FC03F983E803ED83D1
:10239C00E783E203A383A603AC03A983B803BD833D
:1023AC00B783B203900395839F839A038B838E0329
:1023BC0084038183800285828F828A029B829E02A3
:1023CC0094029182B382B602BC02B982A802AD8299
:1023DC00A782A202E382E602EC02E982F802FD8205
:1023EC00F782F202D002D582DF82DA02CB82CE02F1
:1023FC00C402C182438246024C02498258025D8269
:10240C0057825202700275827F827A026B826E0250
:10241C0064026182200225822F822A023B823E02C4
:10242C0034023182138216021C02198208020D82B8
:10243C000782020278774C6564436F6E74726F6C1E
:10244C002072657374617274656400426F617264AA
:10245C00636F6E666967204572726F72212100424C
:10246C006F617264636F6E666967204F4B004E75C7
:10247C006D626572202564000000FFFFFFFF000005
:10248C000807C800F401F401C8000807556E6B6E0C
:10249C006F776E20636F6D6D616E640D0A00556E03
:1024AC006B6E6F776E20636F6E66696720636F6DFE
:1024BC006D616E640D0A00496E76616C696420442E
:1024CC004C43490D0A00556E6B6E6F776E204C4570
:1024DC004420636F6D6D616E640D0A00232D302BEB
:1024EC002000686C4C006566674546470030313209
:1024FC003334353637383941424344454600303160
:10250C0032333435363738396162636465660000BE
:10251C000000000000000001020304060708090087
:08252C0000000001020304009D
:042534003101000869
:042538000D01000889
:10253C000100000010000000FA000020400006001E
:10254C000000000000000000008400080084000867
:10255C00AE0400200002000000000000AE060020C7
:10256C0000010000000000003C0000200000000002
:10257C00000000000000000000000000000000004F
:10258C00000000000000000000000000000000003F
:10259C00000000000000000000000000000000002F
:1025AC00000000000000000000000000000000001F
:1025BC00000000000000000000000000000000000F
:1025CC000000000000000000000000000024F400E7
:04000005080021C905
:00000001FF
