:020000040800F2
:10000000005000201D170008B10F0008B30F0008B2
:10001000B50F0008B70F0008B90F00080000000076
:10002000000000000000000000000000BD0F0008FC
:10003000BB0F000800000000BF0F0008910F000870
:10004000C10F0008C30F0008C50F0008C70F000844
:10005000C90F0008CB0F0008CD0F0008CF0F000814
:10006000D10F0008D30F0008D50F0008D70F0008E4
:10007000D90F0008DB0F0008DD0F0008DF0F0008B4
:10008000E10F0008E30F0008651700086517000876
:10009000651700086517000865170008E50F0008D8
:1000A000E70F0008E90F0008EB0F0008ED0F00084C
:1000B000EF0F0008F10F0008F30F0008F50F00081C
:1000C000F70F0008F90F0008FB0F0008FD0F0008EC
:1000D000FF0F0008011000080510000807100008B5
:1000E00009100008651700080B1000080000000048
:1000F0000000000000000000000000000000000000
:0C01000000000000000000005FF808F1A3
:10010C0010B5054C237833B9044B13B10448AFF345
:10011C0000800123237010BD30000020000000007F
:10012C006817000808B5034B1BB103490348AFF32C
:10013C00008008BD00000000340000206817000893
:10014C007047000038B50E4B054618784FF47A739B
:10015C00B3FBF0F30B4A1068B0FBF3F000F08EF831
:10016C00044658B90F2D09D8024629464FF0FF30E6
:10017C0000F042F82046044B1D6038BD0120FCE71E
:10018C00000000202800002004000020074A08B5C9
:10019C001368032043F01003136000F01BF80F20CA
:1001AC00FFF7D0FFFFF7CCFF002008BD0020024076
:1001BC00034A044B11681B780B441360704700BF53
:1001CC004C00002000000020014B1868704700BF55
:1001DC004C000020074A0002D36800F4E06023F4CE
:1001EC00E0631B041B0C43F0BF6343F40033034375
:1001FC00D360704700ED00E0174B70B5DC684FF032
:10020C00FF36C4F30224C4F10705042D04F10403E2
:10021C0028BF0425062B98BF002406FA05F388BFD7
:10022C00033C21EA0303A34006FA04F422EA040483
:10023C00002843EA0403A8BF00F160404FEA03130F
:10024C00B8BF064ADBB2ABBF00F5614000F00F004F
:10025C0080F80033135470BD00ED00E014ED00E0A5
:10026C00002808DB0123420900F01F0003FA00F00C
:10027C00014B43F82200704700E100E00138B0F177
:10028C00807F0AD2F021064B064A586082F8231070
:10029C000020072298601A6070470120704700BF49
:1002AC0010E000E000ED00E0114AD36813F01003F9
:1002BC0005D01049CB6943F00203CB611023D268FF
:1002CC00500706D50B4943F00403CA6942F00102FA
:1002DC00CA61074AD169C90708D50648C16941F006
:1002EC000401C161D16921F00101D161D360704772
:1002FC000020024050000020064B186910F08000CE
:10030C0007D0054A5A6002F188325A601869C0F366
:10031C00C01070470020024023016745034A0020AB
:10032C00136943F080031361704700BF0020024043
:10033C00F8B50646FFF748FF114C07462546E3681B
:10034C00D80712D4E368990644BF2023E360EB6816
:10035C00DA0606D4EB69DB0703D4E86810F0040076
:10036C0007D0FFF7A1FF012003E0731CE7D00EB903
:10037C000320F8BDFFF728FFC01BB042DFD9F7E719
:10038C00002002402DE9F84F244C1E46237E0546E2
:10039C00012B0F4690463FD001234CF25030237670
:1003AC00FFF7C6FFA0BB012D03D0022D0CBF022509
:1003BC0004254FF00009CB46DFF864A04FEA09137F
:1003CC00C3F12001A3F1200206FA01F128FA03F38C
:1003DC00C4F81CB00B4326FA02F21343DAF81020CF
:1003EC009BB242F00102CAF810204CF2503027F8B0
:1003FC001930FFF79DFFDAF8103023F00103CAF82B
:10040C00103028B909F101095FFA89F39D42D5D85A
:10041C0000232376BDE8F88F0220FBE75000002074
:10042C00002002400022064BDA61064B1A6942F0AA
:10043C0004021A611A6942F040021A61704700BF47
:10044C0050000020002002400022064BDA61064BCF
:10045C001A6942F002021A6158611A6942F04002AC
:10046C001A61704750000020002002402DE9F04135
:10047C00224D07462B7E8846012B3DD00124036874
:10048C002C76022B4CF2503013D1FFF751FF20B1D8
:10049C00012000232B76BDE8F081FFF7C3FF4CF25F
:1004AC005030FFF745FF164A136923F0040313611C
:1004BC00EFE7FFF73DFF0028EAD14FF0FF33C8F814
:1004CC0000302046BE680E4CD7E9023203EB822383
:1004DC00B342DED93046FFF7B7FF4CF25030FFF78E
:1004EC0027FF236923F00203236110B1C8F80060D1
:1004FC00CFE706F58066E7E70220CCE75000002046
:10050C00002002402DE9F74F00242646654BDFF80A
:10051C00A4C1DFF8A4E10A6832FA06F502D103B0EF
:10052C00BDE8F08F4FF0010808FA06F802EA08025D
:10053C0090457ED14D68122D00F0A98000F282808A
:10054C00022D00F0A18076D8002D00F08880012DBE
:10055C0000F098804FF00F09FF2A93BF824606F1F6
:10056C008045083DD0F800B092BFB500D0F804B07B
:10057C00AD0009FA05F82BEA080804FA05F588BF5E
:10058C0000F1040A48EA0505CAF80050D1F804A0A5
:10059C001AF0805F4DD0444F26F00308BD6908F176
:1005AC00804845F00105BD61BD6908F5803805F04E
:1005BC000105019506F0030B019D4FEA8B0BD8F852
:1005CC00085009FA0BF925EA0909384DA84263D0FD
:1005DC0005F58065A84261D005F58065A8425FD01D
:1005EC0005F58065A8420CBF0325042505FA0BF51B
:1005FC0045EA0905C8F808501D681AF4803F14BF75
:10060C00154395431D605D681AF4003F14BF1543F4
:10061C0095435D609D681AF4801F14BF1543954384
:10062C009D60DD681AF4001F14BF2A4325EA0202FC
:10063C00DA6001366FE7032D22D0112D8AD1CC68F8
:10064C00043487E71A4FBD4209D012D8DFF86C90FA
:10065C004D4504D009F580394D457FF47BAF8C684E
:10066C00C4B1012C0CBFC0F81080C0F81480082451
:10067C0070E76545F3D07545F1D0DFF84490EBE7B2
:10068C00002467E7CC6865E7CC68083462E7CC687F
:10069C000C345FE704245DE70025A7E70125A5E7F7
:1006AC000225A3E7000401400010024000080140AD
:1006BC000000211000003110000032100000111059
:1006CC00000022102DE9F341054608B901203CE059
:1006DC000368DB0710D42B689F075DD42B681907C0
:1006EC0000F194802B685A0700F1BE80E86900285D
:1006FC0040F02C81002028E08F4C636803F00C0341
:10070C00042B07D0636803F00C03082B09D1636832
:10071C00DE0306D523689C03DDD56B68002BDAD18C
:10072C00D4E76B68B3F5803F12D1236843F4803370
:10073C002360FFF749FD064623689803CBD4FFF7E7
:10074C0043FD801B6428F7D9032002B0BDE8F0817B
:10075C009BB9236823F480332360236823F480231C
:10076C002360FFF731FD064623689903B3D5FFF7E5
:10077C002BFD801B6428F7D9E6E7B3F5A02F23687F
:10078C0003D143F480232360CFE723F48033236029
:10079C00236823F48023CBE7674C636813F00C0FBA
:1007AC0007D0636803F00C03082B10D16368DA03DD
:1007BC000DD423689B0702D52B69012B86D12368A6
:1007CC006A6923F0F80343EAC203236086E72A69C7
:1007DC005A4B6AB101221A60FFF7F6FC06462368F1
:1007EC009F07ECD4FFF7F0FC801B0228F7D9ABE78E
:1007FC001A60FFF7E9FC0646236898077FF56EAF91
:10080C00FFF7E2FC801B0228F6D99DE7AA694A4C47
:10081C004B4BDAB101221A60FFF7D6FC0646636A2D
:10082C009B070DD54FF4FA52464B1B68B3FBF2F302
:10083C00019300BF019B5A1E0192002BF9D151E785
:10084C00FFF7C2FC801B0228E9D97DE71A60FFF78D
:10085C00BBFC0646636A9F077FF544AFFFF7B4FC09
:10086C00801B0228F6D96FE7334CE369D80024D4F7
:10087C000127E36943F08053E361E36903F080539C
:10088C000093009B304E3368D90518D5EB68012BCB
:10089C0026D1236A43F001032362FFF795FC41F252
:1008AC0088368046236A9B073FD5002F3FF41EAF46
:1008BC00E36923F08053E36118E70027E2E733682C
:1008CC0043F480733360FFF77FFC80463368DA05AE
:1008DC00DCD4FFF779FCA0EB08006428F6D933E7E9
:1008EC00ABB9236A41F2883823F001032362236AEF
:1008FC0023F004032362FFF767FC0646236A98077C
:10090C00D3D5FFF761FC801B4045F7D91CE7052BBD
:10091C00236A03D143F004032362BAE723F00103F3
:10092C002362236A23F00403B6E7FFF74DFCA0EB28
:10093C000800B042B6D907E700100240000042425E
:10094C008004424228000020007000402A4B5A6864
:10095C001C4602F00C02082A3DD00023274E022828
:10096C0033602BD1FFF730FC0746236899011FD465
:10097C002B6AB3F5803F05D16268A96822F4003276
:10098C000A436260696A62680B4322F4741213436F
:10099C00636001233360FFF717FC054623689A0157
:1009AC003FF5A8AEFFF710FC401B0228F6D9CBE6AA
:1009BC00FFF70AFCC01B0228D7D9C5E6FFF704FCD9
:1009CC00054623689B017FF595AEFFF7FDFB401BA9
:1009DC000228F6D9B8E601283FF4B7AE58682B6A5E
:1009EC0000F480329A427FF471AE6B6A00F470109E
:1009FC00C01A18BF0120A8E6001002406000424255
:100A0C0030B5184B87B002AC03F1100522461868BC
:100A1C005968083303C2AB421446F7D140F20123A4
:100A2C001149ADF804304B6803F00C02082A17D1B9
:100A3C00C3F3834206A80244DB0312F8102C0CD536
:100A4C004B680A48C3F34043504306AA134413F8B7
:100A5C00143CB0FBF3F007B030BD05485043FAE747
:100A6C000248F8E7801700080010024000127A00D4
:100A7C0000093D002DE9F0410D46044610B9012056
:100A8C00BDE8F081444A136803F007038B4228D376
:100A9C0021688E0730D4CA0743D43F4A136803F049
:100AAC000703AB4265D822683C4D12F0040F6CD1A1
:100ABC00130706D56B68226923F4605343EAC2031B
:100ACC006B60FFF79DFF6B68354AC3F30313D35C70
:100ADC00D840344B1860344B1868FFF733FB0020B8
:100AEC00CEE7136823F007030B431360136803F07E
:100AFC0007038B42C3D1CBE7284B11F0040F1EBF69
:100B0C005A6842F4E0625A60080742BF5A6842F4DD
:100B1C0060525A605A68A06822F0F00202435A6090
:100B2C00B9E762681D4E012A33681AD113F4003FED
:100B3C00A5D0736841F2883823F003031343736024
:100B4C00FFF742FB07467368626803F00C03B3EBD4
:100B5C00820FA2D0FFF738FBC01B4045F3D903200E
:100B6C008EE7022A02D113F0007FE1E713F0020FA7
:100B7C00DEE7136823F007032B431360136803F0BD
:100B8C000703AB427FF47BAF8DE76B68E16823F41E
:100B9C00E0630B436B608BE70020024000100240C7
:100BAC00321A00082800002004000020044B054ADB
:100BBC005B68C3F3C223D35C034A1068D840704708
:100BCC0000100240421A0008280000200023037085
:100BDC007047027810B503462AB3022A50D87B29F5
:100BEC0003D07D2901D02F2902D193F8040138B309
:100BFC00012A4FF0000008BF022293F8024118BFEF
:100C0C0093F8032184EA010483F8024118BF541CB1
:100C1C0083F8040119BF83F803419B1859701A70AB
:100C2C0018BF997010BD7B2908D1122180F80211D0
:100C3C00012180F8042180F8032101701046F1E7AE
:100C4C007B2907D07D290FD02F29EBD1012283F8E6
:100C5C000421E7E701221A70122283F8040183F8B9
:100C6C00022183F80301DDE7187093F8020193F871
:100C7C000321B0FA80F0013A83F803214009D1E74F
:100C8C000020CFE7F0B57B24A0421C7003D02F28A6
:100C9C0001D07D2817D12F2402255C7058556C1C6F
:100CAC004FF02F0C154680F0120089B2AE1AB6B276
:100CBC00B14204F1010608D87D221855B6B2A01C29
:100CCC009A5580B2F0BD0125E8E72F78AE467B2F10
:100CDC0003D02F2F01D07D2F02D103F804C0B4B262
:100CEC0015F8017B661C1F559EF800406040B4B29D
:100CFC00DCE7000038B50C4C0C4B082120461D8855
:100D0C0000F00EF985420DD101202288084B1A8083
:100D1C00084A12885A80084A12889A80074A128810
:100D2C00DA8038BD0020FCE7028000080080000853
:100D3C007400002004800008068000080880000869
:100D4C0070B5082186B0134800F0EAF80125064674
:100D5C00FFF7D2FA0023104C01A902A80293CDE9A7
:100D6C000445FFF783FB90B9B2B228460023214615
:100D7C00FFF708FB094E0A4D0234325B0023214673
:100D8C000120FFF7FFFAAC42F6D1FFF7C7FA06B025
:100D9C0070BD00BF74000020008000087280FF1737
:100DAC000880000800220A4B1A705A706FF0170264
:100DBC009A710322DA716FF023029A700522DA70AD
:100DCC006FF02F021A7107225A71FFF7B9BF00BFDB
:100DDC007400002010B5002486B0FFF78DFA094B83
:100DEC0001A90493084B02A81B8802940593FFF7F2
:100DFC003DFB20B9FFF792FA012006B010BD20464A
:100E0C00FBE700BF0084000884000020024B034A6B
:100E1C001360034A13607047008400080C00002024
:100E2C00080000208028F8B504460D4620D810F0A4
:100E3C0001001DD1144E154A33681268013B23443E
:100E4C009A4209D3FFF758FA04F0FE042C44A54249
:100E5C0003D1FFF763FA0120F8BD2A88002331681B
:100E6C000120FFF78FFA01282F4603D1FFF756FA1E
:100E7C000020F1E733683A88198802359142F5D1A0
:100E8C0002333360E3E700BF0C0000208000002039
:100E9C00802810B503460ED810F001000BD107497D
:100EAC00074C0A682468A24204D813449C4201D31C
:100EBC0010460B6010BD0020FCE700BF08000020AE
:100ECC00800000200A4B0B4A1B880B499B021360C5
:100EDC00A3F504420A600949C2F38F220A8008492B
:100EEC0003F100630A80074A013B1360704700BF9F
:100EFC00E0F7FF1F88000020700000207C0000201D
:100F0C008400002080000020044B81EA102133F87B
:100F1C00113083EA002080B2704700BF941700089C
:100F2C0010B5024644180120A24205D1C0B280F48B
:100F3C007F4080F0FF0010BD12F8011BFFF7E4FFAB
:100F4C00F2E70000044B986810F400601CBF98682E
:100F5C00C0F30030704700BF000801401FB54FF4CC
:100F6C00C05200230121CDE9002303230448CDE91D
:100F7C0002136946FFF7C6FA05B05DF804FB00BF23
:100F8C000008014008B5FFF713F900F01FF9044AF7
:100F9C0013780133DBB2132B88BF0023137008BD09
:100FAC008D0000207047FEE7FEE7FEE7FEE7704786
:100FBC00704770477047704770477047704770476D
:100FCC00704770477047704770477047704770475D
:100FDC00704770477047704770477047704770474D
:100FEC00704770477047704770477047704770473D
:100FFC007047704700F0ACBA704770477047704745
:10100C002B4B00B59A698BB042F001029A619A6938
:10101C0006A902F001020092009A9A69254842F052
:10102C0004029A619A6902F004020192019A9A6987
:10103C0042F008029A619A6902F008020292029A3E
:10104C009A6942F010029A619A6902F010020392B6
:10105C00039A9A6942F020029A619A6902F020027E
:10106C000492049A9A6942F040029A619B6903F0D7
:10107C0040030593059B4FF6FF73069303230993D7
:10108C000023CDE90733FFF73DFA06A90A48FFF71D
:10109C0039FA06A90948FFF735FA06A90848FFF7F7
:1010AC0031FA06A90748FFF72DFA0BB05DF804FBDF
:1010BC000010024000080140000C014000100140EB
:1010CC00001401400018014010B590B0142200210A
:1010DC0001A800F015FB1422002108A800F010FB59
:1010EC0002244FF480330122CDE90D43CDE90623D0
:1010FC004FF4E01306A80F93FFF7E4FA00B1FEE7F4
:10110C000F23CDE901344FF4806303900590214601
:10111C0001A80493FFF7AEFC00B1FEE710B010BDC0
:10112C0008B5FFF733F8FFF7CFFFFFF769FF00F0C3
:10113C00D5F8FFF7C7FE00F0B1F80C4800F0ECF85A
:10114C00FFF7D8FD60B90A4800F0E6F8FFF72AFE71
:10115C00042000F071F8FFF701FF00F0B5F9FCE78F
:10116C00044800F0D9F80120F3E700BF94190008F7
:10117C00AB190008BF1900080023C3800381704716
:10118C00C28810B5531C84889BB29C4298BF002324
:10119C0004899C4217BF04680020A154C38018BF67
:1011AC00012010BD0389C2889A420DD00268D35C1D
:1011BC000B700389828801339BB29A42038101D858
:1011CC00002303810120704700207047144B30B579
:1011DC001B78012B19D0134B1D884FF6FF739D42C2
:1011EC0013D0114A108898420FD0104A1049138816
:1011FC000C7801339BB2138044B99D4205D8102062
:10120C000C4B5861012314800B7030BD9842FCD8F4
:10121C001020084B186100230B701380F5E700BFFA
:10122C0096000020900000209400002092000020E6
:10123C008E00002000080140114B1A7882421ED00B
:10124C0004281CD8187000230E4A400013800E4A44
:10125C0013700E4B0E4A33F810100130118033F816
:10126C0010200C4B1A800C4B1B7843B903F18043B4
:10127C0003F58433102209B11A6170475A61704723
:10128C0097000020920000208E000020CE1900084C
:10129C009000002094000020960000207FB51026BE
:1012AC0001230024CDE900630323084D6946284639
:1012BC00CDE90243FFF726F9054B1C70054B1C705A
:1012CC00054B1C702E6104B070BD00BF00080140BE
:1012DC0096000020970000208E00002008B500F03A
:1012EC005FF9BDE808400148FFF770BC980000208A
:1012FC0070B5084BC9B2FFF7C5FC00240546054E76
:10130C00A3B29D4200D870BD305D00F009F90134E4
:10131C00F6E700BF9D01002010B4037802466BB1C4
:10132C001346C830991A13F8014BC9B214B1834251
:10133C00F8D1C821002010BCFFF7DABF10BC7047F1
:10134C0010B5837886B0013B042B44D8DFE803F05A
:10135C00031040393700BFF34F8F2149214BCA6826
:10136C0002F4E0621343CB60BFF34F8F00BFFDE785
:10137C00012306AC04F8143D1B491C4B03F16042DD
:10138C0013F8010B02F619028B42A054F6D1184B3C
:10139C001B681A0E8DF811201A0C8DF812201A0ADF
:1013AC008DF813208DF81430FFF7CCFD8DF8150057
:1013BC00012022461421ADF81600FFF799FF06B064
:1013CC0010BD032306AA012102F8143D0846F4E7D8
:1013DC0006AA0223F7E70748FFF79EFFEFE700BFD7
:1013EC0000ED00E00400FA05F4F7FF1FE8F7FF1F1B
:1013FC0070000020E219000810B58378C0B0013BE2
:10140C000C2B4DD8DFE803F0071F18292E491616B0
:10141C0016161616160001238DF80030224B0321E8
:10142C001B881A0A8DF801206A468DF802300220BA
:10143C00FFF75EFF40B010BDFFF7E8FC1B4B1B88AD
:10144C00ADF8003006E0FFF7C5FC03238DF8010072
:10145C008DF800306A460221E9E7011DC078FFF7DC
:10146C00E1FCF2E7C4782046FFF712FD18B903231C
:10147C00ADF80030EEE702238DF8003000238DF834
:10148C000140DAB2944202D86A46A11CCFE7C15C93
:10149C000DEB030291700133F3E7FFF713FDCDE77A
:1014AC000348FFF739FFC5E79217000890170008AB
:1014BC00F41900088378013B072B02D90148FFF788
:1014CC002BBF70471C1A000837B5134C134D0DF188
:1014DC00070000F037F808B903B030BD9DF80710CD
:1014EC002046FFF776FB0028F1D06378022B07D05B
:1014FC00032B09D0012B0BD12046FFF721FFE6E788
:10150C002046FFF779FFE2E72046FFF7D3FFDEE73F
:10151C002846FFF701FFDAE7980000200D1A0008B3
:10152C0008B501460548FFF72BFE054AD36843F082
:10153C00805343F08003D36008BD00BF1C00002023
:10154C000038014001460148FFF72CBE1000002076
:10155C0013B5104C23689A0604D561680E48C9B2BD
:10156C00FFF70EFE23681B060AD5002302A901F81B
:10157C00013D0A48FFF716FE20B19DF80730636065
:10158C0002B010BDE36823F0805323F08003E360C6
:10159C00F6E700BF00380140100000201C000020BE
:1015AC002DE9F0433F4887B0FFF7E6FD3E48FFF7D3
:1015BC00E3FD01274FF40072122303263B4C02A9D2
:1015CC002046CDE902230025CDE90476FEF79AFFEB
:1015DC004FF4806302A92046CDE90476CDE90235AB
:1015EC00FEF790FF324B04F540549A6942F4804266
:1015FC009A619B6903F480430193019B0C23E36084
:10160C0025616561FFF7D2FA0746FFF7CFFA064668
:10161C00FFF7CCFA8046FFF7C9FA8146FFF7C6FA06
:10162C0019234FF4E12C03FB00F25E4303FB09F991
:10163C005F4303FB08F31F486421B9FBFCF9B2FBC1
:10164C00F0F2B6FBFCFCB3FBF0F301FB129201FBD6
:10165C0013C312011B0132323233B2FBF1F2B3FB72
:10166C00F1F3B7FBF0F702F00F025B0002EB07128D
:10167C0003F4F0731344A360E3682A4643F4005365
:10168C00E36006212520FEF7B7FD2520FEF7E8FDD7
:10169C00E36843F0805343F02003E36007B0BDE8F8
:1016AC00F08300BF1C000020100000200008014047
:1016BC00001002400020BF0270B500250C4E0D4CEE
:1016CC00A41BA410A54209D100F048F800250A4E2D
:1016DC000A4CA41BA410A54205D170BD56F82530A8
:1016EC0098470135EEE756F8253098470135F2E773
:1016FC004C1A00084C1A00084C1A0008501A000822
:10170C0003460244934200D1704703F8011BF9E7EA
:10171C000C480D490D4A002302E0D458C450043340
:10172C00C4188C42F9D30A4A0A4C002301E0136016
:10173C000432A242FBD300F010F8FFF7BDFFFFF715
:10174C00EFFC7047000000202C000020541A000809
:10175C0030000020A4060020FEE77047F8B500BF5B
:10176C00F8BC08BC9E467047F8B500BFF8BC08BC76
:04177C009E467047CE
:1017800002030405060708090A0B0C0D0E0F1010C2
:1017900003018000000005800F800A001B801E00EE
:1017A00014001180338036003C00398028002D80E1
:1017B00027802200638066006C00698078007D804D
:1017C00077807200500055805F805A004B804E0039
:1017D00044004180C380C600CC00C980D800DD80B1
:1017E000D780D200F000F580FF80FA00EB80EE0099
:1017F000E400E180A000A580AF80AA00BB80BE000D
:10180000B400B180938096009C00998088008D8000
:1018100087808200838186018C01898198019D8166
:1018200097819201B001B581BF81BA01AB81AE0150
:10183000A401A181E001E581EF81EA01FB81FE01C4
:10184000F401F181D381D601DC01D981C801CD81B8
:10185000C781C201400145814F814A015B815E0120
:1018600054015181738176017C01798168016D8118
:1018700067816201238126012C01298138013D8184
:1018800037813201100115811F811A010B810E0170
:1018900004010181038306030C03098318031D83DC
:1018A00017831203300335833F833A032B832E03C0
:1018B00024032183600365836F836A037B837E0334
:1018C00074037183538356035C03598348034D8328
:1018D00047834203C003C583CF83CA03DB83DE0390
:1018E000D403D183F383F603FC03F983E803ED8388
:1018F000E783E203A383A603AC03A983B803BD83F4
:10190000B783B203900395839F839A038B838E03DF
:1019100084038183800285828F828A029B829E0259
:1019200094029182B382B602BC02B982A802AD824F
:10193000A782A202E382E602EC02E982F802FD82BB
:10194000F782F202D002D582DF82DA02CB82CE02A7
:10195000C402C182438246024C02498258025D821F
:1019600057825202700275827F827A026B826E0207
:1019700064026182200225822F822A023B823E027B
:1019800034023182138216021C02198208020D826F
:101990000782020278774C6564436F6E74726F6CD5
:1019A0002072657374617274656400426F61726461
:1019B000636F6E666967204572726F722121004203
:1019C0006F617264636F6E666967204F4B00000041
:1019D000FFFFFFFF00000807C800F401F401C80082
:1019E0000807556E6B6E6F776E20636F6D6D616E5D
:1019F000640D0A00556E6B6E6F776E20636F6E66B6
:101A0000696720636F6D6D616E640D0A00496E76C3
:101A1000616C696420444C43490D0A00556E6B6E3D
:101A20006F776E204C454420636F6D6D616E640D61
:101A30000A00000000000000000001020304060785
:0C1A40000809000000000102030400007F
:041A4C00310100085C
:041A50000D0100087C
:101A54000100000010000000008400080084000859
:101A6400A20300200002000000000000A2050020E4
:0C1A740000010000000000000024F4004D
:040000050800171DBB
:00000001FF
