:020000040800F2
:1000000000500020993100084D1100084F110008E0
:10001000511100085311000855110008000000009C
:10002000000000000000000000000000591100085E
:1000300057110008000000005B11000819110008AA
:100040005D1100085F1100086111000863110008CC
:100050006511000867110008691100086B1100089C
:100060006D1100086F11000871110008731100086C
:100070007511000877110008791100087B1100083C
:100080007D1100087F110008E1310008E13100080E
:10009000E1310008E1310008E13100088111000878
:1000A00083110008851100088711000889110008D4
:1000B0008B1100088D1100088F11000893110008A2
:1000C0009511000897110008991100089B1100086C
:1000D0009D1100089F110008A3110008A511000838
:1000E000A7110008E1310008A91100080000000074
:1000F0000000000000000000000000000000000000
:0C01000000000000000000005FF808F1A3
:10010C0010B5054C237833B9044B13B10448AFF345
:10011C0000800123237010BDC000002000000000EF
:10012C00E431000808B5034B1BB103490348AFF396
:10013C00008008BD00000000C4000020E43100086D
:10014C007047000038B50E4B054618784FF47A739B
:10015C00B3FBF0F30B4A1068B0FBF3F000F08EF831
:10016C00044658B90F2D09D8024629464FF0FF30E6
:10017C0000F042F82046044B1D6038BD0120FCE71E
:10018C0000000020BC00002004000020074A08B535
:10019C001368032043F01003136000F01BF80F20CA
:1001AC00FFF7D0FFFFF7CCFF002008BD0020024076
:1001BC00034A044B11681B780B441360704700BF53
:1001CC00F000002000000020014B1868704700BFB1
:1001DC00F0000020074A0002D36800F4E06023F42A
:1001EC00E0631B041B0C43F0BF6343F40033034375
:1001FC00D360704700ED00E0174B70B5DC684FF032
:10020C00FF36C4F30224C4F10705042D04F10403E2
:10021C0028BF0425062B98BF002406FA05F388BFD7
:10022C00033C21EA0303A34006FA04F422EA040483
:10023C00002843EA0403A8BF00F160404FEA03130F
:10024C00B8BF064ADBB2ABBF00F5614000F00F004F
:10025C0080F80033135470BD00ED00E014ED00E0A5
:10026C00002808DB0123420900F01F0003FA00F00C
:10027C00014B43F82200704700E100E00138B0F177
:10028C00807F0AD2F021064B064A586082F8231070
:10029C000020072298601A6070470120704700BF49
:1002AC0010E000E000ED00E0114AD36813F01003F9
:1002BC0005D01049CB6943F00203CB611023D268FF
:1002CC00500706D50B4943F00403CA6942F00102FA
:1002DC00CA61074AD169C90708D50648C16941F006
:1002EC000401C161D16921F00101D161D360704772
:1002FC0000200240F8000020064B186910F0800026
:10030C0007D0054A5A6002F188325A601869C0F366
:10031C00C01070470020024023016745034A0020AB
:10032C00136943F080031361704700BF0020024043
:10033C00F8B50646FFF748FF114C07462546E3681B
:10034C00D80712D4E368990644BF2023E360EB6816
:10035C00DA0606D4EB69DB0703D4E86810F0040076
:10036C0007D0FFF7A1FF012003E0731CE7D00EB903
:10037C000320F8BDFFF728FFC01BB042DFD9F7E719
:10038C00002002402DE9F84F244C1E46237E0546E2
:10039C00012B0F4690463FD001234CF25030237670
:1003AC00FFF7C6FFA0BB012D03D0022D0CBF022509
:1003BC0004254FF00009CB46DFF864A04FEA09137F
:1003CC00C3F12001A3F1200206FA01F128FA03F38C
:1003DC00C4F81CB00B4326FA02F21343DAF81020CF
:1003EC009BB242F00102CAF810204CF2503027F8B0
:1003FC001930FFF79DFFDAF8103023F00103CAF82B
:10040C00103028B909F101095FFA89F39D42D5D85A
:10041C0000232376BDE8F88F0220FBE7F8000020CC
:10042C00002002400022064BDA61064B1A6942F0AA
:10043C0004021A611A6942F040021A61704700BF47
:10044C00F8000020002002400022064BDA61064B27
:10045C001A6942F002021A6158611A6942F04002AC
:10046C001A617047F8000020002002402DE9F0418D
:10047C00224D07462B7E8846012B3DD00124036874
:10048C002C76022B4CF2503013D1FFF751FF20B1D8
:10049C00012000232B76BDE8F081FFF7C3FF4CF25F
:1004AC005030FFF745FF164A136923F0040313611C
:1004BC00EFE7FFF73DFF0028EAD14FF0FF33C8F814
:1004CC0000302046BE680E4CD7E9023203EB822383
:1004DC00B342DED93046FFF7B7FF4CF25030FFF78E
:1004EC0027FF236923F00203236110B1C8F80060D1
:1004FC00CFE706F58066E7E70220CCE7F80000209E
:10050C00002002402DE9F74F00242646654BDFF80A
:10051C00A4C1DFF8A4E10A6832FA06F502D103B0EF
:10052C00BDE8F08F4FF0010808FA06F802EA08025D
:10053C0090457ED14D68122D00F0A98000F282808A
:10054C00022D00F0A18076D8002D00F08880012DBE
:10055C0000F098804FF00F09FF2A93BF824606F1F6
:10056C008045083DD0F800B092BFB500D0F804B07B
:10057C00AD0009FA05F82BEA080804FA05F588BF5E
:10058C0000F1040A48EA0505CAF80050D1F804A0A5
:10059C001AF0805F4DD0444F26F00308BD6908F176
:1005AC00804845F00105BD61BD6908F5803805F04E
:1005BC000105019506F0030B019D4FEA8B0BD8F852
:1005CC00085009FA0BF925EA0909384DA84263D0FD
:1005DC0005F58065A84261D005F58065A8425FD01D
:1005EC0005F58065A8420CBF0325042505FA0BF51B
:1005FC0045EA0905C8F808501D681AF4803F14BF75
:10060C00154395431D605D681AF4003F14BF1543F4
:10061C0095435D609D681AF4801F14BF1543954384
:10062C009D60DD681AF4001F14BF2A4325EA0202FC
:10063C00DA6001366FE7032D22D0112D8AD1CC68F8
:10064C00043487E71A4FBD4209D012D8DFF86C90FA
:10065C004D4504D009F580394D457FF47BAF8C684E
:10066C00C4B1012C0CBFC0F81080C0F81480082451
:10067C0070E76545F3D07545F1D0DFF84490EBE7B2
:10068C00002467E7CC6865E7CC68083462E7CC687F
:10069C000C345FE704245DE70025A7E70125A5E7F7
:1006AC000225A3E7000401400010024000080140AD
:1006BC000000211000003110000032100000111059
:1006CC00000022102DE9F341054608B901203CE059
:1006DC000368DB0710D42B689F075DD42B681907C0
:1006EC0000F194802B685A0700F1BE80E86900285D
:1006FC0040F02C81002028E08F4C636803F00C0341
:10070C00042B07D0636803F00C03082B09D1636832
:10071C00DE0306D523689C03DDD56B68002BDAD18C
:10072C00D4E76B68B3F5803F12D1236843F4803370
:10073C002360FFF749FD064623689803CBD4FFF7E7
:10074C0043FD801B6428F7D9032002B0BDE8F0817B
:10075C009BB9236823F480332360236823F480231C
:10076C002360FFF731FD064623689903B3D5FFF7E5
:10077C002BFD801B6428F7D9E6E7B3F5A02F23687F
:10078C0003D143F480232360CFE723F48033236029
:10079C00236823F48023CBE7674C636813F00C0FBA
:1007AC0007D0636803F00C03082B10D16368DA03DD
:1007BC000DD423689B0702D52B69012B86D12368A6
:1007CC006A6923F0F80343EAC203236086E72A69C7
:1007DC005A4B6AB101221A60FFF7F6FC06462368F1
:1007EC009F07ECD4FFF7F0FC801B0228F7D9ABE78E
:1007FC001A60FFF7E9FC0646236898077FF56EAF91
:10080C00FFF7E2FC801B0228F6D99DE7AA694A4C47
:10081C004B4BDAB101221A60FFF7D6FC0646636A2D
:10082C009B070DD54FF4FA52464B1B68B3FBF2F302
:10083C00019300BF019B5A1E0192002BF9D151E785
:10084C00FFF7C2FC801B0228E9D97DE71A60FFF78D
:10085C00BBFC0646636A9F077FF544AFFFF7B4FC09
:10086C00801B0228F6D96FE7334CE369D80024D4F7
:10087C000127E36943F08053E361E36903F080539C
:10088C000093009B304E3368D90518D5EB68012BCB
:10089C0026D1236A43F001032362FFF795FC41F252
:1008AC0088368046236A9B073FD5002F3FF41EAF46
:1008BC00E36923F08053E36118E70027E2E733682C
:1008CC0043F480733360FFF77FFC80463368DA05AE
:1008DC00DCD4FFF779FCA0EB08006428F6D933E7E9
:1008EC00ABB9236A41F2883823F001032362236AEF
:1008FC0023F004032362FFF767FC0646236A98077C
:10090C00D3D5FFF761FC801B4045F7D91CE7052BBD
:10091C00236A03D143F004032362BAE723F00103F3
:10092C002362236A23F00403B6E7FFF74DFCA0EB28
:10093C000800B042B6D907E700100240000042425E
:10094C0080044242BC000020007000402A4B5A68D0
:10095C001C4602F00C02082A3DD00023274E022828
:10096C0033602BD1FFF730FC0746236899011FD465
:10097C002B6AB3F5803F05D16268A96822F4003276
:10098C000A436260696A62680B4322F4741213436F
:10099C00636001233360FFF717FC054623689A0157
:1009AC003FF5A8AEFFF710FC401B0228F6D9CBE6AA
:1009BC00FFF70AFCC01B0228D7D9C5E6FFF704FCD9
:1009CC00054623689B017FF595AEFFF7FDFB401BA9
:1009DC000228F6D9B8E601283FF4B7AE58682B6A5E
:1009EC0000F480329A427FF471AE6B6A00F470109E
:1009FC00C01A18BF0120A8E6001002406000424255
:100A0C0030B5184B87B002AC03F1100522461868BC
:100A1C005968083303C2AB421446F7D140F20123A4
:100A2C001149ADF804304B6803F00C02082A17D1B9
:100A3C00C3F3834206A80244DB0312F8102C0CD536
:100A4C004B680A48C3F34043504306AA134413F8B7
:100A5C00143CB0FBF3F007B030BD05485043FAE747
:100A6C000248F8E7FC3100080010024000127A003E
:100A7C0000093D002DE9F0410D46044610B9012056
:100A8C00BDE8F081444A136803F007038B4228D376
:100A9C0021688E0730D4CA0743D43F4A136803F049
:100AAC000703AB4265D822683C4D12F0040F6CD1A1
:100ABC00130706D56B68226923F4605343EAC2031B
:100ACC006B60FFF79DFF6B68354AC3F30313D35C70
:100ADC00D840344B1860344B1868FFF733FB0020B8
:100AEC00CEE7136823F007030B431360136803F07E
:100AFC0007038B42C3D1CBE7284B11F0040F1EBF69
:100B0C005A6842F4E0625A60080742BF5A6842F4DD
:100B1C0060525A605A68A06822F0F00202435A6090
:100B2C00B9E762681D4E012A33681AD113F4003FED
:100B3C00A5D0736841F2883823F003031343736024
:100B4C00FFF742FB07467368626803F00C03B3EBD4
:100B5C00820FA2D0FFF738FBC01B4045F3D903200E
:100B6C008EE7022A02D113F0007FE1E713F0020FA7
:100B7C00DEE7136823F007032B431360136803F0BD
:100B8C000703AB427FF47BAF8DE76B68E16823F41E
:100B9C00E0630B436B608BE70020024000100240C7
:100BAC0044410008BC00002004000020044B054A0E
:100BBC005B68C3F3C223D35C034A1068D840704708
:100BCC000010024054410008BC00002003682DE9CD
:100BDC00F341D907054620D5354CE369DA0032D408
:100BEC000127E36943F08053E361E36903F0805329
:100BFC000193019B2F4E3368DB0526D5236A13F432
:100C0C00407336D1236A6A6823F44073134323621A
:100C1C001FB1E36923F08053E3612868830706D58D
:100C2C00234AA968536823F440430B43536010F0E4
:100C3C0010001BD01E4AE9685368002023F480037F
:100C4C000B43536012E00027D4E7336843F48073FE
:100C5C003360FFF7B9FA80463368D805CED4FFF776
:100C6C00B3FAA0EB08006428F6D9032002B0BDE863
:100C7C00F0816A6802F440729A42C3D001200E4A95
:100C8C00236A1060002023F4407110602162D907A0
:100C9C00B8D5FFF799FA41F288380646236A9A07C5
:100CAC00B0D4FFF791FA801B4045F7D9DDE700BFC0
:100CBC0000100240007000404004424210B50C4C41
:100CCC000C48E16C89B201F0CFF80B4A13883F2B2A
:100CDC0083BF44F2A9735843084B01338ABF000BFE
:100CEC0013801880A36843F00103A36010BD00BFFC
:100CFC000024014008000020180100201A010020E7
:100D0C0010B50024204B8AB01C80204B20481C803E
:100D1C0001F0C5F8032340211E48CDE9021302A9B6
:100D2C000494FFF7EFFB022306934FF4004306A84D
:100D3C000893FFF74BFF184B9A6942F400729A61C3
:100D4C009B69164A03F400730193019B144B5C607E
:100D5C009A609A6842F008029A609A681207FCD46A
:100D6C009A6842F004029A600D4B9A6812F00402E1
:100D7C00FBD10421DA6019614FF48011D9621A6336
:100D8C0006225A630AB010BD1A0100201801002077
:100D9C000800002000080140001002400100800003
:100DAC0000240140002303707047027810B50346FD
:100DBC002AB3022A50D87B2903D07D2901D02F29B0
:100DCC0002D193F8040138B3012A4FF0000008BF98
:100DDC00022293F8024118BF93F8032184EA01041C
:100DEC0083F8024118BF541C83F8040119BF83F81F
:100DFC0003419B1859701A7018BF997010BD7B294C
:100E0C0008D1122180F80211012180F8042180F808
:100E1C00032101701046F1E77B2907D07D290FD003
:100E2C002F29EBD1012283F80421E7E701221A7064
:100E3C00122283F8040183F8022183F80301DDE711
:100E4C00187093F8020193F80321B0FA80F0013A7C
:100E5C0083F803214009D1E70020CFE7F0B57B24CC
:100E6C00A0421C7003D02F2801D07D2817D12F242D
:100E7C0002255C7058556C1C4FF02F0C154680F0F9
:100E8C00120089B2AE1AB6B2B14204F1010608D80A
:100E9C007D221855B6B2A01C9A5580B2F0BD012522
:100EAC00E8E72F78AE467B2F03D02F2F01D07D2F74
:100EBC0002D103F804C0B4B215F8017B661C1F55AF
:100ECC009EF800406040B4B2DCE7000038B5084C36
:100EDC00084B022120461D8800F0EAF8854201BF2C
:100EEC002288054B01201A8018BF002038BD00BF96
:100EFC00024C0008004C0008A0010020F0B5124D77
:100F0C0087B00221284600F0D3F801240746FFF7EA
:100F1C00F3F900230D4E01A902A80293CDE9046454
:100F2C00FFF7A4FA68B9BAB2002331462046FFF79E
:100F3C0029FA2A88002306492046FFF723FAFFF7EF
:100F4C00EDF907B0F0BD00BFA0010020004C000877
:100F5C00024C00080022024B1A705A70FFF7CEBFE9
:100F6C00A001002010B5002486B0FFF7C5F9094B8D
:100F7C0001A90493084B02A81B8802940593FFF760
:100F8C0075FA20B9FFF7CAF9012006B010BD20464A
:100F9C00FBE700BF00500008A8010020024B034AE9
:100FAC001360034A13607047005000081C000020B7
:100FBC00180000208028F8B504460D4620D810F003
:100FCC0001001DD1144E154A33681268013B2344AD
:100FDC009A4209D3FFF790F904F0FE042C44A54281
:100FEC0003D1FFF79BF90120F8BD2A880023316853
:100FFC000120FFF7C7F901282F4603D1FFF78EF91F
:10100C000020F1E733683A88198802359142F5D10E
:10101C0002333360E3E700BF1C000020A401002072
:10102C00802810B503460ED810F001000BD10749EB
:10103C00074C0A682468A24204D813449C4201D38A
:10104C0010460B6010BD0020FCE700BF180000200C
:10105C00A40100200A4B0B4A1B880B499B0213600E
:10106C00A3F5A0420A600949C2F38F220A800849FD
:10107C0003F100630A80074A013B1360704700BF0D
:10108C00E0F7FF1FAC0100209C010020A201002012
:10109C00A8010020A4010020044B81EA102133F8A0
:1010AC00113083EA002080B2704700BF343A000848
:1010BC0010B5024644180120A24205D1C0B280F4FA
:1010CC007F4080F0FF0010BD12F8011BFFF7E4FF1A
:1010DC00F2E70000044B986810F400601CBF98689D
:1010EC00C0F30030704700BF00080140064B5A683F
:1010FC0022F488225A605A6842F408225A604FF44B
:10110C00C0521A61704700BF0008014008B5FFF7D4
:10111C004FF800F08FFA01F0ABF8084A137801335E
:10112C00DBB2132B01D8137008BD00231370FFF72B
:10113C00C5FDBDE8084000F03FBD00BFB101002077
:10114C007047FEE7FEE7FEE7FEE770477047704723
:10115C0070477047704770477047704770477047CB
:10116C0070477047704770477047704770477047BB
:10117C0070477047704770477047704770477047AB
:10118C00704700F0E7BF7047704770477047704773
:10119C00704701F0FDBA7047704770477047000008
:1011AC00064B9A689B6812F4806F0CBF03200220D8
:1011BC001B0544BF0238C0B2704700BF000C014091
:1011CC00064B5A6822F488425A605A6842F4084224
:1011DC005A604FF440621A61704700BF000C014026
:1011EC00D0F8D831D0F8DC211344C0F8D8311B0C1E
:1011FC0083817047D0F8D831C289A3EB0243C0F881
:10120C00D8311B0C8381704710B58842BDF908405A
:10121C0005DAA0420FDCA14205DA1A460BE0A04227
:10122C0009DBA142F9DC9B1A241A5C43091A94FBD2
:10123C00F1F10A4412B2104610BD0000002170B545
:10124C000A4601254FF48034FF20124B124E83F8CE
:10125C00D511013118291A7083F8D45183F8D35160
:10126C00DA70DA815A70C3F8DC419A7083F82C007A
:10127C00C3F8E061C3F8D8219A8103F5F273E6D183
:10128C00064B1A70064B1C60064B1870064B1870F8
:10129C0070BD00BFD4010020582F0020802F0020EB
:1012AC00CC010020342F0020C601002070B504466C
:1012BC00FFF7C4FF00234FF4F270074A074D137079
:1012CC00074A1178DAB2914200D870BD00FB035284
:1012DC00E65C0133D670F5E7C4010020D401002090
:1012EC00C501002017282DE9F04702D90020BDE8E0
:1012FC00F0874FF4F27358430C25DFF854E04FF0AD
:10130C0023080EEB0007B94605FB01218A4201D1E7
:10131C000120ECE797F8D241661C96FBF8F308FB2A
:10132C00136397F8D161DBB29E42DFD005FB040654
:10133C00002412F804A004EB060C0134F4440C2C29
:10134C008CF82DA0F5D189F8D2310C32DEE700BF34
:10135C00D4010020002342F66050194610B5054C0C
:10136C001A1903F5F273834282F8D11182F8D21163
:10137C00F6D110BDD401002010B50446FFF7EAFFEA
:10138C00FFF75CFF034B14B101221A7010BD1C70E7
:10139C00FCE700BFC401002090F8D23190F8D101D5
:1013AC001B1ADBB258B20028BCBF233358B2C0B2F0
:1013BC00704710B50246FFF7EFFF68B1232192F892
:1013CC00D101441C94FBF1F301FB134382F8D1319E
:1013DC000C2303FB00202D3010BD022303702223AD
:1013EC004370082383701823C370704738B50323E8
:1013FC00014601224FF4F275054C037005FB0240C7
:10140C00FFF7CAFF88540132192AF7D138BD00BF43
:10141C00F0FFFF1F70B5134B1A78012A1FD9124B1E
:10142C001878D8B1114B4FF4F2751C780023104E7C
:10143C00D9B28C420BD80F4B1878013090FBF2F3D9
:10144C0002FB1300C0B200F0CFF9012006E001331B
:10145C0005FB036111F8110C0028E9D170BD0020C7
:10146C00FCE700BFD0010020542F0020C501002054
:10147C00D4010020C60100202DE9F04101220446D0
:10148C00A16080F8D4210B78A2B0032B0D4649D073
:10149C0007D8934221D0022B34D000232370E37061
:1014AC002DE0F02B6FD0F12B66D0042BF5D14978C1
:1014BC00AE78EF78AD88FFF79DFE474B0182B3F90C
:1014CC000030468287820A4600934FF47A71334685
:1014DC000020FFF799FEE07022E04988FFF78AFEB2
:1014EC00836890F8D5215B78C181C370009302A802
:1014FC000B463A4901F02CFA02A800F069FF22B021
:10150C00BDE8F081AE784978AD88FFF773FE0378BB
:10151C00012B07BF0182468206824182238AE37037
:10152C00E581ECE7EE884F7891F80280AD88C978B8
:10153C00FFF760FE642928BF642106FB01F36421D8
:10154C00B3FBF1F302789BB2012AA6EB03060CBFA6
:10155C008382C3824FF00003B6B2BFB21FFA88F881
:10156C0003BF0782A0F81280C682A0F810801CBFAF
:10157C00478286828361D1E74D88FFF73BFE18488E
:10158C0000F026FFCCE7174E80F8D3213378032BDD
:10159C0008D1A3685B78012B09D0022B14D000234F
:1015AC002370ACE7FFF736FF0028F2D0A7E72370D3
:1015BC003378032B03D1204600F016F89FE76168BF
:1015CC002046FFF759FF9AE723703378032BF2D0AC
:1015DC00A5F10C01F4E700BF442F0020343C0008B7
:1015EC00733C0008C4010020114B10B51B78044655
:1015FC00032B16D00378012B05D181680C31BDE883
:10160C001040FFF739BF022B08D1D0E901138B42F0
:10161C0096BF0123A3F10C010370F0E700232370A4
:10162C0010BDFFF7C6FE01460028F7D02046E6E7BE
:10163C00C40100202DE9F347624E3378022B40F0B1
:10164C00A18002B0BDE8F0874FF4F27101FB0AF102
:10165C004C192046FFF7C4FD4B5D013B012B46D8CE
:10166C00A3681B78032B30D00FD8012B13D0022B7F
:10167C0016D04FF4F273012103FB0AF3EA1882F837
:10168C00D4110021E954D17031E0042B6CD0F12B32
:10169C00EFD10023E370A289E3899A4227D305E0B6
:1016AC00A089E189638A884204D3E3702046FFF75E
:1016BC009BFF1CE000B2B4F910201BB2009009B2E1
:1016CC000020FFF7A1FDE07011E0A289E3899342AD
:1016DC00ECD9638B218BD31A9BB200293CD1A18A04
:1016EC00994204D801232383638A6283E370013710
:1016FC0098F800105FFA87FA5145A5D84FF4F270AC
:10170C004FF0FF0C4FF00A0E2F4B00FB01501C78D2
:10171C002E4B36781F882E4ADFF8C080824238D193
:10172C0000234FF4F2742B4E2B4FDFF8B0C0DAB21B
:10173C00914286D904FB035090F8D521052A09D88B
:10174C0090F8D40130B156F822001CF8022037F87A
:10175C00122002800133EAE7E18A9942C7D80023BC
:10176C0062832383238AC1E7A289E3899A429DD2AB
:10177C00B9F90010B4F91230B4F9102000914FF4FB
:10178C007A719DE70027DFF85880114DDFF85490EF
:10179C00AEE7D37874B1012E0CD17B43B3FBFEF3CF
:1017AC0092F8D59102F5F272B9F1FF0F18BF08F853
:1017BC000930B3E792F82C9003FB09F3B3FBFCF36D
:1017CC00EEE700BFC4010020C70100204A2F002013
:1017DC00D401002028000020923E0008612F002038
:1017EC00C5010020442F00202DE9F04F424B85B05D
:1017FC001B78044683423DD9404D2A78824239D029
:10180C00FFF71CFD0023FF2042F660523C4E991955
:10181C0003F5F273934281F8D501F8D1394B3A4A6A
:10182C001B682C7053F82430156800261D442B7B44
:10183C0005F11C0101EB830001EBC301029133495B
:10184C00D5F810B091F8008095F80DA0984528BFF8
:10185C0098462F4B914683F800802E4B3746C3F8A1
:10186C0000B02D4B264C83F800A001230190F1B25F
:10187C00884502D805B0BDE8F08F6770C4F8DCB1BC
:10188C00BBF1000F04D14FF480316370C4F8DC114C
:10189C00A77084F82CA0BAF1000F03D1FF21A3701C
:1018AC0084F82C10B0002918D1F81CC0D9F800E02D
:1018BC00019A0EEB0C012370616084F8D371104413
:1018CC00407884F8D5011EF80C00F0280ED1277052
:1018DC00E770029A04F5F274915D104A01F003016D
:1018EC0002EB410144F8041C0136C0E72046039387
:1018FC00FFF7C2FD039BECE7D0010020C6010020DE
:10190C00D4010020C80100204C2F0020C50100206C
:10191C00802F0020CC010020342F0020582F0020D5
:10192C002DE9F04FA3B08146884692461D460246EB
:10193C000B4602A84B4901F00BF802A800F048FD39
:10194C00FFF77CFC0322484B484F1A7000233B7076
:10195C00BAF1000F1FD06C782B78240404EB0364CD
:10196C00EB781C44AB7804EB03244FF0000B404E97
:10197C00404B5FFA8BF51B78AB420ED84FF4FA72E2
:10198C003D4BC3F800903D4B83F800803C4B1A80D4
:10199C0023B0BDE8F08F5446E7E74FF4F27169438A
:1019AC008B19184601910093FFF703FD002851D0C5
:1019BC004FF0010C0199009B01F806C00021C3F8FF
:1019CC00DC915970B9F1000F05D14FF4803183F8D7
:1019DC0001C0C3F8DC114FF4F27C00210CFB056C48
:1019EC008CF802108CF82C80B8F1000F05D1012175
:1019FC008CF80210FF218CF82C10BAF1000F1CD0BF
:101A0C000121A94021421EBF4FF4F2714FF0020C8C
:101A1C0069432C9A18BF06F801C002EB450C12F86A
:101A2C0015109CF801C00CEB012C4FF4F27101FB6A
:101A3C0005614FEA0C42C1F8D8210178F0290CD18C
:101A4C004FF4F2735D43002371197355CB703B78DF
:101A5C0001333B700BF1010B8AE701461846FFF787
:101A6C000BFDF4E78A3C0008C4010020802F002005
:101A7C00D4010020C5010020CC010020342F00200F
:101A8C00462F002010B5FFF78BFB0B4BA3F109027F
:101A9C00114613F8014D93425C70FAD100230122D8
:101AAC000870CC5C0133844218BF00220A2BF8D199
:101ABC000AB1024B187010BDBD0100203C2F002054
:101ACC0070B500F0B5FA2C4B2C4C18682C4B0168F7
:101ADC001B682C4D99422060296046D8FFF7E8FA24
:101AEC0022682B68D35A1B1A58425841226826493F
:101AFC00137996790B701BB1FF2B14BF034600238F
:101B0C001EB9D279022A00D123B900232B601F4BB6
:101B1C001B6823601E4B1F4A187810705A781E4B96
:101B2C001A7023681D4C1A7918330A701C490B6003
:101B3C00C82393FBF2F31B4A138000221A4B1A7032
:101B4C0001221A4B1A7090B9FFF73AFB0623237047
:101B5C00FFF726FB4FF48032154B1870154B012004
:101B6C00BDE870401A60FFF707BC0020BEE7FFF726
:101B7C0027FB1823EBE700BF240000204C2F00208C
:101B8C009C010020382F0020D001002020000020D4
:101B9C00A0010020512F0020C2010020C50100200F
:101BAC00C8010020562F0020C7010020C4010020CE
:101BBC003C2F00207C2F00206422914B2DE9F04F0C
:101BCC001B8885B0323393FBF2F38E4ADBB2137071
:101BDC008D4A117839B98D49097821B11BB18B42E5
:101BEC009CBF012313708A4A8A4D13888A4E013395
:101BFC009BB20A2B88BF002313802B78874C032BB6
:101C0C00874F6FD1874B1B883380002323703B8019
:101C1C002278DFF84882DFF84892002A7CD04FF413
:101C2C008033C8F80030FF2389F8003000218E463D
:101C3C007D4ADFF830B2D8F80080D2F800C099F8AD
:101C4C0000909BF80000794B039293F801A0784A1E
:101C5C00BAF1010F08BFD64693F802A004BFC3F82F
:101C6C00DC81C446BAF1010F08BF83F82C9003F550
:101C7C00F27304BF484651469342E6D1BEF1000FC1
:101C8C0002D0039BC3F800C009B18BF80000694A6D
:101C9C001378632B55D92B78022B01D1FFF710FF4A
:101CAC002878012850D1644B1B78FF2B00D10220DF
:101CBC0000F014FB00202A78604B012A18701D4696
:101CCC006ED15F4B1B78012B7ED12478002C72D106
:101CDC00B7F9000010F1690F3BDA05B0BDE8F04F21
:101CEC00FFF7ACBA00F01EFA207000F027FA227849
:101CFC00034638801AB14FF4FA73338088E75149A0
:101D0C005148B1F90010B0F9000000934FF47A7308
:101D1C00FFF77AFA30807BE70A2331884B48B1FB16
:101D2C00F3F3DBB250F8233009B2C8F80030104698
:101D3C000091FF234FF47A71FFF766FA89F80000DF
:101D4C0074E701331370ABE702280CBF03200420A7
:101D5C00AEE7692818DC3E4B21461E786FF0630312
:101D6C003C4D2F88CAB296421DD82046FFF73CFD49
:101D7C002B88354904FB03F204FB0334314B5F3AE7
:101D8C00693C0A801C800BE02B4B1B78FF2B02D18B
:101D9C002046FFF729FD01232B704FF4FA73338093
:101DAC0005B0BDE8F08F9842D8BF22463B441BB229
:101DBC0001311446D6E7204B1B78FF2BF0D105B030
:101DCC00BDE8F04FFFF710BD4FF69C721E4B1A800A
:101DDC0064221C4B1A80FFF755FE1F4B18781C4BC6
:101DEC001B78834298BF03F1FF30237898BFC0B2B1
:101DFC00002BE4D1B7F900306933E0DA6DE700BFAE
:101E0C001A010020602F0020C7010020C201002011
:101E1C004A2F0020C4010020442F0020BE010020C6
:101E2C00482F0020462F0020CC010020D401002098
:101E3C00342F0020C3010020C6010020542F0020A5
:101E4C00512F0020522F0020C0010020AC3C000874
:101E5C00D0010020562F00203C2F00207C2F00208A
:101E6C00502F0020342F00200289036830B533F83E
:101E7C001240C56823F812100389828801339BB283
:101E8C009A42038198BF00232944A1EB0401C1604D
:101E9C0098BF0381C08821FA00F080B230BD0023C6
:101EAC0030B51D4681889AB2914203F1010400D8E5
:101EBC0030BD02689BB222F813502346F2E70000B3
:101ECC001C4B86B09A6942F004029A619A6902F03E
:101EDC0004020092009A9A6942F008029A619A6987
:101EEC0002F008020192019A9A6942F010029A617A
:101EFC009A6902F010020292029A9A6942F0200248
:101F0C009A619A6902F020020392039A9A6942F04C
:101F1C0040029A619A6902F040020492049A9A690A
:101F2C0042F001029A619B6903F001030593059B42
:101F3C0006B070470010024010B590B0142200217A
:101F4C0001A800F0FDFC1422002108A800F0F8FC08
:101F5C0002244FF480330122CDE90D43CDE9062351
:101F6C004FF4E01306A80F93FEF7ACFB00B1FEE7AD
:101F7C000F23CDE901344FF4806303900590214683
:101F8C0001A80493FEF776FD00B1FEE710B010BD7A
:101F9C0008B5FEF7FBF8FFF7CFFFFFF791FF00F056
:101FAC00F9F9FFF757F800F0CBF91A4800F010FADE
:101FBC00002301221849194800F0CAFC174800F008
:101FCC0007FAFEF783FF00BB154800F001FAFEF795
:101FDC00C1FF042000F082F944F62066FFF786F872
:101FEC00FEF78EFE00F008F9FFF76AFD0D4C0E4D62
:101FFC0000F08AFB23680133B3422360F8D9002335
:10200C0023602B6801332B60F2E7084800F0E0F9FD
:10201C000320DFE7403E0008573E0008842F0020D5
:10202C006F3E0008DC000020E0000020833E00082A
:10203C00234B30B5DA6987B042F00102DA61DA6914
:10204C00022402F001020092009ADA69032542F0A0
:10205C000202DA61DB6902A903F002030193019B1E
:10206C008E23CDE9023400231648CDE90435FEF762
:10207C0049FA02A914480295FEF744FA4FF080423F
:10208C0042F20F71114BD1624FF4D040D96246F637
:10209C00680194629C629061D1619861D96141F24E
:1020AC00101111621962516941F0010151615969B4
:1020BC0041F00101596181211160196007B030BDF7
:1020CC000010024000080140000C014000040040D8
:1020DC000023C38003817047C28810B5531C8488C9
:1020EC009BB29C4298BF002304899C4217BF046892
:1020FC000020A154C38018BF012010BD0389C288E1
:10210C009A420DD00268D35C0B700389828801332C
:10211C009BB29A42038101D80023038101207047AE
:10212C0000207047014B1878704700BF0630002024
:10213C00014B1888704700BF0A300020044B1888E8
:10214C000523A0F2DC5090FBF3F000B2704700BF07
:10215C000A300020234A1369990725D5536B116A5D
:10216C009BB211F0020F204936D00A8840F276510A
:10217C009A4284BF03F1FF339BB29B1A6FF44872EF
:10218C009BB29A1892B28A4204D8184A1380002241
:10219C00174B1A80134A136A23F002031362114A75
:1021AC00136923F0020313610E4B1B69DB0712D575
:1021BC000F4A138801339BB2042B88BF052113806F
:1021CC008ABF1180002201220A4B1A70054A13693A
:1021DC0023F00103136170470B80136A43F0020371
:1021EC00DCE700BF00080040083000200A30002067
:1021FC000430002006300020194B2DE9F041DA693B
:10220C0086B042F00402DA61DB694FF0000803F09B
:10221C0004030193019B02274023032602A91148C2
:10222C00CDE90238CDE90476FEF76CF947230E4C64
:10223C000125A3624FF6FF73E36281234246A3613B
:10224C00394625621E202560FDF7D6FF1E20FEF7BD
:10225C0007F8064BE6601D7006B0BDE8F08100BFC4
:10226C000010024000080140000800400630002029
:10227C00144B30B51B78012B19D0134B1D884FF61E
:10228C00FF739D4213D0114A108898420FD0104A08
:10229C00104913880C7801339BB2138044B99D42CA
:1022AC0005D810200C4B5861012314800B7030BDE5
:1022BC009842FCD81020084B186100230B70138037
:1022CC00F5E700BF143000200E3000201230002043
:1022DC00103000200C30002000080140114B1A78FF
:1022EC0082421ED004281CD8187000230E4A4000CD
:1022FC0013800E4A13700E4B0E4A33F81010013037
:10230C00118033F810200C4B1A800C4B1B7843B9FE
:10231C0003F1804303F58433102209B11A6170472D
:10232C005A61704715300020103000200C3000200E
:10233C00924000080E300020123000201430002093
:10234C007FB5102601230024CDE9006303230B4D38
:10235C0069462846CDE90243FEF7D4F84FF6FF72E2
:10236C00074B1C70074B1C70074B1C70074B1A80DB
:10237C00074B1C806E6104B070BD00BF00080140AB
:10238C0014300020153000200C30002012300020BA
:10239C000E30002008B500F023FABDE808400148D3
:1023AC00FEF700BD1630002070B5084BC9B2FEF721
:1023BC0055FD00240546054EA3B29D4200D870BDC4
:1023CC00305D00F0CDF90134F6E700BF1B31002081
:1023DC0010B4037802466BB11346C830991A13F83F
:1023EC00014BC9B214B18342F8D1C821002010BCF2
:1023FC00FFF7DABF10BC704770B5837886B0022B3C
:10240C0011D0032B38D0012B40F08280BFF34F8FBB
:10241C004149424BCA6802F4E0621343CB60BFF3FC
:10242C004F8F00BFFDE7012306AC04F8143D3C4977
:10243C003C4B03F1604213F8010B02F619028B427C
:10244C00A054F6D1384B1B681A0E8DF811201A0CBB
:10245C008DF812201A0A8DF813208DF81430FEF71F
:10246C0039FE8DF81500012022461421ADF8160016
:10247C00FFF79AFF06B070BDFFF760FE0646FFF748
:10248C0057FE2A4B05461C880A23B4FBF3F402239F
:10249C008DF80430FFF746FE33128DF806302B0A08
:1024AC008DF80830224BE4B21B788DF805008DF8BE
:1024BC000B30204B8DF807601B788DF809508DF888
:1024CC000C301D4B8DF80A401B7812218DF80D3005
:1024DC001A4B01201B788DF80E30194B1B788DF898
:1024EC000F30184B1B788DF81030174B1B788DF86C
:1024FC001130164B1B681A0E8DF812201A0C8DF821
:10250C0013201A0A8DF814208DF8153001AAAFE7A4
:10251C000F48FFF75DFFADE700ED00E00400FA05A2
:10252C00F4F7FF1FE8F7FF1F9C010020442F002049
:10253C00602F0020C7010020D0010020C601002020
:10254C00802F0020342F0020C4010020382F0020C1
:10255C00A640000810B58378C0B0013B082B71D899
:10256C00DFE803F005191223284C62476B000123A6
:10257C008DF80030344B1B881A0A8DF801208DF829
:10258C0002306A46032129E0FEF708FD2F4B1B8819
:10259C00ADF8003006E0FEF7E5FC03238DF80100F2
:1025AC008DF800306A46022118E0011DC078FEF754
:1025BC0001FDF2E7C4782046FEF732FD18B903237B
:1025CC00ADF80030EEE702238DF8003000238DF8D3
:1025DC000140DAB2944206D86A46A11C0220FFF7E9
:1025EC00E3FE40B010BDC15C0DEB030291700133F2
:1025FC00EFE7FEF72FFDFFF763FAC7E7144BC2783E
:10260C001A7002795A70FEF779FCFFF759FA022119
:10261C000E4B08461B886A46ADF80030FFF7C4FE27
:10262C000C48FFF7D5FEDCE704238DF80030084B8F
:10263C001A785B788DF80120A1E7FEF793FCFEF782
:10264C0089FCD8E70448ECE7323A00080C32000861
:10265C00A0010020B8400008D740000810B58378CE
:10266C008AB0013B072B47D8DFE803F0040E162194
:10267C002B312929224BC0781B88ADF80C30FEF782
:10268C007BFE03AA022117E01D4B03301B88ADF81B
:10269C000C30FEF70BFEF4E70123421D0179C078E4
:1026AC00ADF80C30FEF71EFE8DF80D00E9E703A81F
:1026BC00FEF793FE042103AA0320FFF775FE0AB070
:1026CC0010BD03A8FEF792FE03AA1921F4E70C4BE8
:1026DC0004791B882404ADF80C30C378C17904EB61
:1026EC000364837940791C44002304EB002000939D
:1026FC001A46FFF715F9C4E70248FFF769FEDEE753
:10270C000E320008FD40000837B5134C134D0DF187
:10271C00070000F037F808B903B030BD9DF807107A
:10272C002046FEF742FB0028F1D06378022B07D03D
:10273C00032B09D0012B0BD12046FFF75DFEE6E7FA
:10274C002046FFF707FFE2E72046FFF787FFDEE7AB
:10275C002846FFF73DFEDAE716300020EE40000871
:10276C0008B501460548FFF7B7FC054AD36843F0A6
:10277C00805343F08003D36008BD00BF4C000020A1
:10278C000038014001460148FFF7B8BC400000206A
:10279C0013B5104C23689A0604D561680E48C9B26B
:1027AC00FFF79AFC23681B060AD5002302A901F83F
:1027BC00013D0A48FFF7A2FC20B19DF80730636089
:1027CC0002B010BDE36823F0805323F08003E36074
:1027DC00F6E700BF00380140400000204C0000200C
:1027EC002DE9F0433F4887B0FFF772FC3E48FFF7F6
:1027FC006FFC01274FF40072122303263B4C02A9F5
:10280C002046CDE902230025CDE90476FDF77AFEBA
:10281C004FF4806302A92046CDE90476CDE9023558
:10282C00FDF770FE324B04F540549A6942F4804235
:10283C009A619B6903F480430193019B0C23E36031
:10284C0025616561FEF7B2F90746FEF7AFF906465A
:10285C00FEF7ACF98046FEF7A9F98146FEF7A6F91A
:10286C0019234FF4E12C03FB00F25E4303FB09F93F
:10287C005F4303FB08F31F486421B9FBFCF9B2FB6F
:10288C00F0F2B6FBFCFCB3FBF0F301FB129201FB84
:10289C0013C312011B0132323233B2FBF1F2B3FB20
:1028AC00F1F3B7FBF0F702F00F025B0002EB07123B
:1028BC0003F4F0731344A360E3682A4643F4005313
:1028CC00E36006212520FDF797FC2520FDF7C8FCC9
:1028DC00E36843F0805343F02003E36007B0BDE8A6
:1028EC00F08300BF4C000020400000200008014095
:1028FC00001002400020BF0270B500250C4E0D4C9C
:10290C00A41BA410A54209D100F066FC00250A4EB8
:10291C000A4CA41BA410A54205D170BD56F8253055
:10292C0098470135EEE756F8253098470135F2E720
:10293C005C4100085C4100085C41000860410008F3
:10294C0003460244934200D1704703F8011BF9E798
:10295C000EB46FF0004100B59CB01DAB0290069018
:10296C00079104910848094953F8042B0591006814
:10297C0002A9019300F066F80022029B1A701CB0A9
:10298C005DF804EB03B07047580000200802FFFF0D
:10299C002DE9F0478E6882469E420C469046994639
:1029AC0037D88A8912F4906F31D0022325680969CF
:1029BC006F1A656905EB450595FBF3F509F1010304
:1029CC003B449D4238BF1D46530530D5294600F087
:1029DC0035FB064650B90C234FF0FF30CAF80030D7
:1029EC00A38943F04003A381BDE8F0873A462169EF
:1029FC0000F0B4FAA38923F4906343F08003A3811D
:102A0C0026613E4426604E466561ED1BA5604E4531
:102A1C0000D94E4632464146206800F0AAFAA36817
:102A2C0000209B1BA36023681E442660DCE72A461B
:102A3C0000F05EFB06460028E2D12169504600F00A
:102A4C00B1FAC8E72DE9F04F9DB003938B8980460E
:102A5C001D060C4616460FD50B696BB9402100F0CC
:102A6C00EDFA2060206128B90C23C8F800304FF033
:102A7C00FF30C7E0402363610023099320238DF8C6
:102A8C00293030234FF0010B8DF82A3037463D4664
:102A9C0015F8013B0BB1252B3ED1B7EB060A0BD039
:102AAC005346324621464046FFF772FF013000F094
:102ABC00A480099B534409933B78002B00F09D8024
:102ACC0000234FF0FF32CDE90523049307938DF8D3
:102ADC0053301A932F46052217F8011B4F4800F06C
:102AEC002FFA049BD0B9D90644BF20228DF853206D
:102AFC001A0744BF2B228DF853202A782A2A15D086
:102B0C002F4600200A25079A394611F8013B303B25
:102B1C00092B4DD9B8B10FE02F46B8E73F4A3D46D7
:102B2C00801A0BFA00F018430490D3E7039A111D96
:102B3C0012680391002A01DB079204E0524243F031
:102B4C000203079204933B782E2B0CD17B782A2B13
:102B5C0033D1039B02371A1D1B680392002BB8BF9D
:102B6C004FF0FF3305932E4D03223978284600F0A1
:102B7C00E7F938B14023401B03FA00F0049B0137FE
:102B8C00034304933978062226487E1C8DF82810BE
:102B9C0000F0D6F9002838D0234B13BB039B073326
:102BAC0023F0070308330393099B4B4409936DE708
:102BBC0005FB023201200F46A6E700230A25194621
:102BCC0001370593384610F8012B303A092A03D9FE
:102BDC00002BC8D00591C6E705FB01210123074650
:102BEC00F0E703AB00932246104B04A94046AFF329
:102BFC000080B0F1FF3F8146D6D1A3895B063FF53B
:102C0C0036AF09981DB0BDE8F08F03AB0093224698
:102C1C00064B04A9404600F081F8EAE71141000890
:102C2C00174100081B410008000000009D29000806
:102C3C002DE9F04791461F468A680B690646934278
:102C4C00B8BF1346C9F8003091F843200C46DDF8A4
:102C5C00208012B10133C9F800302368990642BFB5
:102C6C00D9F800300233C9F80030256815F0060594
:102C7C0007D104F1190AE368D9F800209B1AAB427A
:102C8C0029DC94F843302268003318BF01239206E4
:102C9C002ED404F1430239463046C047013021D0CE
:102CAC002368E56803F00603042B18BF0025D9F848
:102CBC0000204FF0000908BFAD1AA368226908BFB5
:102CCC0025EAE5759342C4BF9B1AED181A344D459D
:102CDC001AD1002008E00123524639463046C0473D
:102CEC00013003D14FF0FF30BDE8F0870135C2E76A
:102CFC003020E11881F843005A1C94F84510224406
:102D0C00023382F84310C4E7012322463946304689
:102D1C00C0470130E6D009F10109D8E72DE9F043AD
:102D2C0001F1430C0C46097E85B06E291746064608
:102D3C0098460C9A00F0B38022D8632936D00AD872
:102D4C00002900F0B980582900F0838004F1420575
:102D5C0084F8421032E0642901D06929F6D1206848
:102D6C001368050603F104012AD51B681160002BBA
:102D7C0003DA2D225B4284F843206F480A2239E0A3
:102D8C00732900F09D8008D86F2920D07029DDD1DF
:102D9C00236843F02003236003E0752917D07829BA
:102DAC00D4D17823654884F8453055E0136804F194
:102DBC004205191D1B68116084F8423001238CE018
:102DCC001B6810F0400F116018BF1BB2CFE71368DF
:102DDC002568181D1060280601D51B6802E06806DE
:102DEC00FBD51B886F2914BF0A22082252480021E8
:102DFC0084F843106568002DA560C0F295802168A9
:102E0C0021F004012160002B3DD1002D40F08E807B
:102E1C006546082A0BD12368DB0708D5236962684D
:102E2C009A42DEBF302305F8013C05F1FF35ACEBCF
:102E3C0005032361CDF800803B4603AA21463046AA
:102E4C00FFF7F6FE01304DD14FF0FF3005B0BDE875
:102E5C00F083394884F84510136821681D1D1B68E0
:102E6C0015600A060BD5CA0744BF41F0200121604A
:102E7C001BB9226822F0200222601022B7E74D060F
:102E8C0048BF9BB2EFE76546B3FBF2F102FB11338F
:102E9C00C35C05F8013D0B460029F5D1B9E7136871
:102EAC002568181D6169106028061B6801D519601A
:102EBC0002E06A06FBD51980002365462361B9E759
:102ECC001368191D11601D6862680021284600F006
:102EDC0037F808B1401B606063682361002384F8F5
:102EEC004330A7E723692A4639463046C0470130AC
:102EFC00AAD023689B0713D4E068039B9842B8BF01
:102F0C001846A3E701234A4639463046C0470130EC
:102F1C009AD00135E368039A9B1AAB42F2DCEBE7DB
:102F2C00002504F11909F5E7002BACD1037804F165
:102F3C00420584F842306CE7224100083341000816
:102F4C0010B5C9B202449042034601D1002303E0FC
:102F5C001C7801308C42F6D1184610BD10B5431EBA
:102F6C000A44914200D110BD11F8014B03F8014FF6
:102F7C00F7E7884210B501EB020307D8421E9942CD
:102F8C000AD011F8014B02F8014FF8E78342F5D94A
:102F9C008118D21AD34200D110BD13F8014D01F89B
:102FAC00014DF7E738B50546002943D051F8043CEC
:102FBC000C1F002BB8BFE41800F0D0F81E4A1368A1
:102FCC00104633B9636014602846BDE8384000F001
:102FDC00C6B8A3420BD921686218934201BF1A6884
:102FEC005B685218226063600460EDE713465A6810
:102FFC000AB1A242FAD919685818A0420BD120681C
:10300C000144581882421960DED11068526801449C
:10301C0019605A60D8E702D90C232B60D4E72068DA
:10302C0021188A4201BF1168526809182160626038
:10303C005C60C9E738BD00BFE400002070B5CD1C52
:10304C0025F0030508350C2D38BF0C25002D064640
:10305C0001DBA94203D90C233360002070BD00F0C2
:10306C007DF8214A1468214691B9204C23681BB97C
:10307C00304600F063F820602946304600F05EF8D8
:10308C00431C24D10C233046336000F068F8E4E78D
:10309C000B685B1B18D40B2B0FD90B60CC18CD50C5
:1030AC00304600F05CF804F10B00231D20F0070003
:1030BC00C31AD3D05A42E250D0E74B688C4216BFA9
:1030CC00636013600C46EBE70C464968CCE7C41C04
:1030DC0024F00304A04205D0211A304600F02EF84B
:1030EC000130CFD02560DBE7E4000020E8000020B1
:1030FC00F8B5074614460E4621B9BDE8F84011460E
:10310C00FFF79CBF22B9FFF74DFF25462846F8BDB7
:10311C0000F026F8A0420FD221463846FFF78EFF6A
:10312C0005460028F2D031462246FFF717FF3146FC
:10313C003846FFF737FFE9E73546E7E738B50023B0
:10314C00054C05460846236000F012F8431C02D1DA
:10315C00236803B12B6038BD2036002070477047C0
:10316C0051F8043C181F002BBCBF0B58C0187047FB
:10317C00044A05491368002B08BF0B46184410601D
:10318C0018467047EC000020283600200C480D49EA
:10319C000D4A002302E0D458C4500433C4188C42A6
:1031AC00F9D30A4A0A4C002301E013600432A2420C
:1031BC00FBD300F010F8FFF79FFBFEF7E9FE70471A
:1031CC0000000020C000002064410008C000002066
:1031DC0024360020FEE77047F8B500BFF8BC08BCE9
:1031EC009E467047F8B500BFF8BC08BC9E467047B9
:1031FC0002030405060708090A0B0C0D0E0F10102C
:10320C00030101012008000004000002000000007E
:10321C00000000000000000000000000280000007A
:10322C00D400000080010000EC0100004641490080
:10323C00000000000000000006FF0000000001007C
:10324C00000000000000000098020000B002000026
:10325C00D4020000F8020000340300007C030000DC
:10326C0000002000000121000002220000032300C6
:10327C0000042400000525004231204C4544203137
:10328C00000000004231204C454420320000000078
:10329C004231204C45442033000000004231204C88
:1032AC0045442034000000004231204C4544203578
:1032BC00000000004231204C454420360000000044
:1032CC000000053200000532000005320000053216
:1032DC0000000532000005324B6E69676874526954
:1032EC006465720006FF0000000001000000000091
:1032FC000000000094030000DC0300003C0400000C
:10330C00B40400002C05000098050000000020000B
:10331C00000121000002220000032300000424000D
:10332C00000525004231204C4544203100000000AE
:10333C004231204C45442032000000004231204CE8
:10334C0045442033000000004231204C45442034D9
:10335C00000000004231204C4544203500000000A4
:10336C004231204C4544203600000000000005325C
:10337C000000053200000532000005320000053265
:10338C00000005325247420000000000000000001F
:10339C0006FF00000000010000000000000000001B
:1033AC00E00500002806000070060000B8060000CA
:1033BC00000700004807000000002000000140004A
:1033CC000002800000032100000441000005810080
:1033DC0042312052474220312D33000042312052DD
:1033EC00474220342D360000000005320000053223
:1033FC0044696D6D657200000000000006FF00005E
:10340C000000010000000000000000009007000018
:10341C00A8070000C0070000D8070000F007000054
:10342C00080800000000200000012100000222001A
:10343C000003230000042400000525004231204C29
:10344C0045442031000000004231204C45442032DC
:10345C00000000004231204C4544203300000000A5
:10346C004231204C45442034000000004231204CB5
:10347C0045442035000000004231204C45442036A4
:10348C00000000000000053200000532000005328B
:10349C0000000532000005320000053202FFFF007B
:1034AC00D0070000FFFF0001F00100000000000049
:1034BC000000000503FF00322C019600FFFF000204
:1034CC000100B0040000000000000000F00100004A
:1034DC00000000000000000503FF0032F40196001C
:1034EC00FFFF000201008403000000000000000048
:1034FC00F001000000000000000000050200FF00C9
:10350C00C8000000FFFF000102FFFF002C010000BB
:10351C00FFFF000102FF0000C8000000FFFF0001D8
:10352C0001004C040000000000000000F00100004D
:10353C0000000000000000050100840300000000F2
:10354C00000000000200FF00C8000000FFFF0001A7
:10355C0002FFFF002C010000FFFF000102FF000032
:10356C00C8000000FFFF00010100C80000000000BF
:10357C0000000000F0010000000000000000000549
:10358C000400FF00D0070000FFFF0003F001000063
:10359C00000000000000000502FFFF0064000000B6
:1035AC00FFFF000102FF000090010000FFFF00017F
:1035BC000100200300000000000000000200F700E2
:1035CC0064000000FFFF000102FFFF0090010000FB
:1035DC00FFFF0001F00100000000000000000005EA
:1035EC000200F70064000000FFFF000102FFFF0073
:1035FC0064000000FFFF000102FF000090010000CA
:10360C00FFFF000101005802000000000000000054
:10361C000200F70064000000FFFF000102FFFF0042
:10362C0064000000FFFF000102FF00009001000099
:10363C00FFFF0001F0010000000000000000000589
:10364C000100640000000000000000000200F70010
:10365C0064000000FFFF000102FFFF006400000097
:10366C00FFFF000102FF000090010000FFFF0001BE
:10367C000100900100000000000000000200F700B3
:10368C0064000000FFFF000102FFFF006400000067
:10369C00FFFF000102FF000090010000FFFF00018E
:1036AC00010064000000000000000000F0010000B8
:1036BC0000000000000000050100C8000000000030
:1036CC00000000000200F70064000000FFFF000192
:1036DC0002FFFF0064000000FFFF000102FF00007A
:1036EC0090010000FFFF00010100C8000000000075
:1036FC00000000000200F70064000000FFFF000162
:10370C0002FFFF0064000000FFFF000102FF000049
:10371C0090010000FFFF00010100C8000000000044
:10372C0000000000F0010000000000000000000597
:10373C0001002C0100000000000000000200F70056
:10374C0064000000FFFF000102FFFF0064000000A6
:10375C00FFFF000102FF000090010000FFFF0001CD
:10376C000200F70064000000FFFF000102FFFF00F1
:10377C0064000000FFFF000102FF00009001000048
:10378C00FFFF000101002C01000000000000000000
:10379C00F001000000000000000000050100900195
:1037AC0000000000000000000200F70064000000B0
:1037BC00FFFF000102FFFF00F4010000FFFF00010A
:1037CC0002FF000090010000FFFF000101009001CA
:1037DC000000000000000000F001000000000000EC
:1037EC00000000050200FF00E803000000FF0001DC
:1037FC0002FFFF00E8030000FFFF000102FF0000D2
:10380C00E8030000FF0000010200FF00E8030000D5
:10381C0000FF000102FF0000E8030000FF000001B0
:10382C00F001000000000000000000050200000094
:10383C00E8030000000000010200FF00E8030000A4
:10384C0000FF000102FFFF00E8030000FFFF000182
:10385C0002FFFF00E8030000FFFF000102FF000071
:10386C00E8030000FF000001F00100000000000070
:10387C000000000502FF0000E8030000FF0000014B
:10388C0002000000E803000000000001020000003C
:10389C00E8030000000000010200FF00E803000044
:1038AC0000FF000102FFFF00E8030000FFFF000122
:1038BC00F001000000000000000000050300FF32D2
:1038CC00E8032C0100FF00020300FF32E803DE00D6
:1038DC00FFFF0002037F0032E803B400FF00000288
:1038EC000300FF32E803DE00FFFF000203FF00329B
:1038FC00E8032C01FF000002F001000000000000B2
:10390C000000000503000032E8032C010000000257
:10391C000300FF32E803DE0000FF0002037FFF32EA
:10392C00E803B400FFFF00020300FF32E803DE00EF
:10393C00FFFF000203FF0032E8032C01FF0000022E
:10394C00F0010000000000000000000503FF003241
:10395C00E8032C01FF00000203000032E803DE0044
:10396C000000000203000032E803B4000000000273
:10397C000300FF32E803DE00FFFF000203FFFF320B
:10398C00E8032C01FFFF0002F00100000000000022
:10399C00000000050400FF00E8030000FFFF000327
:1039AC00F0010000000000000000000504FF000012
:1039BC00E8030000FFFF0003F0010000000000001E
:1039CC00000000050400FF00E8030000FFFF0003F7
:1039DC00F0010000000000000000000504FF0000E2
:1039EC00E8030000FFFF0003F001000000000000EE
:1039FC00000000050400FF00E8030000FFFF0003C7
:103A0C00F0010000000000000000000504FF0000B1
:103A1C00E8030000FFFF0003F001000000000000BD
:103A2C000000000570FF8000000005800F800A0078
:103A3C001B801E0014001180338036003C0039803E
:103A4C0028002D8027802200638066006C0069802E
:103A5C0078007D8077807200500055805F805A001E
:103A6C004B804E0044004180C380C600CC00C9800E
:103A7C00D800DD80D780D200F000F580FF80FA00FE
:103A8C00EB80EE00E400E180A000A580AF80AA00EE
:103A9C00BB80BE00B400B180938096009C009980DE
:103AAC0088008D8087808200838186018C018981CA
:103ABC0098019D8197819201B001B581BF81BA01B6
:103ACC00AB81AE01A401A181E001E581EF81EA01A6
:103ADC00FB81FE01F401F181D381D601DC01D98196
:103AEC00C801CD81C781C201400145814F814A0186
:103AFC005B815E0154015181738176017C01798176
:103B0C0068016D8167816201238126012C01298165
:103B1C0038013D8137813201100115811F811A0155
:103B2C000B810E0104010181038306030C0309833D
:103B3C0018031D8317831203300335833F833A0325
:103B4C002B832E0324032183600365836F836A0315
:103B5C007B837E0374037183538356035C03598305
:103B6C0048034D8347834203C003C583CF83CA03F5
:103B7C00DB83DE03D403D183F383F603FC03F983E5
:103B8C00E803ED83E783E203A383A603AC03A983D5
:103B9C00B803BD83B783B203900395839F839A03C5
:103BAC008B838E0384038183800285828F828A02B9
:103BBC009B829E0294029182B382B602BC02B982AD
:103BCC00A802AD82A782A202E382E602EC02E9829D
:103BDC00F802FD82F782F202D002D582DF82DA028D
:103BEC00CB82CE02C402C182438246024C0249827D
:103BFC0058025D8257825202700275827F827A026D
:103C0C006B826E0264026182200225822F822A025C
:103C1C003B823E0234023182138216021C0219824C
:103C2C0008020D8207820202537461727420534F92
:103C3C0042204F626A656374202D204F7574707535
:103C4C00743A202575202D20204C69666574696DA9
:103C5C00653A202575202D204272696768746E655F
:103C6C0073733A202575004445425547204F424A0C
:103C7C0045435420455845435554454420005374FE
:103C8C006172742053696D202D2053706565643A00
:103C9C00202575202D2044696D3A202575000000E3
:103CAC009A190000CE1A0000121C0000651D0000BD
:103CBC00C71E00003A200000BF2100005623000060
:103CCC0001250000BF260000932800007C2A00007C
:103CDC007D2C0000962E0000C8300000143300002C
:103CEC007C35000002380000A53A0000693D000058
:103CFC004E4000005643000082460000D5490000AB
:103D0C00504D0000F4500000C5540000C458000091
:103D1C00F35C000054610000EA650000B86A000022
:103D2C00C06F000004750000887A00004E8000000F
:103D3C005A860000AF8C000050930000419A00009E
:103D4C0086A1000023A900001CB1000075B9000079
:103D5C0032C2000059CB0000EED40000F7DE0000A8
:103D6C007AE900007AF4000000000100110C010057
:103D7C00B3180100ED250100C833010049420100D0
:103D8C007951010061610100087201007983010021
:103D9C00BC950100DBA80100E1BC0100D8D10100F9
:103DAC00CCE70100CAFE0100DC1602001130020053
:103DBC00764A02001A6602000B83020059A1020027
:103DCC0015C1020050E202001C0503008B29030000
:103DDC00B24F0300A57703007BA1030049CD03007C
:103DEC0028FB0300302B04007B5D040025920400AB
:103DFC004BC904000A030500823F0500D37E050071
:103E0C0020C105008D060600404F0600609B060091
:103E1C0016EB06008E3E0700F59507007BF10700B8
:103E2C0051510800ABB50800BF1E0900C88C090031
:103E3C0000000A0078774C6564436F6E74726F6C87
:103E4C0020726573746172746564004669726D7773
:103E5C006172652056657273696F6E3A2025642E07
:103E6C00256400426F617264636F6E6669672045FA
:103E7C0072726F72212100426F617264636F6E66A1
:103E8C006967204F4B000000020004000700090086
:103E9C000B000E0010001300150018001A001D0076
:103EAC0020002200250028002B002E0031003400B9
:103EBC0037003A003D004100440047004B004E00E3
:103ECC005200550059005D006100640068006C00F0
:103EDC007000750079007D00810086008A008F00DB
:103EEC00940098009D00A200A700AC00B100B700A0
:103EFC00BC00C200C700CD00D300D800DE00E40037
:103F0C00EB00F100F700FE0004010B011201190196
:103F1C00200127012E0136013D0145014D015501BE
:103F2C005D0165016D0176017F01870190019A01A8
:103F3C00A301AC01B601C001CA01D401DE01E90143
:103F4C00F301FE010902140220022B023702430284
:103F5C004F025C0269027502830290029D02AB0261
:103F6C00B902C802D602E502F402030313032303C9
:103F7C003303430354036503760387039903AC03AC
:103F8C00BE03D103E403F7030B041F0434044904F8
:103F9C005E0473048904A004B604CD04E504FD0496
:103FAC0015052E05470561057B059505B005CC0566
:103FBC00E805040621063E065C067B069A06B90651
:103FCC00D906FA061B073D075F078207A507C90735
:103FDC00EE0713083A0860088808B008D8080209E8
:103FEC002C0957098209AF09DC090A0A390A680A3F
:103FFC00990ACA0AFC0A2F0B630B970BCD0B040C06
:10400C003B0C730CAD0CE70C230D5F0D9D0DDB0D04
:10401C001B0E5C0E9E0EE10E250F6A0FB10FF90FF1
:10402C0042108C10D81025117311C3111412661282
:10403C00BA120F136613BE1318147314D0142F1561
:10404C008F15F1155516BA1621178A17F417611822
:10405C00CF183F19B219261A9C1A141B8F1B0B1C54
:10406C008A1C0B1D8E1D131E9B1E251FB11F40206D
:10407C00D1206521FB2194223023CE236F241325DC
:10408C00BA25632610270000FFFFFFFF000008077A
:10409C00C800F401F401C8000807556E6B6E6F7709
:1040AC006E20636F6D6D616E640D0A00436F6E66FA
:1040BC00696775726174696F6E207570646174657F
:1040CC0020636F6E6669726D656400556E6B6E6F02
:1040DC00776E20636F6E66696720636F6D6D616EBE
:1040EC006400496E76616C696420444C43490D0A46
:1040FC0000556E6B6E6F776E204C454420636F6D70
:10410C006D616E6400232D302B2000686C4C0065B3
:10411C0066674546470030313233343536373839E7
:10412C00414243444546003031323334353637381A
:10413C0039616263646566000000000000000000E5
:10414C000102030406070809000000000102030431
:04415C003101000825
:044160000D01000845
:1041640001000000100000001C01002040000600B7
:10417400000000000000000000500008005000088B
:104184001032000800500008400400403C04004085
:1041940038040040400000403C000040380000402B
:1041A4002033002000020000000000002035002021
:1041B40000010000000000005C000020000000007E
:1041C40000000000000000000000000000000000EB
:1041D40000000000000000000000000000000000DB
:1041E40000000000000000000000000000000000CB
:1041F40000000000000000000000000000000000BB
:1042040000000000000000000000000000000000AA
:104214000000000000000000000000000024F40082
:040000050800319925
:00000001FF
