:020000040800F2
:10000000005000206D3000087111000873110008C5
:100010007511000877110008791100080000000030
:100020000000000000000000000000007D1100083A
:100030007B110008000000007F1100083D1100083E
:10004000811100088311000885110008871100083C
:10005000891100088B1100088D1100088F1100080C
:1000600091110008931100089511000897110008DC
:10007000991100089B1100089D1100089F110008AC
:10008000A1110008A3110008B5300008B530000820
:10009000B5300008B5300008B5300008A5110008DB
:1000A000A7110008A9110008AB110008AD11000844
:1000B000AF110008B1110008B3110008B711000812
:1000C000B9110008BB110008BD110008BF110008DC
:1000D000C1110008C3110008C7110008C9110008A8
:1000E000CB110008B5300008CD1100080000000059
:1000F0000000000000000000000000000000000000
:0C01000000000000000000005FF808F1A3
:10010C0010B5054C237833B9044B13B10448AFF345
:10011C0000800123237010BDC000002000000000EF
:10012C00B830000808B5034B1BB103490348AFF3C3
:10013C00008008BD00000000C4000020B83000089A
:10014C007047000038B50E4B054618784FF47A739B
:10015C00B3FBF0F30B4A1068B0FBF3F000F08EF831
:10016C00044658B90F2D09D8024629464FF0FF30E6
:10017C0000F042F82046044B1D6038BD0120FCE71E
:10018C0000000020BC00002004000020074A08B535
:10019C001368032043F01003136000F01BF80F20CA
:1001AC00FFF7D0FFFFF7CCFF002008BD0020024076
:1001BC00034A044B11681B780B441360704700BF53
:1001CC00F000002000000020014B1868704700BFB1
:1001DC00F0000020074A0002D36800F4E06023F42A
:1001EC00E0631B041B0C43F0BF6343F40033034375
:1001FC00D360704700ED00E0174B70B5DC684FF032
:10020C00FF36C4F30224C4F10705042D04F10403E2
:10021C0028BF0425062B98BF002406FA05F388BFD7
:10022C00033C21EA0303A34006FA04F422EA040483
:10023C00002843EA0403A8BF00F160404FEA03130F
:10024C00B8BF064ADBB2ABBF00F5614000F00F004F
:10025C0080F80033135470BD00ED00E014ED00E0A5
:10026C00002808DB0123420900F01F0003FA00F00C
:10027C00014B43F82200704700E100E00138B0F177
:10028C00807F0AD2F021064B064A586082F8231070
:10029C000020072298601A6070470120704700BF49
:1002AC0010E000E000ED00E0114AD36813F01003F9
:1002BC0005D01049CB6943F00203CB611023D268FF
:1002CC00500706D50B4943F00403CA6942F00102FA
:1002DC00CA61074AD169C90708D50648C16941F006
:1002EC000401C161D16921F00101D161D360704772
:1002FC0000200240F8000020064B186910F0800026
:10030C0007D0054A5A6002F188325A601869C0F366
:10031C00C01070470020024023016745034A0020AB
:10032C00136943F080031361704700BF0020024043
:10033C00F8B50646FFF748FF114C07462546E3681B
:10034C00D80712D4E368990644BF2023E360EB6816
:10035C00DA0606D4EB69DB0703D4E86810F0040076
:10036C0007D0FFF7A1FF012003E0731CE7D00EB903
:10037C000320F8BDFFF728FFC01BB042DFD9F7E719
:10038C00002002402DE9F84F244C1E46237E0546E2
:10039C00012B0F4690463FD001234CF25030237670
:1003AC00FFF7C6FFA0BB012D03D0022D0CBF022509
:1003BC0004254FF00009CB46DFF864A04FEA09137F
:1003CC00C3F12001A3F1200206FA01F128FA03F38C
:1003DC00C4F81CB00B4326FA02F21343DAF81020CF
:1003EC009BB242F00102CAF810204CF2503027F8B0
:1003FC001930FFF79DFFDAF8103023F00103CAF82B
:10040C00103028B909F101095FFA89F39D42D5D85A
:10041C0000232376BDE8F88F0220FBE7F8000020CC
:10042C00002002400022064BDA61064B1A6942F0AA
:10043C0004021A611A6942F040021A61704700BF47
:10044C00F8000020002002400022064BDA61064B27
:10045C001A6942F002021A6158611A6942F04002AC
:10046C001A617047F8000020002002402DE9F0418D
:10047C00224D07462B7E8846012B3DD00124036874
:10048C002C76022B4CF2503013D1FFF751FF20B1D8
:10049C00012000232B76BDE8F081FFF7C3FF4CF25F
:1004AC005030FFF745FF164A136923F0040313611C
:1004BC00EFE7FFF73DFF0028EAD14FF0FF33C8F814
:1004CC0000302046BE680E4CD7E9023203EB822383
:1004DC00B342DED93046FFF7B7FF4CF25030FFF78E
:1004EC0027FF236923F00203236110B1C8F80060D1
:1004FC00CFE706F58066E7E70220CCE7F80000209E
:10050C00002002402DE9F74F00242646654BDFF80A
:10051C00A4C1DFF8A4E10A6832FA06F502D103B0EF
:10052C00BDE8F08F4FF0010808FA06F802EA08025D
:10053C0090457ED14D68122D00F0A98000F282808A
:10054C00022D00F0A18076D8002D00F08880012DBE
:10055C0000F098804FF00F09FF2A93BF824606F1F6
:10056C008045083DD0F800B092BFB500D0F804B07B
:10057C00AD0009FA05F82BEA080804FA05F588BF5E
:10058C0000F1040A48EA0505CAF80050D1F804A0A5
:10059C001AF0805F4DD0444F26F00308BD6908F176
:1005AC00804845F00105BD61BD6908F5803805F04E
:1005BC000105019506F0030B019D4FEA8B0BD8F852
:1005CC00085009FA0BF925EA0909384DA84263D0FD
:1005DC0005F58065A84261D005F58065A8425FD01D
:1005EC0005F58065A8420CBF0325042505FA0BF51B
:1005FC0045EA0905C8F808501D681AF4803F14BF75
:10060C00154395431D605D681AF4003F14BF1543F4
:10061C0095435D609D681AF4801F14BF1543954384
:10062C009D60DD681AF4001F14BF2A4325EA0202FC
:10063C00DA6001366FE7032D22D0112D8AD1CC68F8
:10064C00043487E71A4FBD4209D012D8DFF86C90FA
:10065C004D4504D009F580394D457FF47BAF8C684E
:10066C00C4B1012C0CBFC0F81080C0F81480082451
:10067C0070E76545F3D07545F1D0DFF84490EBE7B2
:10068C00002467E7CC6865E7CC68083462E7CC687F
:10069C000C345FE704245DE70025A7E70125A5E7F7
:1006AC000225A3E7000401400010024000080140AD
:1006BC000000211000003110000032100000111059
:1006CC00000022102DE9F341054608B901203CE059
:1006DC000368DB0710D42B689F075DD42B681907C0
:1006EC0000F194802B685A0700F1BE80E86900285D
:1006FC0040F02C81002028E08F4C636803F00C0341
:10070C00042B07D0636803F00C03082B09D1636832
:10071C00DE0306D523689C03DDD56B68002BDAD18C
:10072C00D4E76B68B3F5803F12D1236843F4803370
:10073C002360FFF749FD064623689803CBD4FFF7E7
:10074C0043FD801B6428F7D9032002B0BDE8F0817B
:10075C009BB9236823F480332360236823F480231C
:10076C002360FFF731FD064623689903B3D5FFF7E5
:10077C002BFD801B6428F7D9E6E7B3F5A02F23687F
:10078C0003D143F480232360CFE723F48033236029
:10079C00236823F48023CBE7674C636813F00C0FBA
:1007AC0007D0636803F00C03082B10D16368DA03DD
:1007BC000DD423689B0702D52B69012B86D12368A6
:1007CC006A6923F0F80343EAC203236086E72A69C7
:1007DC005A4B6AB101221A60FFF7F6FC06462368F1
:1007EC009F07ECD4FFF7F0FC801B0228F7D9ABE78E
:1007FC001A60FFF7E9FC0646236898077FF56EAF91
:10080C00FFF7E2FC801B0228F6D99DE7AA694A4C47
:10081C004B4BDAB101221A60FFF7D6FC0646636A2D
:10082C009B070DD54FF4FA52464B1B68B3FBF2F302
:10083C00019300BF019B5A1E0192002BF9D151E785
:10084C00FFF7C2FC801B0228E9D97DE71A60FFF78D
:10085C00BBFC0646636A9F077FF544AFFFF7B4FC09
:10086C00801B0228F6D96FE7334CE369D80024D4F7
:10087C000127E36943F08053E361E36903F080539C
:10088C000093009B304E3368D90518D5EB68012BCB
:10089C0026D1236A43F001032362FFF795FC41F252
:1008AC0088368046236A9B073FD5002F3FF41EAF46
:1008BC00E36923F08053E36118E70027E2E733682C
:1008CC0043F480733360FFF77FFC80463368DA05AE
:1008DC00DCD4FFF779FCA0EB08006428F6D933E7E9
:1008EC00ABB9236A41F2883823F001032362236AEF
:1008FC0023F004032362FFF767FC0646236A98077C
:10090C00D3D5FFF761FC801B4045F7D91CE7052BBD
:10091C00236A03D143F004032362BAE723F00103F3
:10092C002362236A23F00403B6E7FFF74DFCA0EB28
:10093C000800B042B6D907E700100240000042425E
:10094C0080044242BC000020007000402A4B5A68D0
:10095C001C4602F00C02082A3DD00023274E022828
:10096C0033602BD1FFF730FC0746236899011FD465
:10097C002B6AB3F5803F05D16268A96822F4003276
:10098C000A436260696A62680B4322F4741213436F
:10099C00636001233360FFF717FC054623689A0157
:1009AC003FF5A8AEFFF710FC401B0228F6D9CBE6AA
:1009BC00FFF70AFCC01B0228D7D9C5E6FFF704FCD9
:1009CC00054623689B017FF595AEFFF7FDFB401BA9
:1009DC000228F6D9B8E601283FF4B7AE58682B6A5E
:1009EC0000F480329A427FF471AE6B6A00F470109E
:1009FC00C01A18BF0120A8E6001002406000424255
:100A0C0030B5184B87B002AC03F1100522461868BC
:100A1C005968083303C2AB421446F7D140F20123A4
:100A2C001149ADF804304B6803F00C02082A17D1B9
:100A3C00C3F3834206A80244DB0312F8102C0CD536
:100A4C004B680A48C3F34043504306AA134413F8B7
:100A5C00143CB0FBF3F007B030BD05485043FAE747
:100A6C000248F8E7D03000080010024000127A006B
:100A7C0000093D002DE9F0410D46044610B9012056
:100A8C00BDE8F081444A136803F007038B4228D376
:100A9C0021688E0730D4CA0743D43F4A136803F049
:100AAC000703AB4265D822683C4D12F0040F6CD1A1
:100ABC00130706D56B68226923F4605343EAC2031B
:100ACC006B60FFF79DFF6B68354AC3F30313D35C70
:100ADC00D840344B1860344B1868FFF733FB0020B8
:100AEC00CEE7136823F007030B431360136803F07E
:100AFC0007038B42C3D1CBE7284B11F0040F1EBF69
:100B0C005A6842F4E0625A60080742BF5A6842F4DD
:100B1C0060525A605A68A06822F0F00202435A6090
:100B2C00B9E762681D4E012A33681AD113F4003FED
:100B3C00A5D0736841F2883823F003031343736024
:100B4C00FFF742FB07467368626803F00C03B3EBD4
:100B5C00820FA2D0FFF738FBC01B4045F3D903200E
:100B6C008EE7022A02D113F0007FE1E713F0020FA7
:100B7C00DEE7136823F007032B431360136803F0BD
:100B8C000703AB427FF47BAF8DE76B68E16823F41E
:100B9C00E0630B436B608BE70020024000100240C7
:100BAC0028410008BC00002004000020044B054A2A
:100BBC005B68C3F3C223D35C034A1068D840704708
:100BCC000010024038410008BC00002003682DE9E9
:100BDC00F341D907054620D5354CE369DA0032D408
:100BEC000127E36943F08053E361E36903F0805329
:100BFC000193019B2F4E3368DB0526D5236A13F432
:100C0C00407336D1236A6A6823F44073134323621A
:100C1C001FB1E36923F08053E3612868830706D58D
:100C2C00234AA968536823F440430B43536010F0E4
:100C3C0010001BD01E4AE9685368002023F480037F
:100C4C000B43536012E00027D4E7336843F48073FE
:100C5C003360FFF7B9FA80463368D805CED4FFF776
:100C6C00B3FAA0EB08006428F6D9032002B0BDE863
:100C7C00F0816A6802F440729A42C3D001200E4A95
:100C8C00236A1060002023F4407110602162D907A0
:100C9C00B8D5FFF799FA41F288380646236A9A07C5
:100CAC00B0D4FFF791FA801B4045F7D9DDE700BFC0
:100CBC0000100240007000404004424210B50E4C3F
:100CCC000E48E16C89B201F01DF80D490D4A0B88F4
:100CDC003F2B8FBF44F6D70301330B8000238CBF0F
:100CEC0058431380A36888BF000B43F0010388BFEF
:100CFC001080A36010BD00BF00240140080000203C
:100D0C00180100201A01002010B50024204B8AB0D5
:100D1C001C80204B20481C8001F00FF8032340213D
:100D2C001E48CDE9021302A90494FFF7EBFB022342
:100D3C0006934FF4004306A80893FFF747FF184BA0
:100D4C009A6942F400729A619B69164A03F4007323
:100D5C000193019B144B5C609A609A6842F0080204
:100D6C009A609A681207FCD49A6842F004029A605E
:100D7C000D4B9A6812F00402FBD10421DA60196160
:100D8C004FF48011D9621A6306225A630AB010BD5F
:100D9C001A01002018010020080000200008014062
:100DAC000010024001008000002401400023037069
:100DBC007047027810B503462AB3022A50D87B2913
:100DCC0003D07D2901D02F2902D193F8040138B327
:100DDC00012A4FF0000008BF022293F8024118BF0D
:100DEC0093F8032184EA010483F8024118BF541CD0
:100DFC0083F8040119BF83F803419B1859701A70CA
:100E0C0018BF997010BD7B2908D1122180F80211EE
:100E1C00012180F8042180F8032101701046F1E7CC
:100E2C007B2907D07D290FD02F29EBD1012283F804
:100E3C000421E7E701221A70122283F8040183F8D7
:100E4C00022183F80301DDE7187093F8020193F88F
:100E5C000321B0FA80F0013A83F803214009D1E76D
:100E6C000020CFE7F0B57B24A0421C7003D02F28C4
:100E7C0001D07D2817D12F2402255C7058556C1C8D
:100E8C004FF02F0C154680F0120089B2AE1AB6B294
:100E9C00B14204F1010608D87D221855B6B2A01C47
:100EAC009A5580B2F0BD0125E8E72F78AE467B2F2E
:100EBC0003D02F2F01D07D2F02D103F804C0B4B280
:100ECC0015F8017B661C1F559EF800406040B4B2BB
:100EDC00DCE7000038B5084C084B012120461D8882
:100EEC0000F0EAF8854201BF2288054B01201A80E8
:100EFC0018BF002038BD00BF024C0008004C000891
:100F0C00A0010020F0B5124D87B00121284600F059
:100F1C00D3F801240746FFF7EFF900230D4E01A982
:100F2C0002A80293CDE90464FFF7A0FA68B9BAB23B
:100F3C00002331462046FFF725FA2A88002306496C
:100F4C002046FFF71FFAFFF7E9F907B0F0BD00BF25
:100F5C00A0010020004C0008024C00080022024BAB
:100F6C001A70FFF7CFBF00BFA001002010B50024FE
:100F7C0086B0FFF7C1F9094B01A90493084B02A8ED
:100F8C001B8802940593FFF771FA20B9FFF7C6F995
:100F9C00012006B010BD2046FBE700BF0050000842
:100FAC00A8010020024B034A1360034A13607047E8
:100FBC00005000081C000020180000208028F8B504
:100FCC0004460D4620D810F001001DD1144E154AD0
:100FDC0033681268013B23449A4209D3FFF78CF91A
:100FEC0004F0FE042C44A54203D1FFF797F901202D
:100FFC00F8BD2A88002331680120FFF7C3F90128C6
:10100C002F4603D1FFF78AF90020F1E733683A88BD
:10101C00198802359142F5D102333360E3E700BF02
:10102C001C000020A4010020802810B503460ED817
:10103C0010F001000BD10749074C0A682468A24242
:10104C0004D813449C4201D310460B6010BD002001
:10105C00FCE700BF18000020A40100200A4B0B4A3B
:10106C001B880B499B021360A3F5A0420A60094937
:10107C00C2F38F220A80084903F100630A80074AF1
:10108C00013B1360704700BFE0F7FF1FAC0100206D
:10109C009C010020A2010020A8010020A401002036
:1010AC00044B81EA102133F8113083EA002080B21E
:1010BC00704700BF0839000810B5024644180120DB
:1010CC00A24205D1C0B280F47F4080F0FF0010BD79
:1010DC0012F8011BFFF7E4FFF2E700000B4B9A68D4
:1010EC0012F4006F1A4602D09B68D90409D4936895
:1010FC001B0508D4936813F4805F0CBF00200220FA
:10110C007047012070470020704700BF0008014065
:10111C00064B5A6822F488225A605A6842F4082214
:10112C005A604FF4C0521A61704700BF000801406A
:10113C0008B5FFF73DF800F04FFA00F0E7FF084A5A
:10114C0013780133DBB2132B01D8137008BD0023C5
:10115C001370FFF7B3FDBDE8084000F09DBC00BF65
:10116C00B10100207047FEE7FEE7FEE7FEE770479F
:10117C0070477047704770477047704770477047AB
:10118C00704770477047704770477047704770479B
:10119C00704770477047704770477047704770478B
:1011AC0070477047704700F023BF70477047704717
:1011BC0070477047704701F055BA704770477047D9
:1011CC007047D0F8D831D0F8DC211344C0F8D831AE
:1011DC001B0C83817047D0F8D831C289A3EB024332
:1011EC00C0F8D8311B0C8381704710B58842BDF90B
:1011FC00084005DAA0420FDCA14205DA1A460BE0E2
:10120C00A04209DBA142F9DC9B1A241A5C43091A9F
:10121C0094FBF1F10A4412B2104610BD002130B516
:10122C000A4601254FF48034FF20104B83F8D5116A
:10123C00013118291A7083F8D45183F8D351DA701C
:10124C00DA815A70C3F8DC419A7083F82C00C3F829
:10125C00D8219A8103F5F273E8D1054B1A70054B2E
:10126C001C60054B1870054B187030BDCC0100206C
:10127C006C2F0020C40100202C2F0020BB0100206B
:10128C0038B50446FFF7CAFF0023074A074D137011
:10129C0042F66052601E591910F8014F03F5F273B3
:1012AC009342CC70F7D138BDBA010020CC0100209C
:1012BC0017282DE9F04302D90020BDE8F0834FF444
:1012CC00F27460434FF00C0E144D4FF023082C18A1
:1012DC0084F8E011AC4621460EFB0232934201D158
:1012EC000120EAE791F8D2516E1C96FBF8F408FB4A
:1012FC00146491F8D161E4B2A642DDD00EFB050670
:10130C00002513F80590AF19013567440C2D87F8AB
:10131C002D90F6D181F8D2410C33DFE7CC010020BF
:10132C00002342F66050194610B5054C1A1903F506
:10133C00F273834282F8D11182F8D211F6D110BD2A
:10134C00CC01002010B50446FFF7EAFFFFF766FF5B
:10135C00034B14B101221A7010BD1C70FCE700BFC6
:10136C00BA01002090F8D23190F8D1011B1ADBB2EF
:10137C0058B20028BCBF233358B2C0B2704710B566
:10138C000246FFF7EFFF68B1232192F8D101441C0C
:10139C0094FBF1F301FB134382F8D1310C2303FBD3
:1013AC0000202D3010BD022303702223437008232C
:1013BC0083701823C370704738B50323014601228C
:1013CC004FF4F275054C037005FB0240FFF7CAFFA2
:1013DC0088540132192AF7D138BD00BFE8FFFF1F2E
:1013EC0010B5104B1A78012A1AD90F4B1878B0B1D6
:1013FC00002342F660510D4C181990F8D30170B1CE
:10140C0003F5F2738B42F7D1094B1878013090FB3E
:10141C00F2F302FB1300C0B200F0A4F9012010BDDE
:10142C000020FCE7C8010020482F0020CC01002040
:10143C00BB0100202DE9F34104460D460127504E17
:10144C00A56084F8D4712B78032B41D007D8012BDD
:10145C0022D0022B2BD000232370E37024E0F02B3E
:10146C0069D0F12B5FD0042BF5D120466978AE788A
:10147C00EF78AD88FFF7AFFE424B2182B3F9003015
:10148C000A4600936682A78233464FF47A71002095
:10149C00FFF7ABFEE07019E020466988FFF79BFE72
:1014AC00A3685B78E181E37002B0BDE8F08120466F
:1014BC006978AE78AD88FFF78EFE2378012B07BFD5
:1014CC002182668226826182238AE370E581EBE7C2
:1014DC002046E978EE886F7895F80280AD88FFF7A2
:1014EC007AFE642928BF642106FB01F36421B3FB57
:1014FC00F1F322789BB2012AA6EB03060CBFA38260
:10150C00E3824FF00003B6B2BFB21FFA88F803BFF4
:10151C002782A4F81280E682A4F810801CBF678290
:10152C00A682A361D0E720466D88FFF754FE1648CB
:10153C0000F09CFECAE7337884F8D371032B08D1F2
:10154C00A3685B78012B09D0022B13D000232370E6
:10155C00AAE7FFF745FF0028F2D0A5E72370337800
:10156C00032B05D1204602B0BDE8F04100F00EB8C7
:10157C00656865E723703378032BF3D00C3D5FE788
:10158C00BA010020382F0020773C0008114B10B511
:10159C001B780446032B16D00378012B05D18168E8
:1015AC000C31BDE81040FFF745BF022B08D1D0E944
:1015BC0001138B4296BF0123A3F10C010370F0E7DA
:1015CC000023237010BDFFF7DAFE01460028F7D088
:1015DC002046E6E7BA0100205A4B2DE9F74F1A785E
:1015EC009846022A00F0908000274FF0010AB94675
:1015FC00DFF86CB1544DEC192046FFF7E2FDEB5DC2
:10160C002E46013B012B41D8A3681B78032B2BD012
:10161C000AD8012B0ED0022B11D084F8D4A106F8D5
:10162C00079084F8039031E0042B78D0F12BF4D19F
:10163C0084F80390A289E3899A4227D305E0A08914
:10164C00E189638A884204D3E3702046FFF79EFF4A
:10165C001CE000B2B4F910201BB2009009B20020BB
:10166C00FFF7C3FDE07011E0A289E3899342ECD946
:10167C00638B218BD31A9BB2002948D1A18A994242
:10168C0004D8638AA4F818A06283E37042F660530E
:10169C0007F5F2779F42ADD12C4B98F800201878C3
:1016AC002B4BDFF8B8C01C882F44EB78002A44D0B1
:1016BC0095F8E0114B431B0A00283ED0012A3CD17F
:1016CC00634395F8D5111B0AFF2905F5F27518BF70
:1016DC000CF80130AF42E8D1002342F660501D4CAB
:1016EC001D4D1E4FF11891F8D521052A08D891F8F7
:1016FC00D41129B154F82210BA5C35F812200A80A2
:10170C0003F5F2738342EDD103B0BDE8F08FE18AAB
:10171C009942BBD8A4F818906283238AB5E7A289B2
:10172C00E3899A4291D2BBF90010B4F91230B4F9A2
:10173C00102000914FF47A7191E795F82C104B43DF
:10174C00BFE700BFBA010020CC010020BC01002083
:10175C003E2F002028000020763E00084D2F002050
:10176C00382F00202DE9F84F3F4B04461A7882425F
:10177C0036D93E4D2978814232D0FF2A30D0FFF73E
:10178C004DFDFF26002342F66051394A981803F5A7
:10179C00F2738B4280F8D561F8D13649364B096823
:1017AC002C7051F824101D6898460D442E7B33493B
:1017BC00182E28BF182695F80D900E7055F810AFFE
:1017CC002F494FF0010BC1F800A02E49002781F8DA
:1017DC0000904FF4F27101FB0626254CA64201D174
:1017EC00BDE8F88F55F8042FD8F8003013F802C074
:1017FC009918886884F8D5C191F801C084F8E0C1C3
:10180C0091F802C084F8E1C1C97884F800B084F87A
:10181C00E2111918616084F8D3716770C4F8DCA107
:10182C00BAF1000F05D14FF4803284F801B0C4F83E
:10183C00DC214FF0000284F82C90A270B9F1000F5B
:10184C0005D14FF0FF0C84F802B084F82CC01B5C5F
:10185C00F02B04D12770E77004F5F274BEE7204634
:10186C00FFF7E8FDF8E700BFC8010020BB0100202E
:10187C00CC010020C0010020402F00206C2F002044
:10188C00C40100202C2F00202DE9F74F92461C4656
:10189C0081468846FFF7C2FC0322394B394F1A7038
:1018AC0000233B70BAF1000F62D0657823782D04C9
:1018BC0005EB0365E3781D44A37805EB0323019343
:1018CC0000264FF0010B35462F4C2046FFF757FDF5
:1018DC00014600283AD084F800B06570C4F8DC9159
:1018EC00B9F1000F05D14FF4803084F801B0C4F881
:1018FC00DC014FF0000384F82C80A370B8F1000FCA
:10190C0004D1FF2084F802B084F82C00BAF1000F47
:10191C0014D0019B0BFA06F0184218BF02200C9B46
:10192C0018BF207003EB460090F801C013F81600A6
:10193C000CEB002C4FEA0C43C4F8D8310878F02893
:10194C0019D12570E5703978013139700136182EAE
:10195C0004F5F274B9D14FF4FA720C4BC3F8009041
:10196C000B4B83F800800B4B1A8003B0BDE8F08F53
:10197C00CDF804A0A4E72046FFF75CFDE3E700BF29
:10198C00BA0100206C2F0020CC010020C4010020E3
:10199C002C2F00203A2F002070B500F097FA2C4B1A
:1019AC002C4C18682C4B01681B682C4E99422060FB
:1019BC00316034D92A4800F059FC00232168294DA4
:1019CC000A792A703BB1013AD2B2FD2A32D92648A3
:1019DC0000F04CFC0023254A1178254A1170002B8D
:1019EC0032D13360234B1B682360FF232B70236899
:1019FC00214A08331360C8232A78012093FBF2F3A1
:101A0C001E4A138000221E4B1A704FF48032BDE820
:101A1C0070401C4B18701C4B1A60FFF793BCFFF7FF
:101A2C004BFB22683368D35A834201D01748C2E774
:101A3C000123C3E78B79012B01D01548C8E7CB797B
:101A4C00012BC8D01348C3E723681B79CEE700BF2E
:101A5C0024000020402F00209C010020302F00206B
:101A6C00083B0008C8010020953B0008A00100209D
:101A7C00B801002020000020C00100204A2F0020C7
:101A8C00BC010020BA010020682F00204F3B000849
:101A9C00E63B00082D3C00086422824B2DE9F04FF8
:101AAC001B8885B0323393FBF2F37F4ADBB21370A1
:101ABC007E4A117839B97E49097821B11BB18B4224
:101ACC009CBF012313707B4A7B4C13887B4D0133E5
:101ADC009BB20A2B88BF002313802378784E032BEC
:101AEC00784F6BD1784B1B882B80002333703B8055
:101AFC003278DFF80482DFF80492002A78D04FF4B1
:101B0C008033C8F80030FF2389F8003000218E465E
:101B1C006E4ADFF8ECB1D8F80080D2F800C099F822
:101B2C0000909BF800006A4B039293F801A0694A5D
:101B3C00BAF1010F08BFD64693F802A004BFC3F850
:101B4C00DC81C446BAF1010F08BF83F82C9003F571
:101B5C00F27304BF484651469342E6D1BEF1000FE2
:101B6C0002D0039BC3F800C009B18BF800005A4A9D
:101B7C001378632B51D92378022B01D1FFF70CFF7B
:101B8C00207801284CD1554B1B78FF2B00D102201B
:101B9C0000F0F2FA00202278514B012A1870984676
:101BAC006BD13478002C73D1B7F9000010F1690FA8
:101BBC003BDA05B0BDE8F04FFFF730BB00F000FAA0
:101BCC00307000F009FA3278034638801AB14FF4BD
:101BDC00FA732B808CE743494348B1F90010B0F9F4
:101BEC00000000934FF47A73FFF7FFFA28807FE729
:101BFC000A2329883D48B1FBF3F3DBB250F82330BC
:101C0C0009B2C8F8003010460091FF234FF47A71E6
:101C1C00FFF7EBFA89F8000078E701331370AFE7B0
:101C2C0002280CBF03200420B2E7692818DC304BD3
:101C3C0021461E786FF063032E4D2F88CAB2964250
:101C4C001ED82046FFF78EFD2B88274904FB03F294
:101C5C0004FB0334234B5F3A693C0A801C800CE084
:101C6C001E4B1B78FF2B02D12046FFF77BFD012377
:101C7C0088F800304FF4FA732B8005B0BDE8F08F74
:101C8C009842D8BF22463B441BB201311446D5E7DB
:101C9C00124B1B78FF2BF0D105B0BDE8F04FFFF7CE
:101CAC0061BD00BF1A0100204C2F0020BC01002098
:101CBC00B80100203E2F0020BA010020382F002050
:101CCC00B40100203C2F00203A2F0020C40100203A
:101CDC00CC0100202C2F0020B9010020BB010020DA
:101CEC00482F0020462F0020B6010020903C000811
:101CFC00C80100204A2F0020682F0020442F00200C
:101D0C002C2F00200289036830B533F81240C568C7
:101D1C0023F812100389828801339BB29A42038103
:101D2C0098BF00232944A1EB0401C16098BF038133
:101D3C00C08821FA00F080B230BD002330B51D46BA
:101D4C0081889AB2914203F1010400D830BD026837
:101D5C009BB222F813502346F2E700001C4B86B0CE
:101D6C009A6942F004029A619A6902F004020092A4
:101D7C00009A9A6942F008029A619A6902F0080284
:101D8C000192019A9A6942F010029A619A6902F0E2
:101D9C0010020292029A9A6942F020029A619A69A0
:101DAC0002F020020392039A9A6942F040029A616F
:101DBC009A6902F040020492049A9A6942F0010274
:101DCC009A619B6903F001030593059B06B070476C
:101DDC000010024010B590B01422002101A800F0B0
:101DEC0019FD1422002108A800F014FD02244FF460
:101DFC0080330122CDE90D43CDE906234FF4E013E6
:101E0C0006A80F93FEF75EFC00B1FEE70F23CDE9A9
:101E1C0001344FF4806303900590214601A804938C
:101E2C00FEF728FE00B1FEE710B010BD08B5FEF7B6
:101E3C00ADF9FFF7CFFFFFF791FF00F0F9F9FFF7CE
:101E4C000DF900F0CBF91A4800F010FA0423012226
:101E5C001849194800F0E6FC174800F007FAFFF79C
:101E6C0039F800BB154800F001FAFFF777F80420A9
:101E7C0000F082F944F62066FFF74AF9FEF744FFBA
:101E8C0000F008F9FFF788FD0D4C0E4D00F0A6FB95
:101E9C0023680133B3422360F8D9002323602B68F5
:101EAC0001332B60F2E7084800F0E0F90320DFE78C
:101EBC00243E00083B3E0008702F0020533E0008D3
:101ECC00DC000020E0000020673E0008234B30B50A
:101EDC00DA6987B042F00102DA61DA69022402F0B1
:101EEC0001020092009ADA69032542F00202DA61DB
:101EFC00DB6902A903F002030193019B8E23CDE958
:101F0C00023400231648CDE90435FEF7FBFA02A98A
:101F1C0014480295FEF7F6FA4FF0804242F20F7128
:101F2C00114BD1624FF4D040D96246F668019462ED
:101F3C009C629061D1619861D96141F2101111627A
:101F4C001962516941F001015161596941F0010176
:101F5C00596181211160196007B030BD0010024039
:101F6C0000080140000C0140000400400023C38025
:101F7C0003817047C28810B5531C84889BB29C4265
:101F8C0098BF002304899C4217BF04680020A15409
:101F9C00C38018BF012010BD0389C2889A420DD09E
:101FAC000268D35C0B700389828801339BB29A421E
:101FBC00038101D800230381012070470020704762
:101FCC00014B1878704700BFF22F0020014B188886
:101FDC00704700BFF62F0020044B18880523A0F291
:101FEC00DC5090FBF3F000B2704700BFF62F0020DE
:101FFC00234A1369990725D5536B116A9BB211F0CB
:10200C00020F204936D00A8840F276519A4284BF9A
:10201C0003F1FF339BB29B1A6FF448729BB29A1870
:10202C0092B28A4204D8184A13800022174B1A80A5
:10203C00134A136A23F002031362114A136923F043
:10204C00020313610E4B1B69DB0712D50F4A138871
:10205C0001339BB2042B88BF052113808ABF1180EA
:10206C00002201220A4B1A70054A136923F001035E
:10207C00136170470B80136A43F00203DCE700BF67
:10208C0000080040F42F0020F62F0020F02F002035
:10209C00F22F0020194B2DE9F041DA6986B042F09D
:1020AC000402DA61DB694FF0000803F004030193CA
:1020BC00019B02274023032602A91148CDE90238CF
:1020CC00CDE90476FEF71EFA47230E4C0125A362D8
:1020DC004FF6FF73E36281234246A36139462562C2
:1020EC001E202560FEF788F81E20FEF7B9F8064B77
:1020FC00E6601D7006B0BDE8F08100BF0010024024
:10210C000008014000080040F22F0020144B30B5AD
:10211C001B78012B19D0134B1D884FF6FF739D4272
:10212C0013D0114A108898420FD0104A10491388C6
:10213C000C7801339BB2138044B99D4205D8102012
:10214C000C4B5861012314800B7030BD9842FCD8A5
:10215C001020084B186100230B701380F5E700BFAB
:10216C0000300020FA2F0020FE2F0020FC2F002032
:10217C00F82F002000080140114B1A7882421ED023
:10218C0004281CD8187000230E4A400013800E4AF5
:10219C0013700E4B0E4A33F810100130118033F8C7
:1021AC0010200C4B1A800C4B1B7843B903F1804365
:1021BC0003F58433102209B11A6170475A617047D4
:1021CC0001300020FC2F0020F82F00207640000862
:1021DC00FA2F0020FE2F0020003000207FB51026A3
:1021EC0001230024CDE9006303230B4D69462846E7
:1021FC00CDE90243FEF786F94FF6FF72074B1C70D0
:10220C00074B1C70074B1C70074B1A80074B1C802C
:10221C006E6104B070BD00BF0008014000300020AA
:10222C0001300020F82F0020FE2F0020FA2F002074
:10223C0008B500F03FFABDE808400148FEF7B6BD0E
:10224C000230002070B5084BC9B2FEF70BFE00241B
:10225C000546054EA3B29D4200D870BD305D00F01E
:10226C00E9F90134F6E700BF0731002010B4037818
:10227C0002466BB11346C830991A13F8014BC9B218
:10228C0014B18342F8D1C821002010BCFFF7DABF8B
:10229C0010BC704730B5837887B0022B11D0032B5C
:1022AC003AD0012B40F08F80BFF34F8F4849494BF8
:1022BC00CA6802F4E0621343CB60BFF34F8F00BFD8
:1022CC00FDE7012306AC04F8183D4349434B03F1E9
:1022DC00604213F8010B02F619028B42A054F6D19E
:1022EC003F4B1B681A0E8DF80D201A0C8DF80E2022
:1022FC001A0A8DF80F208DF81030FEF7EFFE40F221
:10230C000143224614218DF81100ADF81230012042
:10231C00FFF798FF07B030BDFFF75EFE0546FFF7ED
:10232C0055FE022304468DF80030FFF749FE2B12B0
:10233C008DF80230230A8DF804302A4B8DF80100F9
:10234C001B888DF803501A0A8DF80730264B8DF830
:10235C0006201B788DF805408DF80830234B17218B
:10236C001B788DF80930224B1B788DF80A30214BE5
:10237C001B788DF80B30204B1B788DF80C301F4BD5
:10238C001B788DF80D301E4B1B788DF80E301D4BC5
:10239C001B681A0E8DF80F201A0C8DF810208DF872
:1023AC0012301A0A184B8DF811201B681A0E8DF872
:1023BC0013201A0C8DF814201A0A8DF815208DF89C
:1023CC0016306A46A3E71148FFF750FFA2E700BF9B
:1023DC0000ED00E00400FA05F4F7FF1FE8F7FF1F1B
:1023EC009C010020382F00204C2F0020BC01002025
:1023FC00BA010020C8010020BB0100206C2F002076
:10240C002C2F0020C4010020302F00208A4000080F
:10241C0010B58378C0B0013B082B6ED8DFE803F011
:10242C00051620272C4C6047680001238DF80030DE
:10243C00334B03211B881A0A8DF801206A468DF84C
:10244C0002300220FFF7FEFE40B010BDFEF78EFDFD
:10245C0003238DF801008DF800306A460221F0E765
:10246C00FEF7A0FD274B1B88ADF80030F5E7011DEA
:10247C00C078FEF7A3FDEBE7C4782046FEF7D4FD49
:10248C0018B90323ADF80030E7E702238DF80030CC
:10249C0000238DF80140DAB2944202D86A46A11C9E
:1024AC00CFE7C15C0DEB030291700133F3E7FEF74C
:1024BC00D5FDFFF771FAD5E7C278134B1A70FEF70A
:1024CC0021FDFFF769FA02210E4B08461B886A466C
:1024DC00ADF80030FFF7B6FE0C48FFF7C7FEB3E7C8
:1024EC0004238DF80030084B1B788DF80130B4E7CD
:1024FC00FEF73CFDFEF732FDDBE70548EDE700BFDC
:10250C0006390008E0300008A00100209C400008BB
:10251C00BB40000810B583788AB0013B072B53D819
:10252C00DFE803F0040E16222C32472A284BC07821
:10253C001B88ADF80C30FEF705FF03AA022118E04A
:10254C00234B03301B88ADF80C30FEF799FEF4E7F3
:10255C0001234279ADF80C300179831DC078FEF768
:10256C00A7FE8DF80D00E8E703A8FEF71CFF042179
:10257C0003AA0320FFF766FE0AB010BD03A8FEF7FE
:10258C001BFF03AA1921F4E7114B04791B882404BF
:10259C00ADF80C30C378C17904EB036483794079CE
:1025AC001C44002304EB002000931A46FFF76CF93F
:1025BC00C3E7074B074A1B88ADF80C30C37803EB15
:1025CC0083035B001380B8E70348FFF74FFED3E7A4
:1025DC00E23000083A2F0020E140000837B5134CD8
:1025EC00134D0DF1070000F037F808B903B030BDFA
:1025FC009DF807102046FEF7DCFB0028F1D063782D
:10260C00022B07D0032B09D0012B0BD12046FFF74F
:10261C0041FEE6E72046FFF7FBFEE2E72046FFF728
:10262C0079FFDEE72846FFF721FEDAE702300020CB
:10263C00D240000808B501460548FFF79BFC054A47
:10264C00D36843F0805343F08003D36008BD00BFD0
:10265C004C0000200038014001460148FFF79CBCAB
:10266C004000002013B5104C23689A0604D561680D
:10267C000E48C9B2FFF77EFC23681B060AD500235F
:10268C0002A901F8013D0A48FFF786FC20B19DF82C
:10269C000730636002B010BDE36823F0805323F071
:1026AC008003E360F6E700BF0038014040000020E3
:1026BC004C0000202DE9F0433F4887B0FFF756FC53
:1026CC003E48FFF753FC01274FF4007212230326F8
:1026DC003B4C02A92046CDE902230025CDE9047626
:1026EC00FDF710FF4FF4806302A92046CDE9047674
:1026FC00CDE90235FDF706FF324B04F540549A69DB
:10270C0042F480429A619B6903F480430193019BDC
:10271C000C23E36025616561FEF748FA0746FEF776
:10272C0045FA0646FEF742FA8046FEF73FFA814626
:10273C00FEF73CFA19234FF4E12C03FB00F25E4345
:10274C0003FB09F95F4303FB08F31F486421B9FB42
:10275C00FCF9B2FBF0F2B6FBFCFCB3FBF0F301FBB3
:10276C00129201FB13C312011B0132323233B2FB42
:10277C00F1F2B3FBF1F3B7FBF0F702F00F025B00E1
:10278C0002EB071203F4F0731344A360E3682A46C8
:10279C0043F40053E36006212520FDF72DFD252091
:1027AC00FDF75EFDE36843F0805343F02003E360E4
:1027BC0007B0BDE8F08300BF4C00002040000020B3
:1027CC0000080140001002400020BF0270B5002537
:1027DC000C4E0D4CA41BA410A54209D100F066FCB4
:1027EC0000250A4E0A4CA41BA410A54205D170BDAD
:1027FC0056F8253098470135EEE756F825309847BE
:10280C000135F2E740410008404100084041000812
:10281C004441000803460244934200D1704703F838
:10282C00011BF9E70EB46FF0004100B59CB01DAB75
:10283C0002900690079104910848094953F8042B1B
:10284C000591006802A9019300F066F80022029B32
:10285C001A701CB05DF804EB03B0704758000020F0
:10286C000802FFFF2DE9F0478E6882469E420C4617
:10287C009046994637D88A8912F4906F31D002234A
:10288C00256809696F1A656905EB450595FBF3F534
:10289C0009F101033B449D4238BF1D46530530D519
:1028AC00294600F035FB064650B90C234FF0FF309B
:1028BC00CAF80030A38943F04003A381BDE8F08738
:1028CC003A46216900F0B4FAA38923F4906343F0EB
:1028DC008003A38126613E4426604E466561ED1B54
:1028EC00A5604E4500D94E4632464146206800F060
:1028FC00AAFAA36800209B1BA36023681E442660D1
:10290C00DCE72A4600F05EFB06460028E2D121698E
:10291C00504600F0B1FAC8E72DE9F04F9DB0039393
:10292C008B8980461D060C4616460FD50B696BB974
:10293C00402100F0EDFA2060206128B90C23C8F882
:10294C0000304FF0FF30C7E0402363610023099350
:10295C0020238DF8293030234FF0010B8DF82A30CD
:10296C0037463D4615F8013B0BB1252B3ED1B7EB55
:10297C00060A0BD05346324621464046FFF772FFFB
:10298C00013000F0A480099B534409933B78002B41
:10299C0000F09D8000234FF0FF32CDE90523049316
:1029AC0007938DF853301A932F46052217F8011B05
:1029BC004F4800F02FFA049BD0B9D90644BF20220F
:1029CC008DF853201A0744BF2B228DF853202A78F8
:1029DC002A2A15D02F4600200A25079A394611F8C5
:1029EC00013B303B092B4DD9B8B10FE02F46B8E76E
:1029FC003F4A3D46801A0BFA00F018430490D3E787
:102A0C00039A111D12680391002A01DB079204E05E
:102A1C00524243F00203079204933B782E2B0CD1C5
:102A2C007B782A2B33D1039B02371A1D1B68039228
:102A3C00002BB8BF4FF0FF3305932E4D032239788E
:102A4C00284600F0E7F938B14023401B03FA00F0A8
:102A5C00049B0137034304933978062226487E1CD5
:102A6C008DF8281000F0D6F9002838D0234B13BB72
:102A7C00039B073323F0070308330393099B4B4451
:102A8C0009936DE705FB023201200F46A6E70023F0
:102A9C000A25194601370593384610F8012B303AB0
:102AAC00092A03D9002BC8D00591C6E705FB0121E3
:102ABC0001230746F0E703AB00932246104B04A911
:102ACC004046AFF30080B0F1FF3F8146D6D1A389D9
:102ADC005B063FF536AF09981DB0BDE8F08F03AB30
:102AEC0000932246064B04A9404600F081F8EAE721
:102AFC00F5400008FB400008FF4000080000000003
:102B0C00712800082DE9F04791461F468A680B6929
:102B1C0006469342B8BF1346C9F8003091F84320DB
:102B2C000C46DDF8208012B10133C9F8003023685F
:102B3C00990642BFD9F800300233C9F80030256835
:102B4C0015F0060507D104F1190AE368D9F800203D
:102B5C009B1AAB4229DC94F843302268003318BF2F
:102B6C00012392062ED404F1430239463046C04765
:102B7C00013021D02368E56803F00603042B18BF4D
:102B8C000025D9F800204FF0000908BFAD1AA36842
:102B9C00226908BF25EAE5759342C4BF9B1AED185C
:102BAC001A344D451AD1002008E00123524639460B
:102BBC003046C047013003D14FF0FF30BDE8F087FD
:102BCC000135C2E73020E11881F843005A1C94F813
:102BDC0045102244023382F84310C4E701232246F5
:102BEC0039463046C0470130E6D009F10109D8E733
:102BFC002DE9F04301F1430C0C46097E85B06E299A
:102C0C001746064698460C9A00F0B38022D86329E2
:102C1C0036D00AD8002900F0B980582900F08380FA
:102C2C0004F1420584F8421032E0642901D069298C
:102C3C00F6D120681368050603F104012AD51B6838
:102C4C001160002B03DA2D225B4284F843206F487D
:102C5C000A2239E0732900F09D8008D86F2920D012
:102C6C007029DDD1236843F02003236003E075292C
:102C7C0017D07829D4D17823654884F8453055E0AD
:102C8C00136804F14205191D1B68116084F8423069
:102C9C0001238CE01B6810F0400F116018BF1BB2B1
:102CAC00CFE713682568181D1060280601D51B682E
:102CBC0002E06806FBD51B886F2914BF0A22082284
:102CCC005248002184F843106568002DA560C0F2BD
:102CDC009580216821F004012160002B3DD1002D4D
:102CEC0040F08E806546082A0BD12368DB0708D597
:102CFC00236962689A42DEBF302305F8013C05F176
:102D0C00FF35ACEB05032361CDF800803B4603AAED
:102D1C0021463046FFF7F6FE01304DD14FF0FF3023
:102D2C0005B0BDE8F083394884F845101368216874
:102D3C001D1D1B6815600A060BD5CA0744BF41F060
:102D4C00200121601BB9226822F02002226010228F
:102D5C00B7E74D0648BF9BB2EFE76546B3FBF2F110
:102D6C0002FB1133C35C05F8013D0B460029F5D17C
:102D7C00B9E713682568181D6169106028061B687F
:102D8C0001D5196002E06A06FBD51980002365465F
:102D9C002361B9E71368191D11601D686268002171
:102DAC00284600F037F808B1401B60606368236167
:102DBC00002384F84330A7E723692A463946304676
:102DCC00C0470130AAD023689B0713D4E068039B4B
:102DDC009842B8BF1846A3E701234A463946304605
:102DEC00C04701309AD00135E368039A9B1AAB4275
:102DFC00F2DCEBE7002504F11909F5E7002BACD167
:102E0C00037804F1420584F842306CE7064100086F
:102E1C001741000810B5C9B202449042034601D1D3
:102E2C00002303E01C7801308C42F6D1184610BD0B
:102E3C0010B5431E0A44914200D110BD11F8014B4C
:102E4C0003F8014FF7E7884210B501EB020307D8EE
:102E5C00421E99420AD011F8014B02F8014FF8E7D3
:102E6C008342F5D98118D21AD34200D110BD13F880
:102E7C00014D01F8014DF7E738B50546002943D05F
:102E8C0051F8043C0C1F002BB8BFE41800F0D0F82C
:102E9C001E4A1368104633B9636014602846BDE8B7
:102EAC00384000F0C6B8A3420BD92168621893428F
:102EBC0001BF1A685B685218226063600460EDE71A
:102ECC0013465A680AB1A242FAD919685818A04296
:102EDC000BD120680144581882421960DED1106869
:102EEC005268014419605A60D8E702D90C232B6050
:102EFC00D4E7206821188A4201BF1168526809186A
:102F0C00216062605C60C9E738BD00BFE40000204E
:102F1C0070B5CD1C25F0030508350C2D38BF0C25DC
:102F2C00002D064601DBA94203D90C233360002097
:102F3C0070BD00F07DF8214A1468214691B9204CEF
:102F4C0023681BB9304600F063F8206029463046F0
:102F5C0000F05EF8431C24D10C233046336000F0A3
:102F6C0068F8E4E70B685B1B18D40B2B0FD90B60CC
:102F7C00CC18CD50304600F05CF804F10B00231D4A
:102F8C0020F00700C31AD3D05A42E250D0E74B6866
:102F9C008C4216BF636013600C46EBE70C46496825
:102FAC00CCE7C41C24F00304A04205D0211A3046FF
:102FBC0000F02EF80130CFD02560DBE7E4000020D4
:102FCC00E8000020F8B5074614460E4621B9BDE8C6
:102FDC00F8401146FFF79CBF22B9FFF74DFF25467D
:102FEC002846F8BD00F026F8A0420FD221463846FC
:102FFC00FFF78EFF05460028F2D031462246FFF738
:10300C0017FF31463846FFF737FFE9E73546E7E764
:10301C0038B50023054C05460846236000F012F82D
:10302C00431C02D1236803B12B6038BD0C36002041
:10303C007047704751F8043C181F002BBCBF0B584D
:10304C00C0187047044A05491368002B08BF0B468B
:10305C001844106018467047EC0000201036002011
:10306C000C480D490D4A002302E0D458C4500433D7
:10307C00C4188C42F9D30A4A0A4C002301E01360AD
:10308C000432A242FBD300F010F8FFF79FFBFEF7CF
:10309C00CDFE704700000020C00000204841000811
:1030AC00C000002010360020FEE77047F8B500BFC6
:1030BC00F8BC08BC9E467047F8B500BFF8BC08BC0D
:0430CC009E46704765
:1030D00002030405060708090A0B0C0D0E0F101059
:1030E00003010101200800000400000200000000AC
:1030F00000000000000000000000000028000000A8
:10310000D400000080010000EC01000046414900AD
:10311000000000000000000006FF000000000100A9
:10312000000000000000000098020000B002000053
:10313000D4020000F8020000340300007C03000009
:1031400000002000000121000002220000032300F3
:1031500000042400000525004231204C4544203164
:10316000000000004231204C4544203200000000A5
:103170004231204C45442033000000004231204CB5
:1031800045442034000000004231204C45442035A5
:10319000000000004231204C454420360000000071
:1031A0000000053200000532000005320000053243
:1031B00000000532000005324B6E69676874526981
:1031C0006465720006FF00000000010000000000BE
:1031D0000000000094030000DC0300003C04000039
:1031E000B40400002C050000980500000000200039
:1031F000000121000002220000032300000424003B
:10320000000525004231204C4544203100000000DB
:103210004231204C45442032000000004231204C15
:1032200045442033000000004231204C4544203406
:10323000000000004231204C4544203500000000D1
:103240004231204C45442036000000000000053289
:103250000000053200000532000005320000053292
:10326000000005325247420000000000000000004C
:1032700006FF000000000100000000000000000048
:10328000E00500002806000070060000B8060000F7
:103290000007000048070000000020000001400077
:1032A00000028000000321000004410000058100AD
:1032B00042312052474220312D330000423120520A
:1032C000474220342D360000000005320000053250
:1032D00044696D6D657200000000000006FF00008B
:1032E0000000010000000000000000009007000046
:1032F000A8070000C0070000D8070000F007000082
:103300000808000000002000000121000002220047
:103310000003230000042400000525004231204C56
:1033200045442031000000004231204C4544203209
:10333000000000004231204C4544203300000000D2
:103340004231204C45442034000000004231204CE2
:1033500045442035000000004231204C45442036D1
:1033600000000000000005320000053200000532B8
:1033700000000532000005320000053202FFFF00A8
:10338000D0070000FFFF0001F00100000000000076
:103390000000000503FF00322C019600FFFF000231
:1033A0000100B0040000000000000000F001000077
:1033B000000000000000000503FF0032F401960049
:1033C000FFFF000201008403000000000000000075
:1033D000F001000000000000000000050200FF00F6
:1033E000C8000000FFFF000102FFFF002C010000E9
:1033F000FFFF000102FF0000C8000000FFFF000106
:1034000001004C040000000000000000F00100007A
:10341000000000000000000501008403000000001F
:10342000000000000200FF00C8000000FFFF0001D4
:1034300002FFFF002C010000FFFF000102FF00005F
:10344000C8000000FFFF00010100C80000000000EC
:1034500000000000F0010000000000000000000576
:103460000400FF00D0070000FFFF0003F001000090
:10347000000000000000000502FFFF0064000000E3
:10348000FFFF000102FF000090010000FFFF0001AC
:103490000100200300000000000000000200F7000F
:1034A00064000000FFFF000102FFFF009001000028
:1034B000FFFF0001F0010000000000000000000517
:1034C0000200F70064000000FFFF000102FFFF00A0
:1034D00064000000FFFF000102FF000090010000F7
:1034E000FFFF000101005802000000000000000082
:1034F0000200F70064000000FFFF000102FFFF0070
:1035000064000000FFFF000102FF000090010000C6
:10351000FFFF0001F00100000000000000000005B6
:103520000100640000000000000000000200F7003D
:1035300064000000FFFF000102FFFF0064000000C4
:10354000FFFF000102FF000090010000FFFF0001EB
:103550000100900100000000000000000200F700E0
:1035600064000000FFFF000102FFFF006400000094
:10357000FFFF000102FF000090010000FFFF0001BB
:10358000010064000000000000000000F0010000E5
:1035900000000000000000050100C800000000005D
:1035A000000000000200F70064000000FFFF0001BF
:1035B00002FFFF0064000000FFFF000102FF0000A7
:1035C00090010000FFFF00010100C80000000000A2
:1035D000000000000200F70064000000FFFF00018F
:1035E00002FFFF0064000000FFFF000102FF000077
:1035F00090010000FFFF00010100C8000000000072
:1036000000000000F00100000000000000000005C4
:1036100001002C0100000000000000000200F70083
:1036200064000000FFFF000102FFFF0064000000D3
:10363000FFFF000102FF000090010000FFFF0001FA
:103640000200F70064000000FFFF000102FFFF001E
:1036500064000000FFFF000102FF00009001000075
:10366000FFFF000101002C0100000000000000002D
:10367000F0010000000000000000000501009001C2
:1036800000000000000000000200F70064000000DD
:10369000FFFF000102FFFF00F4010000FFFF000137
:1036A00002FF000090010000FFFF000101009001F7
:1036B0000000000000000000F00100000000000019
:1036C000000000050200FF00E803000000FF000109
:1036D00002FFFF00E8030000FFFF000102FF0000FF
:1036E000E8030000FF0000010200FF00E803000003
:1036F00000FF000102FF0000E8030000FF000001DE
:10370000F0010000000000000000000502000000C1
:10371000E8030000000000010200FF00E8030000D1
:1037200000FF000102FFFF00E8030000FFFF0001AF
:1037300002FFFF00E8030000FFFF000102FF00009E
:10374000E8030000FF000001F0010000000000009D
:103750000000000502FF0000E8030000FF00000178
:1037600002000000E8030000000000010200000069
:10377000E8030000000000010200FF00E803000071
:1037800000FF000102FFFF00E8030000FFFF00014F
:10379000F001000000000000000000050300FF32FF
:1037A000E8032C0100FF00020300FF32E803DE0003
:1037B000FFFF0002037F0032E803B400FF000002B5
:1037C0000300FF32E803DE00FFFF000203FF0032C8
:1037D000E8032C01FF000002F001000000000000DF
:1037E0000000000503000032E8032C010000000285
:1037F0000300FF32E803DE0000FF0002037FFF3218
:10380000E803B400FFFF00020300FF32E803DE001C
:10381000FFFF000203FF0032E8032C01FF0000025B
:10382000F0010000000000000000000503FF00326E
:10383000E8032C01FF00000203000032E803DE0071
:103840000000000203000032E803B40000000002A0
:103850000300FF32E803DE00FFFF000203FFFF3238
:10386000E8032C01FFFF0002F0010000000000004F
:10387000000000050400FF00E8030000FFFF000354
:10388000F0010000000000000000000504FF00003F
:10389000E8030000FFFF0003F0010000000000004B
:1038A000000000050400FF00E8030000FFFF000324
:1038B000F0010000000000000000000504FF00000F
:1038C000E8030000FFFF0003F0010000000000001B
:1038D000000000050400FF00E8030000FFFF0003F4
:1038E000F0010000000000000000000504FF0000DF
:1038F000E8030000FFFF0003F001000000000000EB
:103900000000000570FF8000000005800F800A00A5
:103910001B801E0014001180338036003C0039806B
:1039200028002D8027802200638066006C0069805B
:1039300078007D8077807200500055805F805A004B
:103940004B804E0044004180C380C600CC00C9803B
:10395000D800DD80D780D200F000F580FF80FA002B
:10396000EB80EE00E400E180A000A580AF80AA001B
:10397000BB80BE00B400B180938096009C0099800B
:1039800088008D8087808200838186018C018981F7
:1039900098019D8197819201B001B581BF81BA01E3
:1039A000AB81AE01A401A181E001E581EF81EA01D3
:1039B000FB81FE01F401F181D381D601DC01D981C3
:1039C000C801CD81C781C201400145814F814A01B3
:1039D0005B815E0154015181738176017C017981A3
:1039E00068016D8167816201238126012C01298193
:1039F00038013D8137813201100115811F811A0183
:103A00000B810E0104010181038306030C0309836A
:103A100018031D8317831203300335833F833A0352
:103A20002B832E0324032183600365836F836A0342
:103A30007B837E0374037183538356035C03598332
:103A400048034D8347834203C003C583CF83CA0322
:103A5000DB83DE03D403D183F383F603FC03F98312
:103A6000E803ED83E783E203A383A603AC03A98302
:103A7000B803BD83B783B203900395839F839A03F2
:103A80008B838E0384038183800285828F828A02E6
:103A90009B829E0294029182B382B602BC02B982DA
:103AA000A802AD82A782A202E382E602EC02E982CA
:103AB000F802FD82F782F202D002D582DF82DA02BA
:103AC000CB82CE02C402C182438246024C024982AA
:103AD00058025D8257825202700275827F827A029A
:103AE0006B826E0264026182200225822F822A028A
:103AF0003B823E0234023182138216021C0219827A
:103B000008020D8207820202496E76616C696420A8
:103B1000636F6E66696775726174696F6E20736931
:103B20007A652064657465637465642E20537769D3
:103B3000746368696E6720746F206261636B75706F
:103B400020636F6E66696775726174696F6E004994
:103B50006E76616C696420636F6E66696775726109
:103B600074696F6E204352432064657465637465A5
:103B7000642E20537769746368696E6720746F20C0
:103B80006261636B757020636F6E666967757261E1
:103B900074696F6E00496E76616C696420616D6F47
:103BA000756E74206F66207365757175656E6365DB
:103BB0007320696E20636F6E6669677572617469E0
:103BC0006F6E2E20537769746368696E6720746F17
:103BD000206261636B757020636F6E6669677572D2
:103BE0006174696F6E00496E76616C696420636F01
:103BF0006E66696775726174696F6E20747970653D
:103C00002064657465637465642E205377697463FA
:103C100068696E6720746F206261636B75702063E2
:103C20006F6E66696775726174696F6E00496E7652
:103C3000616C696420636F6E66696775726174692F
:103C40006F6E2076657273696F6E2064657465634C
:103C50007465642E20537769746368696E67207495
:103C60006F206261636B757020636F6E6669677544
:103C7000726174696F6E004445425547204F424A55
:103C800045435420455845435554454400000000E1
:103C90009A190000CE1A0000121C0000651D0000D9
:103CA000C71E00003A200000BF210000562300007C
:103CB00001250000BF260000932800007C2A000098
:103CC0007D2C0000962E0000C83000001433000048
:103CD0007C35000002380000A53A0000693D000074
:103CE0004E4000005643000082460000D5490000C7
:103CF000504D0000F4500000C5540000C4580000AE
:103D0000F35C000054610000EA650000B86A00003E
:103D1000C06F000004750000887A00004E8000002B
:103D20005A860000AF8C000050930000419A0000BA
:103D300086A1000023A900001CB1000075B9000095
:103D400032C2000059CB0000EED40000F7DE0000C4
:103D50007AE900007AF4000000000100110C010073
:103D6000B3180100ED250100C833010049420100EC
:103D7000795101006161010008720100798301003D
:103D8000BC950100DBA80100E1BC0100D8D1010015
:103D9000CCE70100CAFE0100DC160200113002006F
:103DA000764A02001A6602000B83020059A1020043
:103DB00015C1020050E202001C0503008B2903001C
:103DC000B24F0300A57703007BA1030049CD030098
:103DD00028FB0300302B04007B5D040025920400C7
:103DE0004BC904000A030500823F0500D37E05008D
:103DF00020C105008D060600404F0600609B0600AE
:103E000016EB06008E3E0700F59507007BF10700D4
:103E100051510800ABB50800BF1E0900C88C09004D
:103E200000000A0078774C6564436F6E74726F6CA3
:103E300020726573746172746564004669726D778F
:103E40006172652056657273696F6E3A2025642E23
:103E5000256400426F617264636F6E666967204516
:103E600072726F72212100426F617264636F6E66BD
:103E70006967204F4B0000000200040007000900A2
:103E80000B000E0010001300150018001A001D0092
:103E900020002200250028002B002E0031003400D5
:103EA00037003A003D004100440047004B004E00FF
:103EB0005200550059005D006100640068006C000C
:103EC0007000750079007D00810086008A008F00F7
:103ED000940098009D00A200A700AC00B100B700BC
:103EE000BC00C200C700CD00D300D800DE00E40053
:103EF000EB00F100F700FE0004010B0112011901B3
:103F0000200127012E0136013D0145014D015501DA
:103F10005D0165016D0176017F01870190019A01C4
:103F2000A301AC01B601C001CA01D401DE01E9015F
:103F3000F301FE010902140220022B0237024302A0
:103F40004F025C0269027502830290029D02AB027D
:103F5000B902C802D602E502F402030313032303E5
:103F60003303430354036503760387039903AC03C8
:103F7000BE03D103E403F7030B041F043404490414
:103F80005E0473048904A004B604CD04E504FD04B2
:103F900015052E05470561057B059505B005CC0582
:103FA000E805040621063E065C067B069A06B9066D
:103FB000D906FA061B073D075F078207A507C90751
:103FC000EE0713083A0860088808B008D808020904
:103FD0002C0957098209AF09DC090A0A390A680A5B
:103FE000990ACA0AFC0A2F0B630B970BCD0B040C22
:103FF0003B0C730CAD0CE70C230D5F0D9D0DDB0D21
:104000001B0E5C0E9E0EE10E250F6A0FB10FF90F0D
:1040100042108C10D81025117311C311141266129E
:10402000BA120F136613BE1318147314D0142F157D
:104030008F15F1155516BA1621178A17F41761183E
:10404000CF183F19B219261A9C1A141B8F1B0B1C70
:104050008A1C0B1D8E1D131E9B1E251FB11F402089
:10406000D1206521FB2194223023CE236F241325F8
:10407000BA25632610270000FFFFFFFF0000080796
:10408000C800F401F401C8000807556E6B6E6F7725
:104090006E20636F6D6D616E640D0A00436F6E6616
:1040A000696775726174696F6E207570646174659B
:1040B00020636F6E6669726D656400556E6B6E6F1E
:1040C000776E20636F6E66696720636F6D6D616EDA
:1040D0006400496E76616C696420444C43490D0A62
:1040E00000556E6B6E6F776E204C454420636F6D8C
:1040F0006D616E6400232D302B2000686C4C0065D0
:104100006667454647003031323334353637383903
:104110004142434445460030313233343536373836
:104120003961626364656600000000000000000001
:10413000010203040607080900000000010203044D
:044140003101000841
:044144000D01000861
:1041480001000000100000001C01002040000600D3
:1041580000000000000000000050000800500008A7
:10416800E430000800500008400400403C040040CF
:1041780038040040400000403C0000403800004047
:104188000C33002000020000000000000C35002065
:1041980000010000000000005C000020000000009A
:1041A8000000000000000000000000000000000007
:1041B80000000000000000000000000000000000F7
:1041C80000000000000000000000000000000000E7
:1041D80000000000000000000000000000000000D7
:1041E80000000000000000000000000000000000C7
:1041F8000000000000000000000000000024F4009F
:040000050800306D52
:00000001FF
