:020000040800F2
:10000000005000203D050008E5040008E704000852
:10001000E9040008EB040008ED04000800000000FB
:10002000000000000000000000000000EF040008D5
:10003000F104000800000000F3040008E1040008D7
:100040008505000885050008850500088505000868
:100050008505000885050008850500088505000858
:100060008505000885050008850500088505000848
:100070008505000885050008850500088505000838
:100080008505000885050008850500088505000828
:100090008505000885050008850500088505000818
:1000A0008505000885050008850500088505000808
:1000B00085050008850500088505000885050008F8
:1000C00085050008850500088505000885050008E8
:1000D00085050008850500088505000885050008D8
:1000E000850500088505000885050008000000005A
:1000F0000000000000000000000000000000000000
:0C01000000000000000000005FF808F1A3
:10010C0010B5054C237833B9044B13B10448AFF345
:10011C0000800123237010BD0C00002000000000A3
:10012C008805000808B5034B1BB103490348AFF31E
:10013C00008008BD000000001000002088050008A9
:10014C007047000038B50E4B054618784FF47A739B
:10015C00B3FBF0F30B4A1068B0FBF3F000F092F82D
:10016C00044658B90F2D09D8024629464FF0FF30E6
:10017C0000F054F82046044B1D6038BD0120FCE70C
:10018C00000000200800002004000020074A08B5E9
:10019C001368032043F01003136000F02DF80F20B8
:1001AC00FFF7D0FFFFF7CCFF002008BD0020024076
:1001BC00034A044B11681B780B441360704700BF53
:1001CC002800002000000020014B1868704700BF79
:1001DC002800002038B50446FFF7F6FF0546631CDF
:1001EC001EBF044B1B78E418FFF7EEFF401BA04228
:1001FC00FAD338BD00000020074A0002D36800F48F
:10020C00E06023F4E0631B041B0C43F0BF6343F476
:10021C0000330343D360704700ED00E0174B70B51B
:10022C00DC684FF0FF36C4F30224C4F10705042D3B
:10023C0004F1040328BF0425062B98BF002406FAFA
:10024C0005F388BF033C21EA0303A34006FA04F438
:10025C0022EA0404002843EA0403A8BF00F160402A
:10026C004FEA0313B8BF064ADBB2ABBF00F56140DF
:10027C0000F00F0080F80033135470BD00ED00E067
:10028C0014ED00E00138B0F1807F0AD2F021064B6A
:10029C00064A586082F823100020072298601A60E2
:1002AC0070470120704700BF10E000E000ED00E057
:1002BC002DE9F74F00242646654BDFF8A4C1DFF883
:1002CC00A4E10A6832FA06F502D103B0BDE8F08F5A
:1002DC004FF0010808FA06F802EA080290457ED1B0
:1002EC004D68122D00F0A98000F28280022D00F0E2
:1002FC00A18076D8002D00F08880012D00F0988028
:10030C004FF00F09FF2A93BF824606F18045083D46
:10031C00D0F800B092BFB500D0F804B0AD0009FA27
:10032C0005F82BEA080804FA05F588BF00F1040A61
:10033C0048EA0505CAF80050D1F804A01AF0805F0D
:10034C004DD0444F26F00308BD6908F1804845F0B4
:10035C000105BD61BD6908F5803805F00105019501
:10036C0006F0030B019D4FEA8B0BD8F8085009FAE5
:10037C000BF925EA0909384DA84263D005F58065CB
:10038C00A84261D005F58065A8425FD005F580656F
:10039C00A8420CBF0325042505FA0BF545EA09050F
:1003AC00C8F808501D681AF4803F14BF15439543D4
:1003BC001D605D681AF4003F14BF154395435D60E2
:1003CC009D681AF4801F14BF154395439D60DD682A
:1003DC001AF4001F14BF2A4325EA0202DA60013620
:1003EC006FE7032D22D0112D8AD1CC68043487E716
:1003FC001A4FBD4209D012D8DFF86C904D4504D08D
:10040C0009F580394D457FF47BAF8C68C4B1012C64
:10041C000CBFC0F81080C0F81480082470E7654544
:10042C00F3D07545F1D0DFF84490EBE7002467E793
:10043C00CC6865E7CC68083462E7CC680C345FE7BD
:10044C0004245DE70025A7E70125A5E70225A3E71E
:10045C00000401400010024000080140000021107F
:10046C0000003110000032100000111000002210AA
:10047C00C36801EA030221EA030141EA0241016176
:10048C00704700007FB5FFF781FE104B00219A6981
:10049C000F4842F004029A619B69102203F0040396
:1004AC000193019B0123CDE902230323CDE904131E
:1004BC0002A9FFF7FDFE064C20461021FFF7D8FFDE
:1004CC004FF47A70FFF786FEF6E700BF001002408B
:1004DC0000080140FFF76CBE7047FEE7FEE7FEE741
:1004EC00FEE770477047704770B500250C4E0D4CF9
:1004FC00A41BA410A54209D100F040F800250A4E17
:10050C000A4CA41BA410A54205D170BD56F8253089
:10051C0098470135EEE756F8253098470135F2E754
:10052C00A0050008A0050008A0050008A405000807
:10053C000C480D490D4A002302E0D458C450043332
:10054C00C4188C42F9D30A4A0A4C002301E0136008
:10055C000432A242FBD300F010F8FFF7C5FFFFF7FF
:10056C0091FF7047000000200C000020A805000837
:10057C000C0000202C000020FEE77047F8B500BFEF
:10058C00F8BC08BC9E467047F8B500BFF8BC08BC68
:04059C009E467047C0
:0405A000310100081D
:0405A4000D0100083D
:0C05A80001000000100000000024F4001E
:040000050800053DAD
:00000001FF
