:0C800000F8B500BFF8BC08BC9E467047F5
:10800C0008B50021044603F057F9044B1868C36BFC
:10801C0003B19847204603F01AF800BFE0C20000F5
:10802C0008B503F015F800214FF0006002F096F946
:10803C004FF4407002F05CF94FF47A72254BF0214A
:10804C001B68B3FBF2F3244A013B5360234B83F8C8
:10805C002310002393600723136000F013FE00F03D
:10806C0001FC01F0CDFE00F011FA1D4801F006FFF5
:10807C0000F022F950BB1B4801F000FF00F064F93E
:10808C00194B1B7813B1194801F0F8FE00F022FAD5
:10809C0000F09AF800F0D2FD01F0C6FC144C154E1D
:1080AC00154D02F0F7F800F007FD01F02BFE00F083
:1080BC0081FB23680133B3422360F2D90021288865
:1080CC00216001F093FD01F0D9FEEAE70B4801F0C5
:1080DC00D5FED5E7DCC2000010E000E000ED00E0CA
:1080EC00F8BE000005BF0000D002020028BF00004F
:1080FC00D8C701009F860100B2CB010019BF000058
:10810C00024B13B1024803F04BB97047000000005A
:10811C00B9B3000010B5054C237833B9044B13B137
:10812C000448AFF300800123237010BDBCC70100CD
:10813C0000000000ECC2000008B5034B1BB1034962
:10814C000348AFF3008008BD00000000C0C7010069
:10815C00ECC20000154B002B08BF134B9D46A3F53A
:10816C00803A00218B460F461348144A121A03F02A
:10817C0059F80F4B002B00D098470E4B002B00D01A
:10818C0098470020002104000D000D48002802D063
:10819C000C4803F005F903F021F820002900FFF743
:1081AC003FFFFFF72DFF00BF00000800000000009C
:1081BC000000000000000000BCC70100F802020033
:1081CC00ADB30000B9B3000070B54023002488B0F3
:1081DC0001A92F48ADF804308DF8074002F07CFA65
:1081EC004FF4804002F0CCFA01214FF4007002F001
:1081FC0013FB284802F0BCF84FF460230394CDE93C
:10820C0005348DF810408DF81140012403A9214844
:10821C008DF81C4002F0DCF80723224606211D488D
:10822C0002F01EF921461B4802F0F6F8194802F03C
:10823C0005F9184D284602F006F90028FAD1154820
:10824C0002F005F9134E304602F006F904460028F8
:10825C00F9D12B68012223F002034FF408712B6033
:10826C000C4802F0E2F840F21253ADF8083001234A
:10827C0002A88DF80B308DF80A4002F043F8064B3B
:10828C0006481C80064B1C8001F075FC08B070BDC4
:10829C00000801400024014034CB010000C3010060
:1082AC0032CA010072B671B602F09AB908B502F082
:1082BC00A3F961B662B608BD0A4B10B514210A4881
:1082CC001C8800F031FD844209D1074B0749084A4C
:1082DC001888585202339342FAD1012010BD002065
:1082EC00FCE700BF00800008028000083A4B01F850
:1082FC001680000870B514210F4800F015FD0446D7
:10830C00FFF7D0FFFFF7CEFF352002F07DF90B48C9
:10831C0002F0A6F92146094802F0C2F9074C084EB2
:10832C00084D0234315B204602F0BAF9AC42F8D168
:10833C00BDE87040FFF7BABF3CCB010000800008DD
:10834C003A4B01F81480000851210E4B0022997110
:10835C000221D97123216FF00A00997003211A7040
:10836C005A70D970187159711A725A729A72DA72EB
:10837C001A735A739A73DA731A745A749A74DA7485
:10838C00FFF7B8BF3CCB010038B52124FFF78AFFBB
:10839C00FFF788FF352002F037F90D4B1D8821358A
:1083AC00ADB2AC4206D3352002F02EF9FFF77EFFBA
:1083BC00012009E004F50030800202F051F9042894
:1083CC0003D0FFF773FF002038BD0134E4B2E8E7B7
:1083DC0058CB0100024B034A1360034A13607047E9
:1083EC000084000814C3010010C301008028F8B5F4
:1083FC0004460D4621D810F001001ED1144E154A2A
:10840C0033681268013B23449A420CD3FFF74AFFAE
:10841C00352002F0F9F804F0FE042C44A54203D1F7
:10842C00FFF744FF0120F8BD2988306802F038F9C5
:10843C0004282F4603D0FFF739FF0020F3E73368F9
:10844C003A88198802359142F5D102333360E5E759
:10845C0014C3010054CB0100802810B503460ED87C
:10846C0010F001000BD10749074C0A682468A2429E
:10847C0004D813449C4201D310460B6010BD00205D
:10848C00FCE700BF10C3010054CB01000A4B0B4AA0
:10849C001B880B499B021360A3F504420A6009492F
:1084AC00C2F38F220A80084903F100630A80074A4D
:1084BC00013B1360704700BFE0F7FF1F5CCB01006E
:1084CC0038CB010050CB010058CB010054CB01003C
:1084DC00042070474FF4605307B5ADF80430032304
:1084EC008DF80630482301A903488DF8073002F0B7
:1084FC00F3F803B05DF804FB00080140064B9A68E2
:10850C009B6812F4006F0CBF032002205B0544BF74
:10851C000238C0B2704700BF000C01404FF44063FA
:10852C0007B5ADF8043048238DF80730032301A9B3
:10853C0003488DF8063002F0CFF803B05DF804FB69
:10854C00000C0140012130B5084689B002F070F9E9
:10855C000121022002F06CF903248E2318256946B0
:10856C002748ADF800308DF802408DF8035002F02A
:10857C00B3F869462348ADF800408DF802408DF8F9
:10858C00035002F0A9F8022242F20F731E4C01A90B
:10859C004FF08040CDE9012302F0C4FA01A9204636
:1085AC0002F0C0FA194B04A9049300234FF0804049
:1085BC00ADF81630ADF8183002F0FEFA04A94FF001
:1085CC00804002F039FB04A94FF0804002F072FBAE
:1085DC0004A9204602F0F0FA04A9204602F02CFB74
:1085EC0004A9204602F066FB01214FF0804002F006
:1085FC0095FB0121204602F091FB09B030BD00BF74
:10860C0000080140000C0140000400406000010023
:10861C00044A138813B1013B13807047024A13704C
:10862C00704700BFB4CB0100BFCB0100014B1878E1
:10863C00704700BF68CB0100014B1878704700BF32
:10864C00BFCB0100014BB3F90000704760CB0100B8
:10865C00014B1888704700BFB6CB01000A490B4B81
:10866C0048881B881A1A8B88C9888B4203D9002A20
:10867C0003DD181A02E0002AFBDD401A6423534381
:10868C0093FBF0F000B270473CCB0100B6CB01007D
:10869C0000220B4B1A700B4B1A829A844FF6FF7206
:1086AC009A851A8C22F002021204120C1A849A89EE
:1086BC0042F002029A819A8942F001029A81704733
:1086CC00BECB01000008004070B5274E88B0304684
:1086DC0002F044F9254801F009FF4023ADF80030C1
:1086EC0003238DF802302823694621488DF8033086
:1086FC0001F0F2FF0121042002F09AF847224FF614
:10870C00FF7302A93046CDE9022302F00BFA0121D6
:10871C00304602F003FB0024012540F21E2301A881
:10872C00ADF804308DF806408DF8075001F0EAFDE5
:10873C00022305A93046ADF81C30CDE9054502F001
:10874C0025FB0C4B34821D700B4B1D700B4B1C808E
:10875C000B4B1C800B4B1C800B4B1D700B4B1C8054
:10876C00FFF796FF08B070BD0008004058000240AB
:10877C00000C014068CB0100BFCB010066CB0100AF
:10878C00B4CB0100B6CB010069CB010060CB01007A
:10879C0008B1FFF73DBF054A1388092B87BF01229B
:1087AC00034B0133138088BF1A707047B4CB0100A0
:1087BC00BFCB010008B5194B194A9B68107803F41C
:1087CC000061C3F3C02398421FD01370154A164B97
:1087DC0009B3918C1B8840F2BA22C91A6FF4FA7350
:1087EC0089B2CB189BB2934210D8FFF711FF0F48F8
:1087FC0001F0A6F90E4B1880A0F2F7236420584321
:10880C00D22390FBF3F00B4B188008BD0020BDE881
:10881C000840FFF7BDBF928C1A80F6E7000C0140B0
:10882C0069CB01000008004070CB010038C3010087
:10883C00B2CB010060CB010008B50146044801F041
:10884C00AEF9044A136843F08003136008BD00BFFF
:10885C0054C301000C3801400146014801F0B1B984
:10886C0048C3010030B5264887B0264C01F093F977
:10887C00254801F090F9204602F01EFB4FF480636E
:10888C00ADF800300423214D694628468DF803309D
:10889C0001F022FF4FF40073ADF8003003238DF884
:1088AC0002301823694628468DF8033001F014FF76
:1088BC0001214FF4804001F0AFFF02A802F09AFBB7
:1088CC004FF4E13302A92046029302F043FB01224C
:1088DC0040F22551204602F0A2FB40F2256301250F
:1088EC00ADF80430002301A88DF806308DF8075040
:1088FC0001F008FD2946204602F086FB07B030BD8A
:10890C0054C301000038014048C301000008014075
:10891C0008B50146044801F042F9044A136843F0D3
:10892C008003136008BD00BF6CC301000C480040FD
:10893C000146014801F045B960C30100014801F04E
:10894C002AB900BF6CC30100014801F024B900BF73
:10895C0060C3010070B5002686B004462F4801F0B4
:10896C001AF92F4801F017F92E4D2F4802F0A4FAEE
:10897C0002A82E7002F03EFB4FF4E133A207ADF8D3
:10898C00126002930FD54FF40063ADF8003048230A
:10899C00694626488DF8033001F09EFEBDF8123072
:1089AC000433ADF81230E30714D54FF48063ADF8FF
:1089BC00003003238DF80230182369461B488DF8CC
:1089CC00033001F089FEBDF812300833ADF81230D7
:1089DC0001232B7001214FF4802001F029FF02A903
:1089EC00114802F0B7FA012240F225510E4802F06C
:1089FC0016FB002540F22743012401A8ADF80430F2
:108A0C008DF806508DF8074001F07CFC084B214690
:108A1C0005481D7002F0F8FA06B070BD6CC3010079
:108A2C0060C30100C4CE010000480040000C0140AE
:108A3C00C5CF0100052810B508D8072906D84C2346
:108A4C0001245843024A13181454597010BD00BF26
:108A5C00D8D00100052804D84C2300225843014BE0
:108A6C001A547047D8D00100052870B521D80729B1
:108A7C001FD80A244FF461666343624393FBF6F4F8
:108A8C0092FBF6F506FB143306FB15229CB24C2325
:108A9C0095B2A54294BF00260126064A03FB00238B
:108AAC000B449E70262303FB001002EB40035D81F8
:108ABC005C8370BDD8D001002DE9F74F00204FF03A
:108ACC004C0E274B274A9B8C1288274D9B1A274A02
:108ADC009BB2126805F108095343254A1B0D127805
:108AEC000092244AB2F8FE10B2F8FE8101910EFBFE
:108AFC0000F2515D571981B11F4951F8206000995E
:108B0C0051B30024214697F801A04A445FFA84FC33
:108B1C00E24508D8F1B1A6F8008001300628E6D16C
:108B2C0003B0BDE8F08F07EB040B9BF802B032F8F2
:108B3C0002CFBBF1000F07D0634509D2B2F810C0C9
:108B4C009C4588BF012101E06345F7D20134DDE784
:108B5C000121FBE73180E0E7BDF804203280DCE73F
:108B6C0000080040D2D00100D8D00100A0D20100F2
:108B7C00A5D20100E4BC000020C30100064B1888FC
:108B8C0040B1064B1B7823B1054B93FBF0F080B240
:108B9C0070471846704700BFD6D00100A5D201001F
:108BAC0080C3C901134B10B51A7882421ED0042819
:108BBC001CD818700023104A400013800F4A137001
:108BCC000F4B104A33F810400130148033F810204A
:108BDC000D4B1A800D4B1B7843B903F1804303F501
:108BEC0084331021202214B119615A6110BD5961CE
:108BFC00FBE700BFAFD20100AAD20100A6D2010050
:108C0C00E4BE0000A8D20100ACD20100AED201003B
:108C1C00084A0346107060B9074A10781370102286
:108C2C0003F1804303F584335A6120225A61FFF724
:108C3C00B9BF7047AED20100AFD20100302337B5B7
:108C4C001025ADF8043003230A4C01A920468DF8F9
:108C5C0006308DF8075001F03FFD0023064A1370D3
:108C6C00064A1370064A137020232561636103B012
:108C7C0030BD00BF00080140AED20100AFD20100F0
:108C8C00A6D2010007B50121084601F0C5FD01215E
:108C9C00042001F0C1FD0121082001F0BDFD0121DE
:108CAC00102001F0B9FD0121202001F0B5FD0121BA
:108CBC00402001F0B1FD4FF6FF73ADF804300323F3
:108CCC008DF8063004230D480DEB03018DF80730A9
:108CDC0001F002FD01A90A4801F0FEFC01A90948B6
:108CEC0001F0FAFC01A9084801F0F6FC01A90748BB
:108CFC0001F0F2FC03B05DF804FB00BF000801407A
:108D0C00000C01400010014000140140001801400B
:108D1C00044B81EA102133F8113083EA002080B231
:108D2C00704700BF40BF000010B502464418012038
:108D3C00A24205D1C0B280F47F4080F0FF0010BD8C
:108D4C0012F8011BFFF7E4FFF2E70000F0B4114C3E
:108D5C00069D207000209DF810709DF814606070C6
:108D6C00E170080A6271110A1A0AE371A07021718C
:108D7C00A27127726B1E04F8096F043513F8012FCA
:108D8C00AB4204F8012FF9D1F0BC024A0F21A2200A
:108D9C0000F06ABFB0D201000123034A0221107017
:108DAC00A220537000F060BFB0D201000221034A30
:108DBC001070A220517000F057BF00BFB0D201005C
:108DCC0010B558B101B952B912F4004F4FF000046C
:108DDC0007D14280848041618360012010BD084628
:108DEC00FCE72046FAE7000030B508B9002138E06E
:108DFC00446914B94388002BF8D10378082B75D833
:108E0C00DFE803F005111C243944636E0500F929D1
:108E1C00ECD1FF2200230276012283800173C381EF
:108E2C0003740270E2E7F929E0D0037E314A4B402B
:108E3C00D35C4173037602230370D7E7037E2D4A7C
:108E4C004B40D35C817303760323F5E7037E294AF9
:108E5C004B40D35CC17311F00101037603D10423A1
:108E6C000370084630BDC37B027C5B0853EAC21317
:108E7C0026D00523E0E7037E1E4A4B40D35C0174E9
:108E8C000376C37BC90151EA5303F1E78288438817
:108E9C00934217D9837B23F01003EF2B04D0037E6E
:108EAC00144D4B40EB5C0376A154838801338380D3
:108EBC00C37B017C5B08828843EAC1139A4295D13B
:108ECC000623B9E700230370F2E7037E5940094BF0
:108EDC005B5CCF2B037609D183883BB10723ABE7CF
:108EEC00F92903D1082301210370BAE7002101708D
:108EFC00B7E700BF40C10000F9230373437B184957
:108F0C00DB43DBB270B5CB5C847BC57B6340CB5C55
:108F1C0015F0010F83EA0503CA5C037C027604BFDB
:108F2C005A408A5C0D464FF0000108BF0276C27BA6
:108F3C00DB0143EA520224F010048EB29642037E07
:108F4C0004D3DB430376F923437670BDEF2C04D0B6
:108F5C004669765C7340EB5C03760131EDE700BF4C
:108F6C0040C1000030B5447B039D61F38704E4B23B
:108F7C0044F0010462F3410443F010037F2D83732A
:108F8C00447305F07F02C37B07D903F0FE0362F341
:108F9C004703ED09C373057430BD43F0010362F35D
:108FAC004703C37300230374F6E737B5069D0446E5
:108FBC000095FFF7D7FFFFF79FFF8368002B27D0A3
:108FCC00007B9847A368607B9847A368A07B984771
:108FDC00A368E07B9847E37BDB0702D4A368207C83
:108FEC0098470025E37B217C5B0843EAC113A9B2B7
:108FFC008B42A26807D8207E9047A368607E03B09E
:10900C00BDE8304018476369585D90470135E9E782
:10901C0003B030BDD0F8E431C289A3EB0243C0F8F1
:10902C00E4311B0C8381704710B58842BDF90840B0
:10903C0005DAA0420FDCA14205DA1A460BE0A04289
:10904C0009DBA142F9DC9B1A241A5C43091A94FB34
:10905C00F1F10A4412B2104610BD000070B50024A4
:10906C00E0B20134FFF7F6FC062CF9D10021012502
:10907C000A464FF48034FF20144B154E83F8D5115B
:10908C00013118291A7083F8D45183F8D351DA704E
:10909C00DA815A70C3F8E8419A7083F82C00C3F84F
:1090AC00EC6183F8F021C3F8E4219A8103F5FA739B
:1090BC00E4D1084B1A70084B1C60084B1870084B15
:1090CC001870BDE87040FF20FFF766BEF0D20100BB
:1090DC00F40102001C020200E8D20100D0010200DF
:1090EC00E2D2010070B50446FFF7B8FF00234FF43D
:1090FC00FA70074A074D1370074A1178DAB2914299
:10910C0000D870BD00FB0352E65C0133D670F5E766
:10911C00E0D20100F0D20100E1D2010017282DE9C4
:10912C00F0470ED84FF4FA7358430C25DFF850E093
:10913C004FF023080EEB0007B94605FB01218A42CC
:10914C0001D1BDE8F08797F8D241661C96FBF8F385
:10915C0008FB136397F8D161DBB29E42F1D005FB9B
:10916C000406002412F804A004EB060C0134F444A9
:10917C000C2C8CF82DA0F5D189F8D2310C32DEE70D
:10918C00F0D20100002342F6E060194610B5054C00
:10919C001A1903F5FA73834282F8D11182F8D211AD
:1091AC00F6D110BDF0D2010010B50446FFF7EAFF6E
:1091BC00FFF754FF034B14B101221A7010BD1C7041
:1091CC00FCE700BFE0D2010090F8D23190F8D10159
:1091DC001B1ADBB258B20028BCBF233358B2C0B242
:1091EC00704710B50246FFF7EFFF68B1232192F8E4
:1091FC00D101441C94FBF1F301FB134382F8D131F0
:10920C000C2303FB00202D3010BD0000074A127800
:10921C00032A07D10278022A02D100F5EB707047BD
:10922C00FFF7DFBF80680C30704700BFE0D2010051
:10923C000223037022234370082383701823C37006
:10924C007047000038B50323014601224FF4FA752C
:10925C00054C037005FB0240FFF7B6FF8854013242
:10926C00192AF7D138BD00BFFCD0010010B5044657
:10927C00FFF754F93CB1012000F01EFDBDE8104091
:10928C00024800F039BD2046F6E700BF9D92000071
:10929C00F8B5244E0C463378154623B3032B22D055
:1092AC00A1283AD1012B06D1022218463270FFF7C1
:1092BC00DDFFFFF7D3FE062C4FF000032AD91A4E20
:1092CC001A48E95C56F8232030F811100133062BAC
:1092DC001180F6D1A11FAA1DC9B2A12000F0C4FCB7
:1092EC000022134B1A70F8BDEE5C51F8232030F8B5
:1092FC00166001331680DAB29442F5D800231D466D
:10930C000948E218D1B20529EAD850F822200133D5
:10931C001580F6E704490548EDE7BDE8F84000F094
:10932C00A3BC00BFE0D2010020C30100E4BC0000DC
:10933C00DFD2010070B5134B1A78012A1FD9124BDA
:10934C001878D8B1114B4FF4FA751C780023104ED5
:10935C00D9B28C420BD80F4B1878013090FBF2F33A
:10936C0002FB1300C0B200F0FDF9012006E001334E
:10937C0005FB036111F8210C0028E9D170BD002018
:10938C00FCE700BFECD20100F0010200E1D20100C9
:10939C00F0D20100E2D201002DE9F04F0446012584
:1093AC00A16089B080F8D45190F8D5010E46FFF732
:1093BC0051FBA1680B78052B00F0FC8029D8022BFF
:1093CC0000F0BC8006D8AB4200F0868000232370EE
:1093DC00E370B0E0032B00F0C280042BF6D12046E2
:1093EC004D788E7891F803808F88FFF713FEB54B7C
:1093FC002582B3F9003066820093A4F814803346BA
:10940C002A464FF47A710020FFF70EFEE781E070D8
:10941C0091E0A02B70D034D8062BD7D10F794E7990
:10942C004D884978204601EB81014900FFF7F2FD98
:10943C00A44B00221B88C4E906228B428CBF142348
:10944C0000232284A26827826682A182E38291791A
:10945C009D4801F00F01415C618491790909415CDF
:10946C009A48A184D17901F00F0130F81110E184F0
:10947C00D279120930F812202285002B3AD0E581DE
:10948C0059E0F02B00F0FC80F22B9FD100234D888B
:10949C0006AA033111F8010F98540133062BF9D1A8
:1094AC002046FFF7B7FD8A4B1B78012B0ED10DF12F
:1094BC00190302939DF818302A460193FF231221B9
:1094CC00009300204FF47A73FFF740FC002381488F
:1094DC00E37000F0D3FCD2E720464D88FFF79AFDED
:1094EC0094F8F031012B03D194F8F101FFF75EFCF5
:1094FC00A3685B78E370C2E720464E880F794D78FD
:10950C0091F80580FFF786FD94F8F031012B11D10D
:10951C00A36805EB8505063305EB8505CDE90173DD
:10952C00B4F8F21194F8F101CDF80080AB0032469A
:10953C00FFF70CFCE68109B0BDE8F08F20464D78B2
:10954C008E788988FFF766FD2378012B07BF25826B
:10955C00668226826582238AE181E370EBE7CD780F
:10956C002046CE884F7891F802808988FFF752FD0B
:10957C00642D28BF642506FB05F36425B3FBF5F3C6
:10958C0022789BB2012AA6EB03060CBFA382E382CE
:10959C004FF00003B6B2BFB21FFA88F803BF2782A0
:1095AC00A4F81280E682A4F810801CBF6782A68201
:1095BC00A361D0E74B88204691F801900593FFF703
:1095CC0029FDA768FFF722FE4FEA490980460028CB
:1095DC0052D04378049300264FF4B47A354604F104
:1095EC00100B4FF0000239797B792BF8022B5B00C2
:1095FC004A0001B95BB302EB090191FBFAF24B444F
:10960C000AFB121293FBFAF10AFB113392B29BB2D2
:10961C00294694F8D501FFF727FAB8F1000F2DD0A1
:10962C0008EB060393F904305A00D4F8E83153439D
:10963C004FF4803293FBF2F322789BB2012A18BFCD
:10964C005B4205F10802013524F81230EDB2013607
:10965C00042E07F10207C4D1BDF810302584E38332
:10966C000023294684F8D43194F8D501FFF7E2F9A8
:10967C00BDF81430E3815EE70490ACE74246D4E7D2
:10968C0084F8D351144D2B78032B08D1A3685B7845
:10969C00012B09D0022B21D0002323704BE7FFF7BD
:1096AC0049FE0028F2D046E723702B78032B03D118
:1096BC00204600F01BF83EE761682046FFF76CFE81
:1096CC0039E700BFE001020077C2000040C2000091
:1096DC00ED01020060C20000E0D2010023702B7883
:1096EC00032BE5D0A6F10C01E7E700BF38B5044623
:1096FC001B4D2B78032B1FD02378012B07D1A3688C
:10970C0003F10C011B7BF12B09D1A160F1E7022BBA
:10971C000FD1D4E901138B4206D8012323702046C4
:10972C00BDE83840FFF738BEA3F10C0113F80C3C30
:10973C00E9E70023237038BD2046FFF752FD0146B0
:10974C000028F6D00378F12BE9D1431E04F5EB7217
:10975C000B3113F8010F8B4202F8010BF9D1C8E75A
:10976C00E0D201002DE9F04F524B85B01B78044636
:10977C0083423FD9504D2A7882423BD0FFF76EFC92
:10978C000023FF2042F6E0624C4E991903F5FA7360
:10979C00934281F8D501F8D12C700025484B494AE9
:1097AC001B68166853F824302F461E44337B06F191
:1097BC001C0101EB830A01EBC301029142494FF0FA
:1097CC00010B0978D6F81090994228BF19460191DF
:1097DC003E4B9DF8041096F80D8019703C4B374C9D
:1097EC00C3F800903B4B039283F80080019AEBB2D4
:1097FC009A4202D805B0BDE8F08F6770C4F8E891C2
:10980C00B9F1000F05D14FF4803384F801B0C4F8DE
:10981C00E831A77084F82C80B8F1000F04D1FF2335
:10982C0084F802B084F82C30AA000399B318D869D4
:10983C00D1F800C084F800B00CEB0001616084F832
:10984C00D3711AF825E00AEB0203BEF1000F05D123
:10985C0084F8F0E193F801E084F8D5E11AF80220DD
:10986C00012A0FD184F8F021FF2284F8D5215A78EF
:10987C0084F8F1219A78A4F8F221DB7802EB032228
:10988C00A4F8F2211CF80030F02B0ED12770E770F1
:10989C00029B114A5B5D04F5FA7403F0030302EBBF
:1098AC00430344F8083C0135A0E72046FFF774FD5C
:1098BC00EEE700BFECD20100E2D20100F0D20100D1
:1098CC00E4D20100E8010200E1D201001C02020016
:1098DC00E8D20100D0010200F40102002DE9F74F9B
:1098EC0092461D4681468846FFF7B8FB0322474B3C
:1098FC00474F1A7000233B70BAF1000F1FD06C78E1
:10990C002B78240404EB0364EB781C44AB7804EB55
:10991C0003244FF0000B3F4E3F4B5FFA8BF51B7847
:10992C00AB420ED84FF4FA723C4BC3F800903C4B50
:10993C0083F800803B4B1A8003B0BDE8F08F54468F
:10994C00E7E74FF4FA7169438B19184601910093BC
:10995C00FFF747FC002851D04FF0010C0199009BF8
:10996C0001F806C00021C3F8E8915970B9F1000F55
:10997C0005D14FF4803183F801C0C3F8E8114FF4DE
:10998C00FA7C00210CFB056C8CF802108CF82C80F6
:10999C00B8F1000F05D101218CF80210FF218CF8D1
:1099AC002C10BAF1000F1CD00121A94021421EBF7E
:1099BC004FF4FA714FF0020C69430C9A18BF06F879
:1099CC0001C002EB450C12F815109CF801C00CEB11
:1099DC00012C4FF4FA7101FB05614FEA0C42C1F8FE
:1099EC00E4210178F0290CD14FF4FA735D43002384
:1099FC0071197355CB703B7801333B700BF1010B34
:109A0C008AE701461846FFF7C7FCF4E7E0D20100ED
:109A1C001C020200F0D20100E1D20100E8D20100E8
:109A2C00D0010200E201020070B5FEF78BFD324B53
:109A3C00324C1868324B01681B68324D99422060D9
:109A4C00296051D8FFF770F922682B68D35A1B1A7A
:109A5C005842584122682C49137996790B701BB1E6
:109A6C00FF2B14BF034600231EB9D279022A00D162
:109A7C0023B900232B60254B1B682360244B254AFC
:109A8C00187810705A78244B1A702368234C1A7962
:109A9C0018330A7022490B60C82393FBF2F3214A56
:109AAC0013800022204B1A700123204A1370E8B94E
:109ABC00FFF7DCFB06232370FEF706FEFEF71EFD08
:109ACC004FF480321A4B18701A4B01201A60FFF7B2
:109ADC006BFB0022184B1A805A809A80DA804FF068
:109AEC000062164B1A6070BD0020B3E71846FFF7F2
:109AFC00BDFB1823DFE700BF1CC30100E801020017
:109B0C0038CB0100D4010200ECD2010018C30100D3
:109B1C003CCB0100ED010200DED20100E1D20100DC
:109B2C00E4D20100F2010200E3D20100E0D2010014
:109B3C00D801020018020200F4010200DC0102004C
:109B4C000289036830B533F81240C56823F8121047
:109B5C000389828801339BB29A42038198BF002308
:109B6C002944A1EB0401C16098BF0381C08821FA8C
:109B7C0000F080B230BD002330B51D4681889AB20A
:109B8C00914203F1010400D830BD02689BB222F867
:109B9C0013502346F2E70023C38003817047C28829
:109BAC0010B5531C84889BB29C4298BF0023048937
:109BBC009C4217BF04680020A154C38018BF012029
:109BCC0010BD0389C2889A420DD00268D35C0B7019
:109BDC000389828801339BB29A42038101D8002306
:109BEC00038101207047002070470000002370B5EE
:109BFC00124CE377E1B10A23A3770D2363771C237F
:109C0C000028B4BF012100214FF00A05B8BF404223
:109C1C0090FBF5F605FB160000F13002E2543046DD
:109C2C0046B919B12D22013BDBB2E254E01870BDEC
:109C3C001E23E5E7013BDBB2EAE700BF200202008E
:109C4C0038B500F13F03DBB2022B04460D4605D8B4
:109C5C00C320FEF75DFE04F11000C0B2FEF758FE03
:109C6C006019C0B238BD0000124B70B51B780646A7
:109C7C000D461446EBB1C120FEF74AFE00213046DA
:109C8C00FFF7DEFF01462846FFF7DAFF0146013CED
:109C9C002544AC4207D10846FFF7D2FFBDE870401F
:109CAC00C220FEF735BE14F8010FFFF7C9FF0146BD
:109CBC00EFE770BDCE02020038B505460B4C70B90B
:109CCC000220FEF747FE25700023094A1360094A5B
:109CDC001370FEF733FEBDE83840FEF735BE0320A7
:109CEC00FEF738FE01232370EEE700BFCE02020020
:109CFC0044020200C9020200014B1860704700BF09
:109D0C004402020013B50DF10700FEF711FEF8B185
:109D1C009DF80730C12B0AD10122304B1A70002359
:109D2C002F4A13702F4A13702F4A137010E0C22B56
:109D3C0010D12C4B1B7843B12C4B1B682BB12C49ED
:109D4C002C482D4A0978007898470022234B1A702A
:109D5C0002B010BDC32B244A01D10123E5E71178D1
:109D6C0009B1103BDBB2002111701C4A107801388C
:109D7C00032830D8DFE800F0020A152618480178CD
:109D8C00194401701B490B700223CEE7144801786B
:109D9C001944017016490B700021184B19700323DC
:109DAC00C3E70F48144C017819440170134801782B
:109DBC0063544B1C0E49DBB2097803709942C7D827
:109DCC000423B2E706490978994202BF0121054BE9
:109DDC0019700523A9E71170BAE700BFC902020088
:109DEC0040020200C8020200CC020200440202003F
:109DFC00CB020200CD02020048020200CA0202009D
:109E0C0070B50C4D0C4C00234FF480720B490C4870
:109E1C00FEF7D6FF2B4621464FF480720948FEF719
:109E2C00CFFF2B462146BDE870404FF480720648A8
:109E3C00FEF7C6BF4588000030C9010030C80100DC
:109E4C00F8C7010014C80100DCC701001346F7B5C0
:109E5C00094E9C1AA5B2A94208D8009103230146C9
:109E6C0001220548FFF7A1F803B0F0BD756913F89E
:109E7C00017B2F55EDE700BF14C8010007B503782F
:109E8C00024663B100230133DBB2D15C0029FAD165
:109E9C000448426100930122EF23FFF786F803B0D8
:109EAC005DF804FBDCC7010070B5426986B013781D
:109EBC00013B042B00F2B080DFE803F0030D5636B3
:109ECC00A8005749574BCA6802F4E0621343CB60B1
:109EDC00BFF34F8FFEE7012306AC04F8143D524943
:109EEC00524B03F1604213F8010B02F619028B423C
:109EFC00A054F6D14E4B1B681A0E8DF811201A0C7B
:109F0C008DF812201A0A8DF813208DF81430FEF7F4
:109F1C00DFFA8DF81500012022461421ADF8160049
:109F2C00FFF794FF06B070BD032308218DF80430B1
:109F3C00404B1B681A0E8DF805201A0C8DF8062064
:109F4C008DF808301A0A3C4B8DF807201B7801AAB3
:109F5C008DF80930394B1B788DF80A30384B5B780B
:109F6C008DF80B300120DBE7FEF778FB354B06460E
:109F7C001C880A23B4FBF3F4FEF700FE022305460B
:109F8C008DF80430FEF752FB33128DF806302E4B51
:109F9C00E4B21B788DF805008DF809302B4B8DF849
:109FAC0007601B788DF808408DF80A30284B8DF827
:109FBC000E501B788DF80B30264B1B788DF80C301F
:109FCC002B0A8DF80D30244B1B681A0E8DF80F20C0
:109FDC001A0C8DF810208DF812301A0A1F4B8DF8C0
:109FEC0011201B788DF813301D4B1B788DF8143015
:109FFC00FEF728FB03128DF815308DF81600FEF7CE
:10A00C001BFB01AA8DF817001421ABE7507800B1A7
:10A01C000120FEF7FDFD85E71248FFF72FFF81E7D2
:10A02C0000ED00E00400FA05F4F7FF1FE8F7FF1F4E
:10A03C0038CB0100D4010200ECD20100ED0102008A
:10A04C003CCB0100E0010200E3D20100FC01020064
:10A05C00E2D201001C020200E8D20100D001020091
:10A06C00E0D201008BC2000010B54369C0B01A7871
:10A07C00013A0C2A00F29080DFE802F0071F182941
:10A08C002E494E545C60666B680001238DF80030DD
:10A09C00434B03211B881A0A8DF801206A468DF860
:10A0AC0002300220FFF7D2FE40B010BDFEF792F94D
:10A0BC003C4B1B88ADF8003006E0FEF765F9032336
:10A0CC008DF801008DF800306A460221E9E7991CF1
:10A0DC005878FEF78BF9F2E75C782046FEF7BCF96E
:10A0EC0018B90323ADF80030EEE702238DF80030E9
:10A0FC0000238DF80140DAB2944202D86A46A11CC2
:10A10C00CFE7C15C0DEB030291700133F3E7FEF76F
:10A11C00BDF9FFF789FCCBE75A78234B1A70FEF791
:10A12C00E9F8F6E704238DF800301F4B1B788DF807
:10A13C000130C9E75A781C4B5A70F0E705238DF8AB
:10A14C000030194B5B78F2E7FEF71EF9FEF7FCF8CE
:10A15C00DFE7144A1288ADF800205C78FEF766FA47
:10A16C0008B10023E3E7012C06D1FEF771FA0E4B80
:10A17C005880FEF7BFF8A7E724B9FEF769FA0A4B37
:10A18C009880F6E7022C04D1FEF762FA064BD880D1
:10A19C00EFE78DF80100ECE70448FFF76FFE83E76B
:10A1AC00E2BC000087C200003CCB01009DC2000055
:10A1BC0010B543698AB01A78013A072A60D8DFE8EB
:10A1CC0002F0040E161D262C54412F4A1288ADF8AD
:10A1DC000C205878FEF7E8FF03AA022113E02A4A64
:10A1EC00581C1288ADF80C20FEF77CFFF4E7DA1C43
:10A1FC0099785878FEF792FF0AB010BD03A8FFF7C4
:10A20C0017F8042103AA0320FFF720FEF4E703A8A4
:10A21C00FFF718F803AA1921F5E71B4A1288ADF8C5
:10A22C000C2098785A78000400EB026059791A795E
:10A23C00DC78002310441A46009300EB0420FFF74F
:10A24C004DFBC9E7104A1288ADF80C2098785A7863
:10A25C00000400EB02601A795979104403F10A02E8
:10A26C00DC78009206330122E7E7074A1288ADF842
:10A27C000C205B78054A03EB83035B001380ABE790
:10A28C000348FFF7FBFDB7E789C20000E2010200BB
:10A29C00C5C2000037B5144C144D0DF10700FEF784
:10A2AC00DBFA08B903B030BD9DF807102046FEF765
:10A2BC009BFD0028F1D0637B9B08022B07D0032B5E
:10A2CC0009D0012B0BD12046FFF7EEFDE5E7204628
:10A2DC00FFF7CAFEE1E72046FFF76AFFDDE72846F5
:10A2EC00FFF7CCFDD9E700BFF8C70100B6C20000EC
:10A2FC0040F0BF60024B40F40030D860704700BFA4
:10A30C0000ED00E070B50125017801F01F039D40C0
:10A31C00C3784C09C3B10F4BDA684378D243C2F30C
:10A32C000222C2F1040603FA06F683780F2020FA03
:10A33C0002F213403343084A1B01DBB2114481F88B
:10A34C00003342F8245070BD034B203443F82450A2
:10A35C00F9E700BF00ED00E000E100E021F0604112
:10A36C0021F07F01014B01439960704700ED00E043
:10A37C0008B5144B98420BD101214FF4007000F03A
:10A38C0063FA00214FF40070BDE8084000F05CBA9D
:10A39C000D4B984208D101214FF4806000F054FA23
:10A3AC0000214FF48060EFE7084B984208D101215F
:10A3BC004FF4004000F048FA00214FF40040E3E76E
:10A3CC0008BD00BF0024014000280140003C0140B2
:10A3DC0043680A7923F4702323F4807343EA02233D
:10A3EC000A6810B5134343608468D1E90223134310
:10A3FC00084A224013434A7943EA420383600A7CA9
:10A40C00C36A013A23F47003D2B243EA0253C36223
:10A41C0010BD00BFFDF7F1FF836819B143F00103D4
:10A42C008360704723F00103FAE7C9B2436812B1A5
:10A43C0019434160704723EA0101FAE7836843F04E
:10A44C000803836070478068C0F3C000704783685E
:10A45C0043F00403836070478068C0F3800070474A
:10A46C00092970B51BD90726A1F10A04C56804EBAC
:10A47C004404A64025EA060503FA04F42C43C46000
:10A48C00062A18D81F24013A436B02EB820294402F
:10A49C0023EA040301FA02F21A43426370BD072453
:10A4AC00056901EB4106B44025EA040503FA06F4FC
:10A4BC002C430461E4E70C2A0CD81F24073A036BE5
:10A4CC0002EB8202944023EA040301FA02F21A43DB
:10A4DC000263E3E71F240D3AC36A02EB8202944045
:10A4EC0023EA040391401943C162D7E7036823F0C0
:10A4FC0001031B041B0C0360002303604360836097
:10A50C00C360294B984204D1284A536843F00F0387
:10A51C0026E0274B984204D1244A536843F0F003B9
:10A52C001EE0244B984204D1204A536843F47063D4
:10A53C0016E0214B984204D11C4A536843F47043F3
:10A54C000EE01E4B984204D1184A536843F4702312
:10A55C0006E01B4B984205D1144A536843F4700330
:10A56C0053607047174B984204D1104A536843F01C
:10A57C007063F5E7144B984201D1144AC5E7144BAC
:10A58C00984201D1114AC8E7124B984201D10F4AA7
:10A59C00CBE7114B984201D10C4ACEE70F4B9842B6
:10A5AC00DFD10A4AD1E700BF080002400000024098
:10A5BC001C0002403000024044000240580002409F
:10A5CC006C0002408000024008040240000402407B
:10A5DC001C0402403004024044040240580402406F
:10A5EC00034B044A5A6002F188325A60704700BF2C
:10A5FC000020024023016745024A136943F080039F
:10A60C001361704700200240014BD860704700BFB7
:10A61C0000200240084BDA68D10709D4DA685207E7
:10A62C0008D4DB6813F0100F14BF0320042070470C
:10A63C0001207047022070470020024010B50446EC
:10A64C00FFF7E8FF012806D10CB9052010BDFFF774
:10A65C00E1FF013CF6E7002C08BF0520F6E70000FF
:10A66C0038B505464FF43020FFF7E8FF042813D126
:10A67C000A4C4FF43020236943F0020323616561D7
:10A68C00236943F040032361FFF7D8FF236923F0CC
:10A69C000203DB04DB0C236138BD00BF0020024049
:10A6AC0070B505464FF400500E46FFF7C7FF04285F
:10A6BC000FD1084C4FF40050236943F00103236180
:10A6CC002E80FFF7BBFF236923F00103DB04DB0CB7
:10A6DC00236170BD00200240CA782DE9F041D306F9
:10A6EC0048BF8B780E8802F00F0548BF1D4316F04B
:10A6FC00FF0F1AD000214FF0010C4FF00F0E036822
:10A70C000CFA01F737EA06040BD18C000EFA04F8A8
:10A71C0023EA080305FA04F4282A43EA040326D1A1
:10A72C00476101310829EBD10360FF2E1DD90824A4
:10A73C004FF0010C4FF00F0E41680CFA04F737EA9A
:10A74C0006030ED104F18043083B9B000EFA03F87C
:10A75C0021EA080105FA03F3282A41EA03010AD188
:10A76C0047610134102CE8D14160BDE8F081482AE2
:10A77C0008BF0761D5E7482A08BF0761F1E7000069
:10A78C00034A536823F4404318435060704700BF9A
:10A79C00001002401B4A10B5536803F00C03082B41
:10A7AC001FD0194B03605368184CC3F30313E15CBF
:10A7BC000368CB4043605168C1F30221615C23FA0A
:10A7CC0001F181605168C1F3C221615CCB40C3606F
:10A7DC0052680F49C2F381328A5CB3FBF2F3036116
:10A7EC0010BD53685168C3F38343CC0303F10203D8
:10A7FC0002D408494B43D5E751688903F9D402497F
:10A80C00F8E700BF0010024000127A007CC3010080
:10A81C0078C3010000093D00044B9A6911B1104343
:10A82C009861704722EA0000FAE700BF001002406E
:10A83C00044BDA6911B11043D861704722EA000069
:10A84C00FAE700BF00100240044BDA6811B1104364
:10A85C00D860704722EA0000FAE700BF00100240FF
:10A86C00044B1A6911B110431861704722EA0000B9
:10A87C00FAE700BF0010024030B5048C42EA031323
:10A88C0024F001042404240C0484048B058C24F08F
:10A89C00F3042404240C1C43114BADB29842A4B213
:10A8AC0041F0010112D003F5006398420ED0B0F1D3
:10A8BC00804F0BD0A3F59833984207D003F58063F3
:10A8CC00984203D003F58063984205D125F0020528
:10A8DC0029430483018430BD25F00A05F8E700BF45
:10A8EC00002C014070B5058C120225F010052D04CA
:10A8FC002D0C0584058B42EA033325F440752D0598
:10A90C002D0D1D43144B048C0E019842A4B2B6B20B
:10A91C00ADB212D003F5006398420ED0B0F1804F67
:10A92C000BD0A3F59833984207D003F58063984277
:10A93C0003D003F58063984207D124F0200446F03D
:10A94C00100634430583048470BD24F0A00441F048
:10A95C0010010C43F6E700BF002C014008B5614B19
:10A96C0098420BD101214FF40060FFF76DFF0021DD
:10A97C004FF40060BDE80840FFF766BFB0F1804FB0
:10A98C0009D101210846FFF76BFF00210120BDE82A
:10A99C000840FFF765BF544B984206D101210220B5
:10A9AC00FFF75EFF00210220F1E7504B984206D1E1
:10A9BC0001210420FFF754FF00210420E7E74C4B52
:10A9CC00984206D101210820FFF74AFF00210820F8
:10A9DC00DDE7484B984206D101211020FFF740FFDC
:10A9EC0000211020D3E7444B984206D101212020AE
:10A9FC00FFF736FF00212020C9E7404B984208D1D1
:10AA0C0001214FF40050FFF71FFF00214FF40050BD
:10AA1C00B0E73B4B984208D101214FF40020FFF7DF
:10AA2C0013FF00214FF40020A4E7364B984208D1C5
:10AA3C0001214FF48010FFF707FF00214FF4801025
:10AA4C0098E7314B984208D101214FF40010FFF7E1
:10AA5C00FBFE00214FF400108CE72C4B984206D1E2
:10AA6C0001214020FFF7FCFE002140208FE7284BFE
:10AA7C00984206D101218020FFF7F2FE00218020B0
:10AA8C0085E7244B984208D101214FF48070FFF7E1
:10AA9C00E7FE00214FF4807079E71F4B984208D1F4
:10AAAC0001214FF48030FFF7CFFE00214FF48030AE
:10AABC0060E71A4B984208D101214FF40030FFF7A0
:10AACC00C3FE00214FF4003054E7154B984208D1D7
:10AADC0001214FF48020FFF7B7FE00214FF48020B6
:10AAEC0048E708BD002C014000040040000800406D
:10AAFC00000C0040001000400014004000340140E5
:10AB0C00004C01400050014000540140001800402E
:10AB1C00001C004000200040004001400044014067
:10AB2C0000480140224A038890429BB212D002F5A1
:10AB3C00006290420ED0B0F1804F0BD0A2F598324B
:10AB4C00904207D002F58062904203D002F58062F9
:10AB5C00904203D14A8823F070031343154A904264
:10AB6C0008D002F5806290421FBF23F44073CA885C
:10AB7C009BB2134303808B8883850B8803850C4B16
:10AB8C0098420FD003F5006398420BD003F5406355
:10AB9C00984207D003F58063984203D003F5806395
:10ABAC00984201D10B7A038601238382704700BF40
:10ABBC00002C014000100040038C70B523F01003F2
:10ABCC001B041B0C0384038C8488028B0D8822F4D9
:10ABDC00E6421204120C42EA052223F020030D89EE
:10ABEC004E881B0435431B0C43EA0513114DA4B2CC
:10ABFC00A84292B29BB203D005F50065A84213D1CE
:10AC0C004D8923F0800343EA05134FF6BF751D40B1
:10AC1C008B88CE8945EA03138D8924F4406435432F
:10AC2C0044EA85049BB2A4B284800283CA8802875A
:10AC3C00038470BD002C0140038C70B523F4807329
:10AC4C001B041B0C0384038C8288848B0D8824F0DA
:10AC5C0073042404240C2C4323F400730D894E88B4
:10AC6C001B0435431B0C43EA0523114D92B2A84239
:10AC7C009BB203D005F50065A84213D14D8923F48E
:10AC8C00006343EA05234FF6FF351D408B88CE89C0
:10AC9C0045EA03238D8922F44052354342EA0512DA
:10ACAC009BB292B28280CA8884838287038470BDEF
:10ACBC00002C0140038C70B523F480531B041B0C37
:10ACCC000384038C8488828B0D8822F4E642120460
:10ACDC00120C42EA052223F400530D894E881B0402
:10ACEC0035431B0C43EA05330B4DA4B2A84292B278
:10ACFC009BB203D005F50065A84205D18D8924F4DB
:10AD0C00804444EA8514A4B284808283CA88A0F863
:10AD1C004020038470BD00BF002C0140038819B192
:10AD2C0043F001030380704723F001031B041B0C49
:10AD3C00F8E7038B23F00C031B041B0C0383038B1E
:10AD4C00194301837047038B23F440631B041B0CD2
:10AD5C000383038B43EA012189B201837047838B00
:10AD6C0023F00C031B041B0C8383838B19438183FB
:10AD7C007047838B23F440631B041B0C8383838BEE
:10AD8C0043EA012189B2818370470000F8B50E4671
:10AD9C00098804467588B288338939B92946FFF782
:10ADAC006BFDF188BDE8F840FFF7C3BF042907D15C
:10ADBC002946FFF797FDF188BDE8F840FFF7C3BFC0
:10ADCC000829008CF18838D120F480700004000C24
:10ADDC002084A68B208CB6B226F0F306324342EACE
:10ADEC000313344A2F02944280B2BFB29BB212D0EA
:10ADFC0002F5006294420ED0B4F1804F0BD0A2F554
:10AE0C009832944207D002F58062944203D002F546
:10AE1C00806294420BD120F4007545F480753D435B
:10AE2C00A38320462584BDE8F840FFF798BF20F4A3
:10AE3C002060054345F48075F2E720F4805000044F
:10AE4C00000C2084A08B1B0320F4407043EA0223E7
:10AE5C000005184A278C000D2E0303439442BFB201
:10AE6C00B6B29BB212D002F5006294420ED0B4F18D
:10AE7C00804F0BD0A2F59832944207D002F5806235
:10AE8C00944203D002F5806294420BD127F4005512
:10AE9C0045F480553543A38320462584BDE8F8400E
:10AEAC00FFF767BF27F400777F047F0C3D4345F421
:10AEBC008055F0E7002C014008B5214B98420BD18E
:10AECC0001214FF48040FFF7BFFCBDE80840002192
:10AEDC004FF48040FFF7B8BC1A4B98420BD10121BC
:10AEEC004FF40030FFF7BCFC00214FF40030BDE8FC
:10AEFC000840FFF7B5BC144B984208D101214FF420
:10AF0C008020FFF7ADFC00214FF48020EFE70F4BC2
:10AF1C00984208D101214FF40020FFF7A1FC002139
:10AF2C004FF40020E3E70A4B984208D101214FF47B
:10AF3C008010FFF795FC00214FF48010D7E708BD77
:10AF4C00003801400044004000480040004C0040E4
:10AF5C000050004030B50D460446038A8A899BB2E6
:10AF6C00C98823F440530B4303828389A98823F4B3
:10AF7C00B05323F00C030B43298987B00B43698929
:10AF8C000B438381838A9BB223F4407313438382E4
:10AF9C0001A8FFF7FFFBDDE90331154A944218BF06
:10AFAC0019461923A2894B43296810044CBF490048
:10AFBC008900B3FBF1F16425B1FBF5F3A28918010B
:10AFCC00120405FB13130BD5DA003232B2FBF5F287
:10AFDC0002F0070242EA00039BB2238107B030BDA6
:10AFEC001B013233B3FBF5F303F00F030343F3E719
:10AFFC00003801404FF416520023C0E900234FF4EF
:10B00C004022838182607047838919B143F40053D5
:10B01C008381704723F400531B041B0CF8E701F0E9
:10B02C001F0310B5C1F342140121012C01FA03F1E5
:10B03C0005D10C3003683AB11943016010BD022CE4
:10B04C000CBF10301430F5E723EA0101F5E7FEE7F9
:10B05C005D4B5E481A6884B042F001021A60596870
:10B06C005B4A0A405A601A68002122F0847222F46A
:10B07C0080321A601A6822F480221A605A6822F40C
:10B08C00FE025A604FF41F029A6001220270514A6C
:10B09C00009111700191196841F48031196019689F
:10B0AC0001F400310191009901310091019919B914
:10B0BC000099B1F5A06FF2D1196811F4003118BFE5
:10B0CC00012101910199012930D1434A116841F0C4
:10B0DC0010011160116821F003011160116841F039
:10B0EC00010111605A685A605A685A605A685A606D
:10B0FC005A6822F47C125A605A6842F4F8125A6068
:10B10C001A6842F080721A601A689101FCD55A686C
:10B11C0022F003025A605A6842F002025A605A68DE
:10B12C0002F00C02082AFAD104B0704700210291F7
:10B13C0001700391196841F001011960196801F05F
:10B14C000201039102990131029103990029F5D072
:10B15C00196811F0020118BF01210391039901290B
:10B16C002FD11D4A116841F010011160116821F0B6
:10B17C0003011160116841F0010111605A685A60B5
:10B18C005A685A605A685A605A6822F47C125A609B
:10B19C005A6842F4E0125A601A6842F080721A60DF
:10B1AC001A689201FCD55A6822F003025A605A6858
:10B1BC0042F002025A605A6802F00C02082AFAD1D4
:10B1CC00B2E701231370AFE700100240D002020077
:10B1DC000000FFF8CF0202000020024070B50D4EB7
:10B1EC000D4D761BB61006D00024013455F8043BE7
:10B1FC009847A642F9D1094E094DFCF7FBFE761B88
:10B20C00B61006D00024013455F8043B9847A642EA
:10B21C00F9D170BDF0C20100F0C20100F8C201000A
:10B22C00F0C20100F0B4860743D0541E002A3ED071
:10B23C00CAB2034602E014F1FF3438D303F8012BF1
:10B24C009D07F8D1032C2BD9CDB245EA05250F2C3F
:10B25C0045EA054516D9A4F110073F0903F120066C
:10B26C0006EB071603F1100242E9045542E90255B8
:10B27C001032B242F8D104F00F040137032C03EB67
:10B28C0007130DD91E462246043A032A46F8045BDE
:10B29C00FAD8221F22F003020432134404F00304F0
:10B2AC002CB1C9B21C4403F8011B9C42FBD1F0BC6D
:10B2BC00704714460346C5E72DE9F04F0F46B946D3
:10B2CC00344B85B00390186800F08AF8324B1B6839
:10B2DC00019303F5A4730293019BD3F848613EB329
:10B2EC004FF00108DDF808A07468651E0FD4002724
:10B2FC00013406EB8404B9F1000F20D0D4F80031EE
:10B30C004B451CD0013D6B1CA4F10404F3D1234B21
:10B31C0073B1D6E90032002A34D1002B32D030463A
:10B32C00CAF80030AFF30080DAF80060002EDBD1F1
:10B33C00184B186805B0BDE8F04F00F053B87368AF
:10B34C002268013BAB420CBF75602760002AD9D044
:10B35C00D6F8881108FA05F30B42D6F804B008D1D8
:10B36C00904773685B45B7D1DAF80030B342C9D067
:10B37C00B2E7D6F88C01D4F88010034207D10398B9
:10B38C009047EEE7B2461E46002EADD1D0E70846F8
:10B39C009047E6E7B8C70100E0C2000000000000DB
:10B3AC00002301461A46184600F01EB838B50A4C60
:10B3BC000A4D641BA4100AD004F18043013B05EB39
:10B3CC008305013C55F804399847002CF9D1BDE8A8
:10B3DC00384000F069B800BFFCC20100F8C201009F
:10B3EC00704700BF704700BF2DE9F8432B4D064650
:10B3FC00286898460F469146FFF7F2FF284B1C68C9
:10B40C00D4F84831002B3DD05A681F2A0DDC02F1CC
:10B41C00010C16BB0232C3F804C0286843F8227032
:10B42C00FFF7E0FF0020BDE8F8831E4B7BB34FF421
:10B43C00C870AFF30080034648B30020D4F848111D
:10B44C004FF0010CC3E900100246C4F84831C3F8B0
:10B45C008801C3F88C01002EDCD0012103EB82049F
:10B46C00C4F88890D3F8880191400843022EC3F8A1
:10B47C008801C4F80881CDD1D3F88C010143C3F8FD
:10B48C008C11C7E704F5A673C4F84831BCE72868EB
:10B49C00FFF7A8FF4FF0FF30C5E700BFB8C70100AA
:08B4AC00E0C2000000000000F6
:0CB4B400F8B500BFF8BC08BC9E4670470D
:10B4C000200800000400000200000000000000004E
:10B4D000000000000000000028000000D400000070
:10B4E00080010000EC01000046414900000000001E
:10B4F0000000000006FF0000000001000000000046
:10B500000000000098020000B0020000D402000019
:10B51000F8020000340300007C030000000020005B
:10B520000001210000022200000323000004240087
:10B53000000525004231204C454420310000000028
:10B540004231204C45442032000000004231204C62
:10B5500045442033000000004231204C4544203453
:10B56000000000004231204C45442035000000001E
:10B570004231204C454420360000000000000532D6
:10B5800000000532000005320000053200000532DF
:10B59000000005324B6E6967687452696465720019
:10B5A00006FF000000000100000000000000000095
:10B5B00094030000DC0300003C040000B40400001D
:10B5C0002C0500009805000000002000000121006B
:10B5D00000022200000323000004240000052500CF
:10B5E0004231204C45442031000000004231204CC3
:10B5F00045442032000000004231204C45442033B5
:10B60000000000004231204C45442034000000007E
:10B610004231204C45442035000000004231204C8E
:10B6200045442036000000000000053200000532CD
:10B63000000005320000053200000532000005322E
:10B6400052474200000000000000000006FF00001A
:10B65000000001000000000000000000E005000004
:10B660002806000070060000B80600000007000071
:10B670004807000000002000000140000002800098
:10B6800000032100000441000005810042312052E6
:10B69000474220312D3300004231205247422034AE
:10B6A0002D360000000005320000053244696D6D42
:10B6B000657200000000000006FF000000000100AD
:10B6C000000000000000000090070000A807000034
:10B6D000C0070000D8070000F007000008080000BD
:10B6E00000002000000121000002220000032300CE
:10B6F00000042400000525004231204C454420313F
:10B70000000000004231204C45442032000000007F
:10B710004231204C45442033000000004231204C8F
:10B7200045442034000000004231204C454420357F
:10B73000000000004231204C45442036000000004B
:10B74000000005320000053200000532000005321D
:10B75000000005320000053202FFFF00D0070000A4
:10B76000FFFF0001F00100000000000000000005E4
:10B7700003FF00322C019600FFFF00020100B0041D
:10B780000000000000000000F001000000000000C8
:10B790000000000503FF0032F4019600FFFF0002E5
:10B7A000010084030000000000000000F001000020
:10B7B00000000000000000050200FF00C8000000BB
:10B7C000FFFF000102FFFF002C010000FFFF00014E
:10B7D00002FF0000C8000000FFFF000101004C0450
:10B7E0000000000000000000F00100000000000068
:10B7F00000000005010084030000000000000000BC
:10B800000200FF00C8000000FFFF000102FFFF0070
:10B810002C010000FFFF000102FF0000C800000033
:10B82000FFFF00010100C800000000000000000050
:10B83000F001000000000000000000050400FF000F
:10B84000D0070000FFFF0003F0010000000000002F
:10B850000000000502FFFF0064000000FFFF000180
:10B8600002FF000090010000FFFF00010100200323
:10B8700000000000000000000200F700640000006B
:10B88000FFFF000102FFFF0090010000FFFF000129
:10B89000F001000000000000000000050200F700B9
:10B8A00064000000FFFF000102FFFF0064000000D1
:10B8B000FFFF000102FF000090010000FFFF0001F8
:10B8C0000100580200000000000000000200F70024
:10B8D00064000000FFFF000102FFFF0064000000A1
:10B8E000FFFF000102FF000090010000FFFF0001C8
:10B8F000F0010000000000000000000501006400ED
:10B9000000000000000000000200F70064000000DA
:10B91000FFFF000102FFFF0064000000FFFF0001C5
:10B9200002FF000090010000FFFF000101009001F4
:10B9300000000000000000000200F70064000000AA
:10B94000FFFF000102FFFF0064000000FFFF000195
:10B9500002FF000090010000FFFF000101006400F1
:10B960000000000000000000F001000000000000E6
:10B97000000000050100C8000000000000000000F9
:10B980000200F70064000000FFFF000102FFFF005B
:10B9900064000000FFFF000102FF000090010000B2
:10B9A000FFFF00010100C8000000000000000000CF
:10B9B0000200F70064000000FFFF000102FFFF002B
:10B9C00064000000FFFF000102FF00009001000082
:10B9D000FFFF00010100C80000000000000000009F
:10B9E000F0010000000000000000000501002C0133
:10B9F00000000000000000000200F70064000000EA
:10BA0000FFFF000102FFFF0064000000FFFF0001D4
:10BA100002FF000090010000FFFF00010200F7009C
:10BA200064000000FFFF000102FFFF00640000004F
:10BA3000FFFF000102FF000090010000FFFF000176
:10BA400001002C010000000000000000F0010000D7
:10BA5000000000000000000501009001000000004F
:10BA6000000000000200F70064000000FFFF00017A
:10BA700002FFFF00F4010000FFFF000102FF0000D1
:10BA800090010000FFFF0001010090010000000094
:10BA900000000000F00100000000000000000005B0
:10BAA0000200FF00E803000000FF000102FFFF00AA
:10BAB000E8030000FFFF000102FF0000E8030000B0
:10BAC000FF0000010200FF00E803000000FF00018A
:10BAD00002FF0000E8030000FF000001F001000089
:10BAE000000000000000000502000000E803000064
:10BAF000000000010200FF00E803000000FF000159
:10BB000002FFFF00E8030000FFFF000102FFFF004B
:10BB1000E8030000FFFF000102FF0000E80300004F
:10BB2000FF000001F001000000000000000000051F
:10BB300002FF0000E8030000FF0000010200000017
:10BB4000E80300000000000102000000E80300001C
:10BB5000000000010200FF00E803000000FF0001F8
:10BB600002FFFF00E8030000FFFF0001F0010000FA
:10BB700000000000000000050300FF32E8032C0174
:10BB800000FF00020300FF32E803DE00FFFF0002B7
:10BB9000037F0032E803B400FF0000020300FF321D
:10BBA000E803DE00FFFF000203FF0032E8032C0180
:10BBB000FF000002F001000000000000000000058E
:10BBC00003000032E8032C01000000020300FF32F2
:10BBD000E803DE0000FF0002037FFF32E803B40049
:10BBE000FFFF00020300FF32E803DE00FFFF000258
:10BBF00003FF0032E8032C01FF000002F001000007
:10BC0000000000000000000503FF0032E8032C01E3
:10BC1000FF00000203000032E803DE000000000223
:10BC200003000032E803B400000000020300FF320A
:10BC3000E803DE00FFFF000203FFFF32E8032C01F0
:10BC4000FFFF0002F00100000000000000000005FE
:10BC50000400FF00E8030000FFFF0003F001000004
:10BC6000000000000000000504FF0000E8030000E1
:10BC7000FFFF0003F00100000000000000000005CD
:10BC80000400FF00E8030000FFFF0003F0010000D4
:10BC9000000000000000000504FF0000E8030000B1
:10BCA000FFFF0003F001000000000000000000059D
:10BCB0000400FF00E8030000FFFF0003F0010000A4
:10BCC000000000000000000504FF0000E803000081
:10BCD000FFFF0003F001000000000000000000056D
:10BCE00070FF8000000002000400070009000B0044
:10BCF0000E0010001300150018001A001D0020008F
:10BD00002200250028002B002E00310034003700CF
:10BD10003A003D004100440047004B004E005200F5
:10BD2000550059005D006100640068006C007000FF
:10BD3000750079007D00810086008A008F009400E4
:10BD400098009D00A200A700AC00B100B700BC00A5
:10BD5000C200C700CD00D300D800DE00E400EB0035
:10BD6000F100F700FE0004010B011201190120018E
:10BD700027012E0136013D0145014D0155015D01AF
:10BD800065016D0176017F01870190019A01A30190
:10BD9000AC01B601C001CA01D401DE01E901F30121
:10BDA000FE010902140220022B02370243024F0255
:10BDB0005C0269027502830290029D02AB02B90225
:10BDC000C802D602E502F40203031303230333037C
:10BDD000430354036503760387039903AC03BE034F
:10BDE000D103E403F7030B041F04340449045E0485
:10BDF00073048904A004B604CD04E504FD0415050C
:10BE00002E05470561057B059505B005CC05E805C0
:10BE1000040621063E065C067B069A06B906D9068C
:10BE2000FA061B073D075F078207A507C907EE074C
:10BE300013083A0860088808B008D80802092C09D5
:10BE400057098209AF09DC090A0A390A680A990AFE
:10BE5000CA0AFC0A2F0B630B970BCD0B040C3B0C8F
:10BE6000730CAD0CE70C230D5F0D9D0DDB0D1B0E50
:10BE70005C0E9E0EE10E250F6A0FB10FF90F4210F6
:10BE80008C10D81025117311C31114126612BA1236
:10BE90000F136613BE1318147314D0142F158F15B7
:10BEA000F1155516BA1621178A17F4176118CF180D
:10BEB0003F19B219261A9C1A141B8F1B0B1C8A1CC3
:10BEC0000B1D8E1D131E9B1E251FB11F4020D12050
:10BED0006521FB2194223023CE236F241325BA251C
:10BEE000632610270000FFFFFFFF00000807C800BF
:10BEF000F401F401C8000807584C656420436F6ED4
:10BF000074726F6C00426F617264636F6E66696712
:10BF1000204572726F72212100426F617264636FFB
:10BF20006E666967204F4B005573696E67206578B0
:10BF30007465726E616C206372797374616C000059
:10BF4000000005800F800A001B801E001400118075
:10BF5000338036003C00398028002D802780220065
:10BF6000638066006C00698078007D807780720055
:10BF7000500055805F805A004B804E004400418045
:10BF8000C380C600CC00C980D800DD80D780D20035
:10BF9000F000F580FF80FA00EB80EE00E400E18025
:10BFA000A000A580AF80AA00BB80BE00B400B18015
:10BFB000938096009C00998088008D808780820005
:10BFC000838186018C01898198019D8197819201ED
:10BFD000B001B581BF81BA01AB81AE01A401A181DD
:10BFE000E001E581EF81EA01FB81FE01F401F181CD
:10BFF000D381D601DC01D981C801CD81C781C201BD
:10C00000400145814F814A015B815E0154015181AC
:10C01000738176017C01798168016D81678162019C
:10C02000238126012C01298138013D81378132018C
:10C03000100115811F811A010B810E01040101817C
:10C04000038306030C03098318031D83178312035C
:10C05000300335833F833A032B832E03240321834C
:10C06000600365836F836A037B837E03740371833C
:10C07000538356035C03598348034D83478342032C
:10C08000C003C583CF83CA03DB83DE03D403D1831C
:10C09000F383F603FC03F983E803ED83E783E2030C
:10C0A000A383A603AC03A983B803BD83B783B203FC
:10C0B000900395839F839A038B838E0384038183EC
:10C0C000800285828F828A029B829E0294029182E4
:10C0D000B382B602BC02B982A802AD82A782A202D4
:10C0E000E382E602EC02E982F802FD82F782F202C4
:10C0F000D002D582DF82DA02CB82CE02C402C182B4
:10C10000438246024C02498258025D8257825202A3
:10C11000700275827F827A026B826E026402618293
:10C12000200225822F822A023B823E023402318283
:10C13000138216021C02198208020D820782020273
:10C140000091E3720796E4750E9FED7C0998EA7BF7
:10C150001C8DFF6E1B8AF8691283F1601584F667E7
:10C1600038A9DB4A3FAEDC4D36A7D54431A0D243D7
:10C1700024B5C75623B2C0512ABBC9582DBCCE5FC7
:10C1800070E1930277E694057EEF9D0C79E89A0BB7
:10C190006CFD8F1E6BFA881962F3811065F48617A7
:10C1A00048D9AB3A4FDEAC3D46D7A53441D0A23397
:10C1B00054C5B72653C2B0215ACBB9285DCCBE2F87
:10C1C000E0710392E7760495EE7F0D9CE9780A9B77
:10C1D000FC6D1F8EFB6A1889F2631180F564168767
:10C1E000D8493BAADF4E3CADD64735A4D14032A357
:10C1F000C45527B6C35220B1CA5B29B8CD5C2EBF47
:10C20000900173E2970674E59E0F7DEC99087AEB36
:10C210008C1D6FFE8B1A68F9821361F0851466F726
:10C22000A8394BDAAF3E4CDDA63745D4A13042D316
:10C23000B42557C6B32250C1BA2B59C8BD2C5ECF06
:10C2400005000A000F00140019001E00230028003A
:10C250002D00320037003C00410046004B005000EA
:10C260004445425547204F424A454354204558458E
:10C2700043555445442000FFFAF5EBDCC8B4A08CCC
:10C280007864503C28140003010101556E6B6E6FF9
:10C29000776E20636F6D6D616E640D0A00556E6B75
:10C2A0006E6F776E20636F6E66696720636F6D6D6A
:10C2B000616E640D0A00496E76616C696420444CBD
:10C2C00043490D0A00556E6B6E6F776E204C4544E6
:10C2D00020636F6D6D616E640D0A000000512502D0
:04C2E00090C3010006
:08C2E4007CBEFF7F0100000099
:04C2EC00000000004E
:020000021000EC
:08C2F0000D81000045810000F2
:04C2F80021810000A0
:10C3000034CA0100800007000000000000000000A7
:10C310000084000800840008C0B400000084000805
:10C32000400400403C04004038040040400000400D
:10C330003C0000403800004072CB010020000500A6
:10C340000000000000000000C4CB0100000200005B
:10C3500000000000C4CD010000010000000000004A
:10C36000C6CF01000001000000000000C5CE0100A2
:10C3700000010000000000000204060800000000A8
:10C38000010203040102030406070809000000007B
:10C39000000000007CC60100E4C601004CC701009B
:10C3A000000000000000000000000000000000008D
:10C3B000000000000000000000000000000000007D
:10C3C000000000000000000000000000000000006D
:10C3D000000000000000000000000000000000005D
:10C3E000000000000000000000000000000000004D
:10C3F000000000000000000000000000000000003D
:10C40000000000000000000000000000000000002C
:10C41000000000000000000000000000000000001C
:10C42000000000000000000000000000000000000C
:10C4300000000000000000000100000000000000FB
:10C440000E33CDAB34126DE6ECDE05000B000000C0
:10C4500000000000000000000000000000000000DC
:10C4600000000000000000000000000000000000CC
:10C4700000000000000000000000000000000000BC
:10C4800000000000000000000000000000000000AC
:0CC7B0000000000000000000D4020200A5
:040000030000816117
:00000001FF
